:100000000C9422010C944D010C944D010C944D0163
:100010000C944D010C944D010C944D010C944D0128
:100020000C944D010C944D010C944D010C944D0118
:100030000C944D010C944D010C944D010C944D0108
:100040000C944D010C949B1A0C944D010C944D0191
:100050000C944D010C944D010C944D010C94842A88
:100060000C944D010C94D22D0C944D010C944D0127
:100070000C944D010C944D010C944D010C944D01C8
:100080000C944D010C944D010C944D010C944D01B8
:100090000C94132E0C944D010C944D010C944D01B5
:1000A0000C944D010C944D010C944D010C944D0198
:1000B0000C944D010C944D010C944D010C944D0188
:1000C0000C944D010C944D010C944D010C94542E44
:1000D0000C944D010C944D010C94952E0C944D01F3
:1000E0000C944D0100002100240027002A002D005F
:1000F0003000330001010000040107010A01000083
:100100002200250028002B002E00310034000201BF
:100110000000050108010B0100002000230026005B
:1001200029002C002F00320000010000030106010D
:10013000090105050505070508080808020202026D
:100140000A0A080804040404010101010101010173
:100150000303030303030303040707070C0C0C0C3E
:100160000C0C0C0C02020202060606060606060627
:100170000B0B0B0B0B0B0B0B0102102020080810B4
:100180002040102040800201020108040201010207
:1001900004081020408080402010080402018004E0
:1001A000020180402010080402010804020101023B
:1001B0000408102040800102040810204080000044
:1001C000090A02080B0C0D070603040100000000D9
:1001D000000000000000000000000000000000001F
:1001E00000000000000000000000100F0E000000E2
:1001F00000000000000000000000000000000000FF
:1002000000000000494E46494E4954594E414ECDDA
:10021000CCCC3D0AD7233C17B7D13877CC2B3295BD
:1002200095E6241FB14F0A000020410000C842009B
:10023000401C4620BCBE4CCA1B0E5AAEC59D740065
:10024000A915443011241FBECFEFD1E2DEBFCDBFD0
:1002500014E0A0E0B2E0EEE9FEE600E00BBF02C071
:1002600007900D92A237B107D9F71BBE1CE0A2E799
:10027000B4E001C01D92AA33B107E1F712E0C4E473
:10028000D2E004C02297FE010E940737C034D10794
:10029000C9F70E9414310C944D370C940000CF9391
:1002A000DF93BC018230910510F462E070E0A09110
:1002B000360CB091370CED01E0E0F0E040E050E0AA
:1002C00021C0888199818617970769F48A819B816B
:1002D000309719F09383828304C09093370C8093F6
:1002E000360CFE0134C06817790738F44115510502
:1002F00019F08417950708F4AC01FE018A819B81EF
:100300009C01E9012097E9F641155105A9F1CA01BF
:10031000861B970B049708F4BA01E0E0F0E02AC0CE
:100320008D919C91119784179507F9F464177507BF
:1003300081F412968D919C911397309719F09383C5
:10034000828304C09093370C8093360CFD01329663
:100350004CC0CA01861B970BFD01E80FF91F619382
:10036000719302978D939C9340C0FD01828193818C
:100370009C01D9011097A1F68091340C9091350C15
:10038000892B41F480913304909134049093350C7F
:100390008093340C40913504509136044115510539
:1003A00041F44DB75EB78091310490913204481BFF
:1003B000590B2091340C3091350CCA01821B930BE0
:1003C0008617970780F0AB014E5F5F4F8417950744
:1003D00050F0420F531F5093350C4093340CF901E9
:1003E0006193719302C0E0E0F0E0CF01DF91CF9123
:1003F0000895CF93DF93009709F450C0EC01229742
:100400001B821A82A091360CB091370C109709F11B
:1004100040E050E0AC17BD0708F1BB83AA83FE01A2
:1004200021913191E20FF31FAE17BF0779F48D913F
:100430009C911197280F391F2E5F3F4F39832883D6
:1004400012968D919C9113979B838A834115510538
:1004500071F4D093370CC093360C20C012968D9156
:100460009C911397AD01009711F0DC01D3CFFA01F5
:10047000D383C28321913191E20FF31FCE17DF079F
:1004800069F488819981280F391F2E5F3F4FFA0147
:10049000318320838A819B8193838283DF91CF91F3
:1004A0000895A0E0B0E0E7E5F2E00C941C37EC0121
:1004B0005B016115710519F0FB0191838083F9904F
:1004C0008F2D90E00E940B37892BC9F7FDE2FF16B4
:1004D00021F4F990EE24E39405C02BE2F21609F41E
:1004E000F990EE248E0101501040C80164E072E0E2
:1004F00043E050E00E94E004892B01F58E010E5F7D
:100500001F4FC80167E072E045E050E00E94E00440
:10051000892B19F48E01095F1F4FA114B10419F042
:10052000F50111830083E0FC04C070E090E080E8F6
:1005300014C070E090E080E86FEF08C1C8016CE083
:1005400072E043E050E00E94E004892B69F4A114BA
:10055000B10429F470E090E080EC6FE7F7C02296D8
:10056000F501D183C083F6CF8824992440E050E080
:1005700060E070E0EF2DE053EA30A0F5F2E0EF2A02
:100580008E2D90E09C0128703070E2FE06C0232B77
:1005900079F50894811C911C2BC0232B19F0089429
:1005A00081089108DB01CA0112E0880F991FAA1F78
:1005B000BB1F1A95D1F7480F591F6A1F7B1F440FA5
:1005C000551F661F771F4E0F511D611D711D483944
:1005D00029E9520729E9620729E1720748F084E016
:1005E000E82A06C0EE3F31F4E3FC39C098E0E92A7E
:1005F000F990C0CFE53311F0E53189F529912D321D
:1006000019F4E0E1EE2A05C02B3219F081E090E008
:1006100003C0299182E090E0E22FE053EA3018F025
:10062000C81BD90B1CC020E030E0FCE020383F079D
:100630005CF4C901880F991F880F991F280F391F73
:10064000220F331F2E0F311DE991E053EA3068F37A
:10065000E4FE03C0309521953F4F820E931ECE2CB1
:10066000DD24E1FE07C0A114B10421F02197F501BA
:10067000D183C083CB01BA010E9404357B018C0178
:10068000F3E0CF22DD2423E0C216D10421F417FBCE
:10069000109517F9109557016801C801B70120E0BE
:1006A00030E040E050E00E946734882309F44AC0FB
:1006B00097FE0DC023E2E22E22E0F22E9094819468
:1006C00091089394C0E2D0E000E010E012C09BE3F8
:1006D000E92E92E0F92EF6CFF7012591359145915B
:1006E0005491C601B5010E94BA355B016C018C1AA8
:1006F0009D0A8C169D0684F7D595C7950F5F1F4FF1
:100700000630110529F08CEF9FEFE80EF91EF1CFAE
:10071000C501D6017C018D018C2D880F8D2D881F80
:100720008F3F51F0C601B50120E030E040E050E0DD
:100730000E946734882331F482E290E09093390C70
:100740008093380C7E2D9F2D802F612F272F392FDE
:10075000482F562FB901CA01CDB7DEB7ECE00C9493
:1007600038372F923F925F926F927F928F929F9233
:10077000AF92BF92CF92DF92EF92FF920F931F93AF
:10078000CF93DF938C011B01EA016115710519F00C
:10079000FB0191838083209749F0CE0102978397D4
:1007A00028F020E030E040E050E0F6C0F801A190F1
:1007B0008F018A2D90E00E940B37892BB9F7FDE25B
:1007C000AF1631F4F801A1908F015524539407C05E
:1007D000FBE2AF1619F4F801A1908F015524209780
:1007E00019F0C031D105C1F4F0E3AF1679F4F80186
:1007F0008081883711F0883549F4F801A1800E5FB7
:100800001F4FF2E05F2AC0E1D0E006C0209721F43C
:1008100080E3A816E9F427C0C830D10531F1C9300A
:10082000D10524F4C230D10531F50CC0CA30D10550
:1008300089F0C031D105F9F4C12CD12CE12CB8E0FC
:10084000FB2E28C0C12CD12CE12CA0E4FA2E22C012
:10085000CAE0D0E0FCECCF2EFCECDF2EFCECEF2E5F
:10086000FCE0FF2E17C0C8E0D0E0C12CD12CE12C59
:10087000E0E1FE2E0FC09E01442737FD4095542F26
:1008800060E070E080E090E80E94B436C901DA01CF
:100890006C017D0120E030E040E050E060E03E018E
:1008A000882477FC8094982C70EDB72EBA0CE9E080
:1008B000EB1570F48A2D81548A3118F499ECB92E15
:1008C00006C08A2D81568A3150F589EAB82EBA0CB5
:1008D0008B2D90E08C179D0714F56F3FE1F0C21649
:1008E000D306E406F506B0F0CA01B901A4019301EC
:1008F0000E9482369B01AC012B0D311D411D511D03
:100900002130F0E03F07F0E04F07F0E85F0710F418
:1009100061E001C06FEFF801A1908F01C5CF2114F4
:10092000310481F0662331F001501040F101118350
:10093000008308C051FE1AC002501040F10111831B
:10094000008314C067FF12C050FC05C02FEF3FEFBB
:100950004FEF5FE704C020E030E040E050E882E283
:1009600090E09093390C8093380C16C050FE08C06C
:1009700050954095309521953F4F4F4F5F4F0CC09C
:1009800057FF0AC082E290E09093390C8093380CB4
:100990002FEF3FEF4FEF5FE7B901CA01DF91CF9132
:1009A0001F910F91FF90EF90DF90CF90BF90AF908D
:1009B0009F908F907F906F905F903F902F900895C1
:1009C000FB01DC014150504088F08D9181341CF0D6
:1009D0008B350CF4805E659161341CF06B350CF442
:1009E000605E861B611171F3990B0895881BFCCF23
:1009F000FB01DC010D900020E9F7119701900D92A9
:100A00000020E1F70895FB01DC0101900D92002028
:100A1000E1F70895FB019F01E8944230C4F04532AC
:100A2000B4F44A3029F497FB1EF4909581959F4FBA
:100A3000642F77270E94F136805D8A330CF0895D40
:100A40008193CB010097A1F716F45DE251931082D8
:100A5000C9010C944207AEE0B0E0E1E3F5E00C948C
:100A600024370D891E8986E08C831A8309838FEFD2
:100A70009FE79E838D839E01275E3F4FCE010196A7
:100A80006F89788DA9010E944F052F813885020F4B
:100A9000131FF80110822E96E4E00C944037ABE06F
:100AA000B0E0E5E5F5E00C9416373C012B015A0166
:100AB000FC0117821682838181FD03C06FEF7FEFF7
:100AC000C6C19AE0892E1E010894211C311CF30135
:100AD0002381F20123FD859123FF81912F0188233A
:100AE00009F4B2C1853239F423FD859123FF819148
:100AF0002F01853229F490E0B3010E945207E7CF1D
:100B0000982FFF24EE249924FFE1FF15D0F09B32AB
:100B100069F09C3228F4903259F0933291F40EC06F
:100B20009D3249F0903369F441E024C052E0F52A47
:100B300084E0F82A28C098E0F92A25C0E0E1FE2ADE
:100B400022C0F7FC29C0892F80538A3070F4F6FE4A
:100B500005C0989C902C1124980E15C0E89CE02CA0
:100B60001124E80EF0E2FF2A0EC09E3229F4F6FCB2
:100B70006BC140E4F42A07C09C3619F450E8F52A0A
:100B800002C0983649F4F20123FD959123FF91911B
:100B90002F01992309F0B8CF892F8554833018F09D
:100BA0008052833038F444E050E0A40EB51E5FE379
:100BB00059830FC0933631F0933779F0933509F0AC
:100BC00056C020C0F5018081898342E050E0A40E28
:100BD000B51E610101E010E012C0F501C080D180B6
:100BE000F6FC03C06FEF7FEF02C0692D70E042E0BA
:100BF00050E0A40EB51EC6010E9437078C015FE7C6
:100C0000F52214C0F501C080D180F6FC03C06FEF5F
:100C10007FEF02C0692D70E042E050E0A40EB51EE7
:100C2000C6010E942C078C0150E8F52AF3FE07C08C
:100C30001AC080E290E0B3010E945207EA948E2D20
:100C400090E008171907A8F30EC0F601F7FC85918C
:100C5000F7FE81916F0190E0B3010E945207E1100D
:100C6000EA94015010400115110579F7EAC0943655
:100C700011F0993669F5F7FE08C0F5012081318140
:100C80004281538184E090E00AC0F5018081918126
:100C90009C01442737FD4095542F82E090E0A80E38
:100CA000B91E9FE6F92257FF09C05095409530952F
:100CB00021953F4F4F4F5F4FE0E8FE2ACA01B9012F
:100CC000A1012AE030E00E947E07D82ED21840C051
:100CD000953729F41F2D1F7E2AE030E01DC01F2DFF
:100CE000197F9F3661F0903720F4983509F0ACC039
:100CF0000FC0903739F0983709F0A6C004C028E03B
:100D000030E00AC0106114FD146020E130E004C03E
:100D100014FD166020E132E017FF08C0F501608184
:100D200071818281938144E050E008C0F5018081A7
:100D30009181BC0180E090E042E050E0A40EB51E3D
:100D4000A1010E947E07D82ED2188FE7F82EF1223B
:100D5000F6FE0BC05EEFF522D91438F4F4FE07C09E
:100D6000F2FC05C08FEEF82202C01D2D01C0192D26
:100D7000F4FE0DC0FE01ED0DF11D8081803319F4EC
:100D800099EEF92208C01F5FF2FE05C003C08F2D47
:100D9000867809F01F5F0F2DF3FC14C0F0FE0FC022
:100DA0001E1510F09D2C0BC09D2C9E0C911A1E2D13
:100DB00006C080E290E0B3010E9452071F5F1E153B
:100DC000C0F304C01E1510F4E11A01C0EE2404FFA4
:100DD0000FC080E390E0B3010E94520702FF1DC0E4
:100DE00001FD03C088E790E00EC088E590E00BC0ED
:100DF000802F867891F001FF02C08BE201C080E273
:100E0000F7FC8DE290E0B3010E94520706C080E338
:100E100090E0B3010E9452079A94D914C0F3DA9477
:100E2000F101ED0DF11D808190E0B3010E945207A8
:100E3000DD20A9F706C080E290E0B3010E945207CE
:100E4000EA94EE20C1F743CEF30166817781CB01AE
:100E50002B96E2E10C943237FC0105906150704012
:100E60000110D8F7809590958E0F9F1F0895FC0173
:100E70006150704001900110D8F7809590958E0FC9
:100E80009F1F0895DC01FC01672F71917723E1F723
:100E9000329704C07C916D9370836291AE17BF0747
:100EA000C8F308950F931F93CF93DF938C01EB0149
:100EB0008B8181FF1BC082FF0DC02E813F818C8101
:100EC0009D812817390764F4E881F9810193F9833A
:100ED000E88306C0E885F985802F0995892B31F4D0
:100EE0008E819F8101969F838E8302C00FEF1FEF3B
:100EF000C801DF91CF911F910F910895FA01AA27A0
:100F0000283051F1203181F1E8946F936E7F6E5F4C
:100F10007F4F8F4F9F4FAF4FB1E03ED0B4E03CD0FA
:100F2000670F781F891F9A1FA11D680F791F8A1FDD
:100F3000911DA11D6A0F711D811D911DA11D20D044
:100F400009F468943F912AE0269F11243019305DFE
:100F50003193DEF6CF010895462F4770405D4193EF
:100F6000B3E00FD0C9F7F6CF462F4F70405D4A333C
:100F700018F0495D31FD4052419302D0A9F7EACF04
:100F8000B4E0A6959795879577956795BA95C9F733
:100F900000976105710508959B01AC010A2E069426
:100FA0005795479537952795BA95C9F7620F731FDF
:100FB000841F951FA01D08950F931F938C01FC01A2
:100FC000848160E00E94B52C81E090E00E94332B88
:100FD000F801848161E00E94B52C81E090E00E94DC
:100FE000332BF801848160E00E94B52C84E690E008
:100FF0000E94332B1F910F910895CF92DF92EF92B1
:10100000FF920F931F93CF93DF93D82EC92E282FD3
:10101000392FC9018C01C0E0D0E0E62EFF24F80191
:10102000858161E00E948F2CB7010C2E02C075955E
:1010300067950A94E2F76170F80185810E94B52CEA
:1010400021960F5F1F4FC830D10549F78D2D9C2D7C
:101050000E94DC07DF91CF911F910F91FF90EF90DD
:10106000DF90CF900895CF92DF92EF92FF920F938F
:101070001F93CF93DF93D82EC92E282F392FC90164
:101080008C01C0E0D0E0E62EFF24F801858161E00C
:101090000E948F2CB7010C2E02C0759567950A949B
:1010A000E2F76170F80185810E94B52C21960F5FEF
:1010B0001F4FC430D10549F78D2D9C2D0E94DC07B0
:1010C000DF91CF911F910F91FF90EF90DF90CF9024
:1010D00008951F93CF93DF93EC01162F8A81642F1D
:1010E0000E94B52C8B818F3F19F060E00E94B52CD7
:1010F0008D8584FF05C0CE01612F0E94FD070EC0C3
:10110000612F70E084E0759567958A95E1F7CE01CF
:101110000E943308CE01612F0E943308DF91CF91E6
:101120001F91089541E00E946908089540E00E94DF
:1011300069080895EF92FF920F931F93CF93DF9367
:101140008C017A016770660F660F660F60640E94FB
:101150009608C0E0D0E0D801ED91FC91D701AC0F2A
:10116000BD1F0190F081E02DC8016C910995219679
:10117000C830D10581F7DF91CF911F910F91FF907A
:10118000EF900895FC016685862F846086876C60E9
:10119000CF010E9496080895DF93CF93CDB7DEB7B5
:1011A00028970FB6F894DEBF0FBECDBF9C01FE019D
:1011B0003196A7E4B4E088E00D9001928150E1F708
:1011C000F9018189841710F4482F4150E42FF0E091
:1011D000EE0FFF1FEC0FFD1F8181680F6068C901D2
:1011E0000E94960828960FB6F894DEBF0FBECDBFBA
:1011F000CF91DF91089561E00E94960880ED97E01D
:101200000E94332B0895CF93DF93EC01423018F006
:101210008D8588608D87498B1A8A222329F0413079
:1012200019F48D8584608D8780E593EC0E94332BC3
:101230008A8160E00E94B52C8C8160E00E94B52C10
:101240008B818F3F19F060E00E94B52C6D8564FDA5
:101250001DC0CE0163E00E94330884E991E10E9441
:10126000332BCE0163E00E94330884E991E10E94B0
:10127000332BCE0163E00E94330886E990E00E94A0
:10128000332BCE0162E00E94330816C06062CE01AB
:101290000E94960884E991E10E94332B6D8560627B
:1012A000CE010E94960886E990E00E94332B6D855E
:1012B0006062CE010E9496086D856062CE010E9438
:1012C000960884E08E87CE010E94C208CE010E945B
:1012D000FB0882E08F87CE0166E00E949608DF91CE
:1012E000CF9108956F927F928F92AF92CF92EF92AB
:1012F0000F931F93DF93CF93CDB7DEB73C01162F2B
:10130000842FF301428323830483E582C682A7826C
:1013100080869D8591879E8592879F8593879889F2
:10132000948761E00E948F2CF30183818F3F19F035
:1013300061E00E948F2CF301848161E00E948F2C78
:10134000112319F0F301158603C080E1F3018587AD
:10135000C30160E141E020E00E940309CF91DF91E9
:101360001F910F91EF90CF90AF908F907F906F90E3
:1013700008958F92AF92CF92EF920F931F93CF93D6
:10138000DF93DC01362F542F722F102FAE2C8C2CB4
:1013900081E494E011969C938E9300D000D0EDB739
:1013A000FEB73196CDB7DEB7198211821282138251
:1013B000CD0161E0432F2FEF052FE72EC12E0E94B4
:1013C00072090F900F900F900F90DF91CF911F91A6
:1013D0000F91EF90CF90AF908F9008952F923F9202
:1013E0004F925F926F927F928F929F92AF92BF9235
:1013F000CF92DF92EF92FF920F931F93DF93CF93E1
:10140000CDB7DEB72E970FB6F894DEBF0FBECDBFB7
:101410009E878D878B017A01FB01608171818281BA
:101420009381FA0120813181428153810E94BA3532
:101430005B016C01F8016481758186819781F701F8
:1014400024813581468157810E94BA353B014C0188
:10145000F8016085718582859385F7012085318546
:10146000428553850E94BA351B012C01F801648521
:10147000758586859785F701248535854685578549
:101480000E94BA3569877A878B879C87F8016089C3
:10149000718982899389F701208931894289538929
:1014A0000E94BA357B018C01C601B50120E030E015
:1014B00040E050E00E94B63588234CF0C601B501EB
:1014C00020E030E040E05FE30E94033408C0C60142
:1014D000B50120E030E040E05FE30E9402340E946A
:1014E000D33469837A838B839C83C401B30120E066
:1014F00030E040E050E00E94B63588234CF0C40153
:10150000B30120E030E040E05FE30E94033408C014
:10151000C401B30120E030E040E05FE30E94023408
:101520000E94D3346D837E838F839887C201B1017B
:1015300020E030E040E050E00E94B63588234CF0D7
:10154000C201B10120E030E040E05FE30E940334DB
:1015500008C0C201B10120E030E040E05FE30E943A
:1015600002340E94D3343B014C0169857A858B8516
:101570009C8520E030E040E050E00E94B6358823B2
:101580005CF069857A858B859C8520E030E040E0C1
:101590005FE30E9403340AC069857A858B859C8548
:1015A00020E030E040E05FE30E9402340E94D33448
:1015B0005B016C01C801B70120E030E040E050E081
:1015C0000E94B63588234CF0C801B70120E030E016
:1015D00040E05FE30E94033408C0C801B70120E087
:1015E00030E040E05FE30E9402340E94D33429815E
:1015F0003A814B815C81ED85FE8520833183428376
:1016000053832D813E814F815885248335834683C2
:1016100057836086718682869386A486B586C68641
:10162000D786608B718B828B938BCF012E960FB6F2
:10163000F894DEBF0FBECDBFCF91DF911F910F9108
:10164000FF90EF90DF90CF90BF90AF909F908F90E2
:101650007F906F905F904F903F902F9008958823D8
:1016600021F4809181008B7F29C0813049F48091E1
:1016700081008B7F8093810080918100826015C002
:10168000823049F4809181008B7F8093810080912A
:101690008100826018C0833071F480918100846081
:1016A00080938100809181008D7F80938100809163
:1016B00081008E7F0DC080918100846080938100C5
:1016C000809181008D7F8093810080918100816075
:1016D000809381000895E0E8F0E01082A1E8B0E096
:1016E0001C921092820010926F008C918F7E8C93CE
:1016F0008C9188608C9380818D7F808380818E7FA8
:10170000808380818F77808380818F7B80838081BD
:101710008F7D808380818F7E808384E00E942F0B69
:101720008FEF9FEF90938900809388000895FC01CC
:1017300080819181A281B381803020E0920721E0F5
:10174000A20720E0B2070CF441C0893F2FEF9207B7
:1017500027E0A20720E0B20744F453E0B595A7952F
:10176000979587955A95D1F731C0813C2FEF920715
:101770002FE3A20720E0B20744F446E0B595A79511
:10178000979587954A95D1F721C081302FEF920721
:101790002FEFA20720E0B2073CF4892F9A2FAB2F3E
:1017A000BB27A7FDBA9512C081302CEF92072FEF0F
:1017B000A20723E0B2071CF0EFEFFFEF08C02AE01A
:1017C000B595A795979587952A95D1F7FC01CF01F7
:1017D0000895EF92FF920F931F93DF93CF9300D062
:1017E00000D0CDB7DEB77B018C0164E0EE0CFF1CAE
:1017F000001F111F6A95D1F7E982FA820B831C83BF
:10180000CE0101960E94970B9093890080938800E7
:1018100080E0E81680E0F80681E0080780E018071D
:1018200014F480E022C089EFE8168FEFF80687E015
:10183000080780E0180714F481E017C081ECE8166F
:101840008FEFF8068FE3080780E0180714F482E0B2
:101850000CC081E0E8168FEFF8068FEF080780E0F4
:10186000180714F084E001C083E00E942F0B0F9052
:101870000F900F900F90CF91DF911F910F91FF90DC
:10188000EF9008952F923F924F925F926F927F92C6
:101890008F929F92AF92BF92CF92DF92EF92FF9280
:1018A0000F931F93DF93CF9300D00F92CDB7DEB786
:1018B000882309F08AC080917A04882309F485C0BE
:1018C00010927A04E0917B04F0917C0480818983FA
:1018D00020907804309079040BE714E00F2EF1E2A9
:1018E0004F2EF8E95F2EFDEF6F2EF4E47F2EF02DE2
:1018F0000F2EF0E08F2EF0E09F2EF0E8AF2EFFE3EA
:10190000BF2EF02D0F2EF2E9CF2EFEEBDF2EFFE9DA
:10191000EF2EF2E4FF2EF02DD8010D90BC91A02DFA
:10192000BB83AA83E981EC93EE23F9F01196CD9263
:10193000DD92ED92FC921497FD01C582D682E7827A
:10194000F08680E090E0A0EAB4E481879287A387E4
:10195000B487F10180859185A285B385EA81FB81F9
:1019600085879687A787B08B25C0EA81FB81418256
:10197000528263827482458256826782708680E0DA
:1019800090E0AEEFB6E481879287A387B487D10158
:1019900018966D917D918D919C911B9723E333E374
:1019A0004BEC51E40E94BA35EA81FB81658776876A
:1019B0008787908B818A928AA38AB48A0E5F1F4F91
:1019C000B4E003381B0709F0A7CF0F900F900F90DA
:1019D000CF91DF911F910F91FF90EF90DF90CF900B
:1019E000BF90AF909F908F907F906F905F904F903F
:1019F0003F902F900895AF92BF92CF92DF92EF92D7
:101A0000FF920F931F93DF93CF9300D0CDB7DEB734
:101A10008C017B016A015901BE016F5F7F4F4AE073
:101A200050E00E94B10329813A81201B310B12162C
:101A300013066CF4F7016083718382839383F6014C
:101A4000808191818A299B299183808305C0F70138
:101A50001082118212821382C9010F900F90CF91D0
:101A6000DF911F910F91FF90EF90DF90CF90BF908B
:101A7000AF900895AF92BF92CF92DF92EF92FF9214
:101A80000F931F93DF93CF9300D0CDB7DEB78C01B8
:101A90007B016A015901BE016F5F7F4F4AE050E050
:101AA0000E94B10329813A81201B310B12161306C3
:101AB0005CF4F70171836083F601808191818A294A
:101AC0009B299183808303C0F70111821082C90191
:101AD0000F900F90CF91DF911F910F91FF90EF909A
:101AE000DF90CF90BF90AF900895AF92BF92CF920A
:101AF000DF92EF92FF920F931F93DF93CF9300D06B
:101B0000CDB7DEB78C017B016A015901BE016F5F61
:101B10007F4F0E94510229813A81201B310B1216FE
:101B200013066CF4F7016083718382839383F6015B
:101B3000808191818A299B299183808309C080E0DB
:101B400090E0A0E0B0E0F70180839183A283B383AB
:101B5000C9010F900F90CF91DF911F910F91FF90CE
:101B6000EF90DF90CF90BF90AF9008952F923F926B
:101B70004F925F926F927F928F929F92AF92BF929D
:101B8000CF92DF92EF92FF920F931F93DF93CF9349
:101B9000CDB7DEB768970FB6F894DEBF0FBECDBFE6
:101BA0008B015E8B4D8BFC01119211926F017C01B8
:101BB0009C012C5F3F4F3C8B2B8BFC013696FA8BA4
:101BC000E98B9C01285D3F4F388B2F87FC013896AD
:101BD000FE87ED879C01245F3F4F3C872B87FC01EC
:101BE0007096FA87E9879C012C5E3F4F38872F83D8
:101BF000FC017C96FE83ED839C01205E3F4F3C837D
:101C00002B83FC01B496FA83E9836CE2262E312CF7
:101C1000280E391E50E3452E512C480E591E48E11E
:101C2000642E712C680E791E36E3832E912C880E5B
:101C3000991E24E3A22EB12CA80EB91E188E1F8A5D
:101C4000EDC0EF89F88DE00FF11FE081E03509F478
:101C50005DC0E135DCF4E93409F484C0EA3474F49D
:101C6000E63409F495C0E73434F4EA3209F4C4C028
:101C7000E53409F5A9C0E734F1F420C0ED3441F1B1
:101C8000EE3409F4ADC0EA34B1F477C0E43559F16B
:101C9000E5354CF4E23509F486C08F89988D0196BC
:101CA000E33564F58AC0E93509F446C0EA3509F43C
:101CB0004EC0E835B1F180E090E0A9C08F89988DE1
:101CC0000196800F911FB601A70121E030E09DC071
:101CD0008F89988D0196800F911F6B897C89A70150
:101CE00022E030E092C08F89988D0196800F911F7D
:101CF00069897A89A70120E030E487C0800F911FAD
:101D00006F857889A70120E034E067C08F89988DBE
:101D10000196800F911F6D857E85A70124E030E03C
:101D20005CC08F89988D0196800F911F6B857C8593
:101D3000A70128E030E051C08F89988D0196800F6F
:101D4000911F69857A85A70120E130E046C08F891F
:101D5000988D0196800F911F6F817885A70120E2F1
:101D600030E03BC08F89988D0196800F911F6D8167
:101D70007E81A70120E430E030C08F89988D0196E4
:101D8000800F911F6B817C81A70120E030E825C086
:101D90008F89988D0196800F911F69817A81A701A3
:101DA00020E032E01AC08F89988D0196800F911F34
:101DB000B101A70120E030E110C0800F911FB201F6
:101DC000A70120E038E009C08F89988D0196800F27
:101DD000911FB301A70120E030E20E94750D17C0EA
:101DE0008F89988D0196800F911FB401A70120E87B
:101DF00030E00E94FB0C0BC08F89988D0196800FFC
:101E0000911FB501A70120E031E00E943A0D019633
:101E10002F89388D280F391F388F2F8B8F89988DF8
:101E2000ED89FE898E179F070CF40BCF68960FB6CD
:101E3000F894DEBF0FBECDBFCF91DF911F910F9100
:101E4000FF90EF90DF90CF90BF90AF909F908F90DA
:101E50007F906F905F904F903F902F900895CF9319
:101E6000DF93EC01662371F08881882359F088EEB6
:101E70009BE060E072E00E94523188EE9BE0BE0180
:101E80000E945231DF91CF910895FC0181A160E061
:101E900070E00E94D32B0895AF92BF92CF92DF9251
:101EA000EF92FF920F931F93E62EA42E90E0AA27A5
:101EB00097FDA095BA2FBC01CD010E9406352AE9F5
:101EC00039E949E95EE30E94BA350E94D3349B01A7
:101ED000AC0185E0B9010E94D32BFF240027F7FC59
:101EE0000095102FC801B7010E9406352AE939E98B
:101EF00049E95EE30E94BA350E94D3349B01AC01EC
:101F000086E0B9010E94D32BBB24CC24B7FCC0943B
:101F1000DC2CC601B5010E9406352AE939E949E9F8
:101F20005EE30E94BA350E94D3349B01AC0187E086
:101F3000B9010E94D32B1F910F91FF90EF90DF907A
:101F4000CF90BF90AF9008950F931F938C010E9484
:101F5000CC2AF801618372838383948380E090E0CC
:101F6000A0E0B0E081879287A387B48785879687B2
:101F7000A787B08B1F910F9108950F931F938C012A
:101F8000FC01848595850E94A40FF80111821082BE
:101F9000848595850E94450F1F910F9108950F9399
:101FA0001F938C01FC01808191810E94F901F8014D
:101FB00013821282158214821F910F910895CF927D
:101FC000DF92EF92FF920F931F93DF93CF93CDB7E2
:101FD000DEB7AA970FB6F894DEBF0FBECDBF6C0177
:101FE000FC0182A10E949F2BAA2797FDA095BA2FE2
:101FF000BC01CD010E94063520E030E040EA50E40B
:102000000E94BA3520E030E048EC52E40E94BA3534
:1020100020E030E040E85AE30E94BA350E94D33411
:102020009B01AC01F60174A363A382A1883009F07F
:10203000F0C08091720490917304019690937304A0
:10204000809372040197889709F0E7C01092730497
:10205000109272048DE994E060E041E00E94CC08A7
:102060007E010894E11CF11CC70162E072E00E944D
:102070009E338E01095F1F4FF60163A174A1C80151
:102080004AE050E00E94C633C701B8010E943833CD
:10209000C8010E94CF0F8E01035F1F4FC80164E08B
:1020A00072E00E949E33C701B8010E943833C80114
:1020B0000E94CF0F8E010D5E1F4F609176047091CC
:1020C0007704C8014AE050E00E94C633C701B80156
:1020D0000E943833C8010E94CF0F8E01075E1F4F48
:1020E000C80166E072E00E949E33C701B8010E94F9
:1020F0003833C8010E94CF0F8E01015E1F4F6091DF
:10210000740470917504C8014AE050E00E94C6331F
:10211000C701B8010E943833C8010E94CF0F8E0159
:102120000B5D1F4FC8016AE072E00E949E33C70139
:10213000B8010E943833C8010E94CF0F8DE994E0A6
:10214000B7010E945A318DE994E060E041E00E94BD
:10215000CC088DE994E061E00E949208F60183A129
:1021600094A18436910514F435E001C036E08091E5
:1021700076049091770460E08A3091050CF061E07C
:1021800020E0843691050CF021E0620F630F8DE9A9
:1021900094E041E00E94CC088DE994E060E00E9468
:1021A0009208F60183A194A18436910514F479E094
:1021B00001C07AE0409176045091770480917404D4
:1021C0009091750430E0843691050CF031E020E008
:1021D0000A970CF021E0832F820F60E0443651050E
:1021E0000CF061E0680F80E04A3051050CF081E0AE
:1021F000680F670F8DE994E041E00E94CC088DE9FB
:1022000094E060E00E949208CE0101960E94CF0FF8
:1022100004C03093750420937404AA960FB6F89402
:10222000DEBF0FBECDBFCF91DF911F910F91FF9009
:10223000EF90DF90CF9008952F923F924F925F9250
:102240006F927F928F929F92AF92BF92CF92DF92C6
:10225000EF92FF920F931F93DF93CF93CDB7DEB72B
:102260002C970FB6F894DEBF0FBECDBF4C013B01DB
:102270001E010894211C311CC10162E172E00E9420
:102280009E337092770460927604C4010E94DF0F3F
:102290000E94CC2A7B018C01F401658376838783BD
:1022A000908781819281A381B481A8019701281B25
:1022B000390B4A0B5B0BCA01B9010E9404352FE6AA
:1022C00032E143E85AE30E94BA355B016C01F40144
:1022D000E182F2820383148320E030E040E050E0AA
:1022E0000E94673418160CF0AAC0F40183A194A1CF
:1022F000681A790AB301882777FD8095982F0E9484
:1023000006352B013C01A60195010E94BA35F40166
:1023100025853685478550890E940334F4016587F9
:1023200076878787908B20E030E040EF52E40E9470
:10233000B6351816C4F48E01095F1F4FC80163E15A
:1023400072E00E949E33C101B8010E946E33C80141
:102350000E94CF0F80E090E0A0EFB2E4F401858707
:102360009687A787B08BF4016585768587859089E8
:1023700020E030E040EF52EC0E94673488234CF4B8
:1023800080E090E0A0EFB2ECF40185879687A78704
:10239000B08BC301B201F401218532854385548598
:1023A0000E940234A60195010E946B345B016C010E
:1023B000F4014186528663867486C301B201218985
:1023C0003289438954890E94BA357B018C01F4011A
:1023D0006585768587859089258936894789508DD9
:1023E0000E94BA359B01AC01C801B7010E940334B9
:1023F0007B018C01C601B501F401218D328D438D25
:10240000548D0E94BA359B01AC01C801B7010E94EE
:1024100003340E94D334CB016F3F710519F014F0DF
:102420008FEF90E0BC0197FF02C060E070E0F40124
:1024300081A170E00E94D32BCE01019601C0C101A1
:102440000E94CF0F2C960FB6F894DEBF0FBECDBF03
:10245000CF91DF911F910F91FF90EF90DF90CF9080
:10246000BF90AF909F908F907F906F905F904F90B4
:102470003F902F900895FC0160817181808991893E
:102480000E941C110895FC01148615861686178675
:102490000E943B120895FC0184859585A685B78529
:1024A0000196A11DB11D84879587A687B787815D99
:1024B0009740A040B0401CF0CF010E944312089505
:1024C000EF92FF920F931F93CF93DF93EC011B8248
:1024D0001A821F821E821D821C82FF24EE24E39436
:1024E000E889F9892E813F8183A194A1280F391FA2
:1024F0003F832E838A819B8101969B838A830697E3
:1025000004F1C90165E070E00E94A1367F836E830B
:102510008881998105976817790734F08AE08F15CB
:1025200010F1F394EE2409C0EE2039F08C819D81E6
:1025300086179707C4F47D836C831F821E821B82DB
:102540001A8200E010E0CE010E944B1261E070E0C0
:1025500080E090E00E94DA2A0F5F1F4F83E0083E80
:10256000180789F7BDCFDF91CF911F910F91FF9091
:10257000EF900895FC0160817181848595850E94AA
:102580001C110895FC0110861186128613860E9484
:10259000BA120895FC0180859185A285B3850196C4
:1025A000A11DB11D80879187A287B387815D974068
:1025B000A040B0401CF0CF010E94C212089580914B
:1025C0007804909179040E944B128FEA95E00E9462
:1025D000CA120895CF93DF93EC0169A34AA38881BF
:1025E0008823E9F080E090E0A0E0B0E4898B9A8B4A
:1025F000AB8BBC8B89E29CE5AFE8BDE38D8B9E8BFA
:10260000AF8BB88F80E090E0A0E8BFE3898F9A8F0E
:10261000AB8FBC8F80E090E0AAE7B4E41CC080E000
:1026200090E0A0EBB0E4898B9A8BAB8BBC8B80E005
:1026300090E0A0E0BFE38D8B9E8BAF8BB88F8DECCD
:102640009CECACE4BEE3898F9A8FAB8FBC8F80E0AB
:1026500090E0A0E0B0E08D8F9E8FAF8FB8A31CA25A
:102660001BA2CE010E94A40F89A161E00E948F2CC1
:102670008AA160E00E948F2CDF91CF9108950F9383
:102680001F938C01862FF801668747871086118675
:102690001286138625E839E03587248761E00E9499
:1026A0008F2CF801878560E00E948F2CF8018685C9
:1026B00060E070E00E94D32BF801118210828485C3
:1026C00095850E94A40FF801118210821F910F912D
:1026D00008950F931F93DF93CF93CDB7DEB7609725
:1026E0000FB6F894DEBF0FBECDBF85E061E00E945B
:1026F0008F2C86E061E00E948F2C87E061E00E94D1
:102700008F2C0AE010E0B801882777FD8095982F7C
:102710000E94063520E030E040E45FE30E94BA35D5
:102720000E94D8349B01AC01862F622F402F0E945B
:102730004C0F64E070E080E090E00E94DA2A0F5FC6
:102740001F4F0F3F1105F9F6DE011196E7E5F4E0A2
:1027500088E001900D928150E1F7DE011996EFE4D7
:10276000F4E088E001900D928150E1F78DE994E06A
:1027700060E142E020E00E9403098DE994E060E01E
:10278000AE014F5F5F4F0E949A088DE994E061E0CF
:10279000AE01475F5F4F0E949A088DE994E00E9466
:1027A000FB088DE994E068E272E00E9452318DE905
:1027B00094E060E041E00E94CC088DE994E069E398
:1027C00072E00E94523160960FB6F894DEBF0FBEE1
:1027D000CDBFCF91DF911F910F910895FC018689A4
:1027E00060E00E94B52C08950F931F938C01FC01AB
:1027F000808991890E94A40FF8011182108280893A
:1028000091890E94450FF801868961E00E94B52CEC
:102810001F910F9108958F929F92AF92BF92CF9286
:10282000DF92EF920F934C01862FF401628B438B62
:10283000268B048BE58AA086B186C286D386148651
:102840001586168617862AEA39E0318B208B61E0DF
:102850000E948F2CF401838961E00E948F2CF40187
:10286000868961E00E948F2CF401848961E00E94D6
:102870008F2CF401858960E00E948F2CF4018389FC
:1028800061E00E94B52CF401828960E00E94B52CC1
:10289000F401848960E070E00E94D32BF40111827E
:1028A0001082808991890E94A40FF4011182108204
:1028B0000F91EF90DF90CF90BF90AF909F908F904F
:1028C0000895CF93DF93EC01C759DF4F8881998139
:1028D000AA81BB81C956D0400097A105B10521F05E
:1028E0008BE160E00E94B52CC359DF4F888199814C
:1028F000AA81BB81CD56D0400097A105B10521F03A
:102900008DE160E00E94B52CCF58DF4F888199811E
:10291000AA81BB81C157D0400097A105B10521F024
:1029200083E260E00E94B52CCB58DF4F888199810B
:10293000AA81BB810097A105B10559F0E0917A0405
:10294000F0E0EE0FFF1FE858FB4F808191810E945D
:10295000EE13DF91CF9108951F93CF93DF93EC0196
:10296000C955DF4F8881C75AD040882379F5CB56A7
:10297000DF4F699111E0612787E10E94B52C6991D1
:1029800081E20E94B52C6991612787E20E94B52CF3
:102990006881C859D040E0917A04F0E0EE0FFF1F43
:1029A000E858FB4F0190F081E02D83890E94B52CFF
:1029B000CE010E94611468EE73E080E090E00E9416
:1029C000E90BC655DF4F1883FE011293DF91CF91BB
:1029D0001F910895FF920F931F938C0106551F4F6F
:1029E000F801108203501040F8011082025110408B
:1029F000FF24F394F801F192F192F192F1928F0198
:102A0000F0820959104080E090E0A0E0B0E0F801C9
:102A1000858B968BA78BB08F818F928FA38FB48F6E
:102A2000858F968FA78FB0A381A392A3A3A3B4A3EE
:102A300080E090E0A6E9B4E485A396A3A7A3B0A79D
:102A400089E161E00E948F2C87E161E00E948F2C78
:102A50008FE161E00E948F2C81E261E00E948F2C67
:102A600085E261E00E948F2C87E261E00E948F2C5A
:102A70008BE161E00E948F2C8DE161E00E948F2C40
:102A800083E261E00E948F2C8FE060E00E948F2C37
:102A900081E160E00E948F2C83E160E00E948F2C36
:102AA0008FE061E00E94B52C81E161E00E94B52CCD
:102AB00083E161E00E94B52C8EE060E00E948F2CE3
:102AC00080E160E00E948F2C82E160E00E948F2C08
:102AD0008EE061E00E94B52C80E161E00E94B52C9F
:102AE00082E161E00E94B52CF801F08282E99EEB60
:102AF000AFE9B2E481839283A383B4838583968311
:102B0000A783B08780E090E0A0EAB4E48187928751
:102B1000A387B487E0917A04F0E0EE0FFF1FE85836
:102B2000FB4F0190F081E02D80859185A285B385D2
:102B3000F80185879687A787B08B80E090E0A0E8B2
:102B4000BFE3818B928BA38BB48B1F910F91FF906E
:102B50000895AF92BF92CF92DF92EF920F9388E9E0
:102B600095E06BE24DE229E202E078E0E72E0F2EDD
:102B7000F0E0AF2EF0E0BF2EF0E6CF2EF1E4DF2E36
:102B8000F02D0E940B148FEA95E064E04AE00E9469
:102B90003F131092D70684ED9EEF9093C00680936A
:102BA000BF069093C2068093C1061092BF058FEFB7
:102BB0009FEFAFEFBFEF8093D3069093D406A0931F
:102BC000D506B093D6061092D80689ED96E00E94FD
:102BD000EA1484E897E00E94EA148FE298E00E94E9
:102BE000EA148AED98E00E94EA1485E899E064E02E
:102BF0004AE021E00E94EA128AEA99E062E048E0B5
:102C000020E00E94EA128DE994E068E146E124E2C6
:102C100002E250E2E52E3EE1C32E0E94B9090F9177
:102C2000EF90DF90CF90BF90AF9008958091850492
:102C300091E0892780938504882319F084E061E07E
:102C400002C084E060E00E94B52C0895F894809161
:102C5000830480938404ABE7B4E0ED91FD91E655E5
:102C6000FF4F10823397108284E0A338B807A9F78A
:102C70008BE161E00E94B52C8DE161E00E94B52CF2
:102C800083E261E00E94B52C8091780490917904F0
:102C90000E94F4138FEA95E00E94BD0F84E060E08B
:102CA0000E94B52CFFCF2F923F924F925F926F926E
:102CB0007F928F929F92AF92BF92CF92DF92EF92CC
:102CC000FF920F931F93DF93CF93CDB7DEB7AC97EF
:102CD0000FB6F894DEBF0FBECDBF86559F4FDC0107
:102CE0008C91AA5AB040BCA7ABA7882309F40AC4A8
:102CF000AB56BF4FBA83A983EBA5FCA5EB5AFF4F98
:102D0000FC83EB832BA53CA52F5B3F4F3E832D839C
:102D10008BA59CA586569F4F98878F83ABA5BCA596
:102D2000AA56BF4FBA87A987EBA5FCA5E75AFF4F64
:102D3000FC87EB872BA53CA52B5B3F4F3E872D8760
:102D40008BA59CA585569F4F988B8F87ABA5BCA55F
:102D5000A956BF4FBA8BA98BEBA5FCA5E35AFF4F31
:102D6000FC8BEB8B2BA53CA5275B3F4F3E8B2D8B24
:102D70008BA59CA584569F4F988F8F8BABA5BCA528
:102D8000A856BF4FBA8FA98FEBA5FCA5EF59FF4FEF
:102D9000FC8FEB8F2DE4222E312C2BA53CA5220E8F
:102DA000331E23563F4F3E8F2D8F8BA59CA58756F4
:102DB0009F4F98A38F8FABA5BCA5AB59BF4FBAA3AC
:102DC000A9A391E5492E512CEBA5FCA54E0E5F1E43
:102DD000E256FF4FFCA3EBA388EA682E712C2BA5CB
:102DE0003CA5620E731E27593F4F3EA32DA38BA512
:102DF0009CA583589F4F98A78FA30FE9802E912CF5
:102E0000ABA5BCA58A0E9B1EA359BF4FBAA7A9A705
:102E1000E981FA816081AB81BC812D913D914D9119
:102E20005C91ED81FE8180819181A281B38128171F
:102E300039074A075B0751F0662311F48FE001C0A0
:102E40008EE00E94462D892B09F04AC380E0AF81B5
:102E5000B8858C93E985FA856081AB85BC852D9119
:102E60003D914D915C91ED85FE8580819181A2819E
:102E7000B381281739074A075B0751F0662311F41D
:102E800081E101C080E10E94462D892B09F02AC30F
:102E900080E0AF85B8898C93E989FA896081AB8934
:102EA000BC892D913D914D915C91ED89FE89808188
:102EB0009181A281B381281739074A075B0751F036
:102EC000662311F483E101C082E10E94462D892B23
:102ED00009F00AC380E0AF89B88D8C93E98DFA8D33
:102EE000808160E0AB8DBC8D2D913D914D915C91C9
:102EF000F10180819181A281B381281739074A07A6
:102F00005B0709F061E0AD8DBE8D6C93EF8DF8A18C
:102F1000808160E0A9A1BAA12D913D914D915C9174
:102F2000F20180819181A281B381281739074A0774
:102F30005B0709F061E0ABA1BCA16C93F3011082C7
:102F4000AF81B8858C91882309F453C0EDA1FEA10F
:102F500080819181A281B381EFA1F8A52081318187
:102F600042815381820F931FA41FB51F80839183D9
:102F7000A283B383181619061A061B06D4F589E135
:102F800061E00E94B52C89E160E00E94B52C81E0EF
:102F9000D3018C93F4012081318142815381EFA1CF
:102FA000F8A580819181A281B381821B930BA40B30
:102FB000B50B80839183A283B383A981BA818C915D
:102FC000882351F0ED81FE8180819181A281B381BE
:102FD0000196A11DB11D09C0ED81FE818081918105
:102FE000A281B3810197A109B10980839183A28352
:102FF000B383AF85B8898C91882309F455C00BA59C
:103000001CA50F571F4FE9A5FAA580819181A281C8
:10301000B381F8012081318142815381820F931F56
:10302000A41FB51F80839183A283B383181619064A
:103030001A061B06CCF58FE161E00E94B52C8FE1EA
:1030400060E00E94B52C81E0D3018C93F4012081D3
:10305000318142815381F80180819181A281B381C4
:10306000821B930BA40BB50B80839183A283B38344
:10307000A985BA858C91882351F0ED85FE858081E4
:103080009181A281B3810196A11DB11D09C0ED8579
:10309000FE8580819181A281B3810197A109B10947
:1030A00080839183A283B383AF89B88D8C91882369
:1030B00009F45BC00BA51CA50B571F4FEBA5FCA586
:1030C000EF58FF4F80819181A281B381E157F04099
:1030D000FCA7EBA7F8012081318142815381820F47
:1030E000931FA41FB51F80839183A283B3831816F7
:1030F00019061A061B06CCF585E261E00E94B52C84
:1031000085E260E00E94B52C81E0D3018C93F4014C
:103110002081318142815381F80180819181A28196
:10312000B381821B930BA40BB50B80839183A28385
:10313000B383A989BA898C91882351F0ED89FE89DE
:1031400080819181A281B3810196A11DB11D09C029
:10315000ED89FE8980819181A281B3810197A109C6
:10316000B10980839183A283B383AD8DBE8D8C9191
:10317000882309F467C019E8E12EF12CEBA5FCA522
:10318000EE0EFF1EEB58FF4F80819181A281B3812B
:10319000E557F040FCA7EBA7F70120813181428180
:1031A0005381820F931FA41FB51F80839183A28335
:1031B000B383181619061A061B060CF043C0E091DB
:1031C0007A04F0E0EE0FFF1FE858FB4F00811181F9
:1031D000D80152968C9161E00E94B52CF801828949
:1031E00060E00E94B52C81E0D3018C93F401208132
:1031F000318142815381F70180819181A281B38124
:10320000821B930BA40BB50B80839183A283B383A2
:10321000A98DBA8D8C91882349F0F101808191812B
:10322000A281B3810196A11DB11D08C0F101808169
:103230009181A281B3810197A109B1098083918312
:10324000A283B383ABA1BCA18C91882309F45FC096
:10325000EBA5FCA5E357FF4F2BA53CA527583F4FF7
:10326000D9012D913D914D915C911397A957B04093
:10327000BCA7ABA780819181A281B381280F391FA0
:103280004A1F5B1F20833183428353831216130628
:10329000140615069CF5D401ED90FD900D911C913E
:1032A0002E193F09400B510B2083318342835383F6
:1032B000EF8DF8A18081882349F0F201808191810E
:1032C000A281B3810196A11DB11D08C0F2018081C8
:1032D0009181A281B3810197A109B1098083918372
:1032E000A283B3832BA53CA527553F4F81E0D9018D
:1032F0008C93A95AB040BCA7ABA709C0EBA5FCA50D
:10330000E755FF4F1082E95AF040FCA7EBA7D30125
:103310008C91882309F49AC0EBA5FCA5E755FF4FD3
:103320008081E95AF040FCA7EBA7882309F48EC0FE
:10333000EF56FF4FFCA7EBA7D2016D917D918D91C8
:103340009C9120813181428153810E948236EBA57C
:10335000FCA57296DF016083718382839383A35AF5
:10336000B040BCA7ABA70E9406357B018C01EBA542
:10337000FCA5FD96608171818281938120EC31EE04
:1033800044E65CE40E94BA355B016C01F4016081A3
:103390007181828193810E9406359B01AC01C80135
:1033A000B7010E94BA359B01AC01C601B5010E946C
:1033B0006B3420E030E040E050E00E94B6358823D6
:1033C000D4F0D4016D917D918D919C910E94063530
:1033D0009B01AC01C801B7010E94BA359B01AC0149
:1033E000C601B5010E946B3420E030E040E05FE3AD
:1033F0000E94033419C0F40160817181828193813C
:103400000E9406359B01AC01C801B7010E94BA3584
:103410009B01AC01C601B5010E946B3420E030E095
:1034200040E05FE30E9402340E94D3342BA53CA508
:103430002D553F4FD9016D937D938D939C93139799
:10344000A35AB040BCA7ABA70E94E90BEBA5FCA513
:10345000E755FF4F1082E95AF040FCA7EBA7D301D4
:103460008C91882309F042C0EBA1FCA180818823C4
:10347000E9F1CECC2BA53CA525563F4FD9018C9127
:10348000AB59B040BCA7ABA78823D1F4A456BF4F1B
:103490008C91AC59B040BCA7ABA7882389F4A35644
:1034A000BF4F8C91AD59B040BCA7ABA7882341F466
:1034B000A256BF4F8C91AE59B040BCA7ABA701C07C
:1034C00081E0EBA5FCA5E655FF4F80838081882332
:1034D000C9F468EE73E080E090E00E94E90B12C04E
:1034E00081E0B5CC81E0D5CC81E0F5CCEBA5FCA5A5
:1034F000E656FF4F8081EA59F040FCA7EBA78823EE
:10350000F9F6B8CFAC960FB6F894DEBF0FBECDBFBC
:10351000CF91DF911F910F91FF90EF90DF90CF90AF
:10352000BF90AF909F908F907F906F905F904F90E3
:103530003F902F9008951F920F920FB60F920BB6E7
:103540000F9211241F932F933F934F935F936F9389
:103550007F938F939F93AF93BF93EF93FF9380914C
:103560009C04882309F05DC081E080939C047894DA
:1035700080918604909187040196909387048093AC
:1035800086048058924031F40E94161610928704E7
:1035900010928604E0918404F0E0EE0FFF1FE558DE
:1035A000FB4F0190F081E02DE655FF4F808188238D
:1035B00061F0E0918404F0E0EE0FFF1FE558FB4F4F
:1035C000808191810E94531622C090918404809141
:1035D00083049817F9F4E0918404F0E0EE0FFF1FE4
:1035E000E558FB4F0190F081E02DE655FF4F8081BB
:1035F000882381F40CC0E12FF0E0EE0FFF1FE558A7
:10360000FB4F808191810E94AC141093840410922E
:103610009C0407C0109184041F5F143060F310E015
:10362000EACFFF91EF91BF91AF919F918F917F91E1
:103630006F915F914F913F912F911F910F900BBE12
:103640000F900FBE0F901F9018952F923F924F92A0
:103650005F926F927F928F929F92AF92BF92CF9222
:10366000DF92EF92FF920F931F93DF93CF93CDB72B
:10367000DEB7A4970FB6F894DEBF0FBECDBF2C0106
:103680006BA37CA3DC015596FB0184E101900D92B4
:103690008150E1F727EA30E0420E531ED2011C921E
:1036A000E9E5FFEF4E0E5F1ED20155966D917D91BB
:1036B0008D919C9158972091880430918904409174
:1036C0008A0450918B040E9402345B016C01E894DF
:1036D000D7F8F201618D728D838D948D20918C04C9
:1036E00030918D0440918E0450918F040E940234D9
:1036F0007B018C01E89417F9D2015D966D917D9163
:103700008D919C91909720919004309191044091DB
:103710009204509193040E9402343B014C01E894BE
:1037200097F8F20161A172A183A194A12091940460
:103730003091950440919604509197040E94023470
:103740009B01AC015F77298F3A8F4B8F5C8FD20141
:1037500095966D917D918D919C919897209198046B
:103760003091990440919A0450919B040E94023434
:103770009B01AC015F772D8F3E8F4F8F58A3D201F5
:10378000D9962D933D934D935C93DC97298D3A8D7B
:103790004B8D5C8DD5962D933D934D935C93D8972F
:1037A000F20161AA72AA83AA94AA9D96ED92FD9253
:1037B0000D931C93D097A1A6B2A6C3A6D4A6C6010A
:1037C000B501A60195010E94BA355B016C01C801E3
:1037D000B701A80197010E94BA359B01AC01C6014F
:1037E000B5010E9403347B018C01C401B301A40123
:1037F00093010E94BA359B01AC01C801B7010E9438
:1038000003348201035C1F4FD8016D937D938D9328
:103810009C93139727E137EB41ED58E30E946734FF
:1038200088236CF4698D7A8D8B8D9C8D9B01AC0106
:103830000E94BA35F8016083718382839383820189
:10384000035C1F4FD8016D917D918D919C9127E173
:1038500037EB41ED58E30E94673488236CF46D8D9B
:103860007E8D8F8D98A19B01AC010E94BA35F80125
:1038700060837183828393838201035C1F4FD8012D
:103880006D917D918D919C910E942136F80160830C
:1038900071838283938372010894E11CF11C21E4FB
:1038A00030E0420E531E8E010F5F1F4FC801B7015B
:1038B00048E854E00E94EE09D2014FEB5FEF440E5E
:1038C000551EF80184E101900D928150E1F785E1E8
:1038D00090E0480E591E8E010F5F1F4FC801B701BF
:1038E000A2010E94EE09A0E4B0E04A0E5B1ED201E4
:1038F000EBEAFFEF4E0E5F1EF80184E101900D929E
:103900008150E1F7F201EB5AFF4F21E430E0420E23
:10391000531E6080718082809380F201808191814A
:10392000A281B3812FEB3FEF420E531E681A790A32
:103930008A0A9B0A97FE08C09094809470946094C1
:10394000611C711C811C911CF201E75AFF4F45E478
:1039500050E0440E551EE080F18002811381F20197
:1039600080819181A281B3812BEB3FEF420E531EE8
:10397000E81AF90A0A0B1B0B17FF08C010950095EF
:10398000F094E094E11CF11C011D111DF201E35AB9
:10399000FF4F49E450E0440E551E80819181A28181
:1039A000B3818D8B9E8BAF8BB88FF201808191811B
:1039B000A281B38127EB3FEF420E531E2D893E8932
:1039C0004F89588D281B390B4A0B5B0B2D8B3E8B77
:1039D0004F8B588F57FF0BC05095409530952195D0
:1039E0003F4F4F4F5F4F2D8B3E8B4F8B588FF201C8
:1039F000EF59FF4F4DE450E0440E551EA080B180BA
:103A0000C280D380F20180819181A281B38123EBB6
:103A10003FEF420E531EA81AB90ACA0ADB0AD7FEA4
:103A200008C0D094C094B094A094A11CB11CC11C37
:103A3000D11CB20167587F4FF201EB59FF4F41E5AE
:103A400050E0440E551E2081318142815381F201A4
:103A500080819181A281B381EFEAFFEF4E0E5F1E5C
:103A6000281B390B4A0B5B0B57FF07C0509540953D
:103A7000309521953F4F4F4F5F4FDB012D933D9385
:103A80004D935C931397E5E7F0E04E0E5F1ED20175
:103A9000AD92BD92CD92DC9213972D893E894F89CC
:103AA000588D5E934E933E932E93FD011293029395
:103AB000F292E292DF019E928E927E926E922D01A0
:103AC000E7E9FFEF4E0E5F1ED401C3016E147F04C1
:103AD0008006910614F4D801C701F201E156FF4FA8
:103AE00080839183A283B383E080F180028113817C
:103AF00021E730E0420E531ED2012D913D914D91B0
:103B00005C918FE89FEF480E591E2E153F05400728
:103B1000510724F42081318142815381F201E15621
:103B2000FF4F2083318342835383E080F180028101
:103B30001381A5E7B0E04A0E5B1ED2012D913D91A5
:103B40004D915C918BE89FEF480E591E2E153F0555
:103B50004007510724F42081318142815381EFE9EC
:103B6000EE2EF12CE40CF51CD7012D933D934D93D3
:103B70005C9313978D919D910D90BC91A02D009712
:103B8000A105B10599F4E7EAF0E04E0E5F1E81E071
:103B9000D2018C93A8E8B4E02BA13CA1C901FC019F
:103BA00084E101900D928150E1F78AC175E6272EDC
:103BB000312C240C351CF10160807180828093804F
:103BC00092012F5A3F4F3AA329A3D9016D927D92BA
:103BD0008D929C921397E9E7F0E04E0E5F1ED201A2
:103BE0001D921D921D921C921397E7E8FFEF4E0E57
:103BF0005F1E82010F561F4F21E030E040E050E091
:103C0000D8012D933D934D935C931397F7018081D9
:103C10009181A281B381B7FF6DC020813181428142
:103C2000538160E070E080E090E00E94D636590158
:103C30006A01D801AD92BD92CD92DC921397B3E0A8
:103C4000AB16B104C104D1040CF445C0C401B301E6
:103C5000A60195010E94D636F1012083318342836B
:103C60005383C401B301A60195010E94D636C90150
:103C7000DA01E9A1FAA180839183A283B383281B8F
:103C8000390B4A0B5B0B57FF07C050954095309599
:103C900021953F4F4F4F5F4F89E790E0480E591EE7
:103CA000D2012D933D934D935C931397E7E8FFEF7B
:103CB0004E0E5F1EF201E156FF4F80819181A2817D
:103CC000B38182179307A407B507A4F42083318337
:103CD000428353830FC021E030E040E050E0D80140
:103CE0002D933D934D935C931397F70110821182AE
:103CF0001282138210E0D20155966D917D918D91C3
:103D00009C915897209188043091890440918A04AD
:103D100050918B040E94B63588230CF011E0E5E940
:103D2000F0E04E0E5F1ED2011C93EBE6FFEF4E0E4D
:103D30005F1E10E0D20159966D917D918D919C91FD
:103D40005C9720918C0430918D0440918E045091A9
:103D50008F040E94B63588230CF011E0E6E9F0E00C
:103D60004E0E5F1ED2011C93EAE6FFEF4E0E5F1E61
:103D700010E0D2015D966D917D918D919C9190970F
:103D800020919004309191044091920450919304B9
:103D90000E94B63588230CF011E0E7E9F0E04E0E02
:103DA0005F1ED2011C93E9E6FFEF4E0E5F1E10E08E
:103DB000D20191966D917D918D919C9194972091D6
:103DC00094043091950440919604509197040E9478
:103DD000B63588230CF011E0E8E9F0E04E0E5F1EE6
:103DE000D2011C93E8E6FFEF4E0E5F1E10E0D201F9
:103DF00095966D917D918D919C91989720919804C5
:103E00003091990440919A0450919B040E94B635D8
:103E100088230CF011E0E9E9F0E04E0E5F1ED201BC
:103E20001C93E6E0F0E04E0E5F1ED2016D917D9195
:103E30008D919C91E1E6FFEF4E0E5F1E22E030E097
:103E400040E050E00E94D63650954095309521953F
:103E50003F4F4F4F5F4FD201A358BF4F2C93119646
:103E60003C93119712964C93129713965C93139769
:103E7000F201EF57FF4F208331834283538325E8BC
:103E800030E0420E531E8D919D910D90BC91A02D5E
:103E9000F20181939193A193B19381939193A19313
:103EA000B19380839183A283B383A8E8B4E02BA16C
:103EB0003CA1C901FC0184E101900D928150E1F720
:103EC000A4960FB6F894DEBF0FBECDBFCF91DF91A1
:103ED0001F910F91FF90EF90DF90CF90BF90AF9028
:103EE0009F908F907F906F905F904F903F902F901A
:103EF00008951F93CF93DF93EC0106C061E070E05B
:103F000080E090E00E94DA2A80918404882329F4DA
:103F100080918304833059F4F1CF20918304809100
:103F2000840430E090E001972817390739F31091A5
:103F300083041F5F143008F010E0E12FF0E0EE0F73
:103F4000FF1FE558FB4F80819181BE010E94251B18
:103F500010938304DF91CF911F910895CF93DF9346
:103F6000EC019B01A6E4B5E0E8E8F4E084E101900F
:103F70000D928150E1F788819981AA81BB8180935C
:103F80004E0590934F05A0935005B0935105F9014C
:103F900080819181A281B3818093560590935705CA
:103FA000A0935805B093590586E495E00E94791FC7
:103FB000DF91CF9108958F929F92AF92BF92CF924F
:103FC000DF92EF92FF920F931F93DF93CF93CDB7C2
:103FD000DEB7A0970FB6F894DEBF0FBECDBF0F2E91
:103FE000F0E0AF2EF0E0BF2EF4E3CF2EF2E4DF2EB0
:103FF000F02DA0929804B0929904C0929A04D092A5
:104000009B04B0E98B2EB4E09B2EF401608171819A
:104010008281938120E030E040E05FE30E9402343F
:1040200069837A838B839C830F2EF0E0EF2EF0E080
:10403000FF2EF6E90F2FF2E41F2FF02DED82FE8206
:104040000F831887CE010196BE016B5F7F4F0E94E0
:10405000AE1FF401608171818281938120E030E0A4
:104060004AE753E40E94023469877A878B879C87EA
:10407000ED86FE860F87188BCE010996BE01635F21
:104080007F4F0E94AE1F0F2EF0E0EF2EF0E0FF2ECC
:10409000F0E00F2FF0E01F2FF02DF401E082F1820D
:1040A00002831383A0929804B0929904C0929A0458
:1040B000D0929B0480E090E0A0E8BFE3898B9A8BCC
:1040C000AB8BBC8BAD8ABE8ACF8AD88ECE0141968F
:1040D000BE016B5E7F4F0E94AE1FF4016081718153
:1040E0008281938120E030E040E050E40E9402347D
:1040F000698F7A8F8B8F9C8FAD8EBE8ECF8ED8A21C
:10410000CE014996BE01635E7F4F0E94AE1FF4014F
:10411000E082F18202831383A0960FB6F894DEBF8B
:104120000FBECDBFCF91DF911F910F91FF90EF9008
:10413000DF90CF90BF90AF909F908F900895CF93D6
:10414000DF93EC019B01A6E4B5E0E8E8F4E084E14C
:1041500001900D928150E1F788819981AA81BB81FC
:1041600080934A0590934B05A0934C05B0934D0561
:10417000F90180819181A281B3818093560590934A
:104180005705A0935805B093590586E495E00E9421
:10419000791FDF91CF910895AF92BF92CF92DF92B6
:1041A000EF92FF920F931F93DF93CF93CDB7DEB7BC
:1041B000A0970FB6F894DEBF0FBECDBF60918C0400
:1041C00070918D0480918E0490918F0420E030E0F6
:1041D00040EA50E40E94023469837A838B839C8393
:1041E0000F2EF0E0EF2EF0E0FF2EFAE70F2FF5E4B0
:1041F0001F2FF02DED82FE820F831887CE010196CE
:10420000BE016B5F7F4F0E949F2060918C04709174
:104210008D0480918E0490918F0420E030E04AE775
:1042200053E40E94023469877A878B879C87ED86E6
:10423000FE860F87188BCE010996BE01635F7F4F04
:104240000E949F200F2EF0E0AF2EF0E0BF2EF0E096
:10425000CF2EF0E0DF2EF02DA0928C04B0928D04D2
:10426000C0928E04D0928F040F2EF0E0EF2EF0E07B
:10427000FF2EF6E90F2FF4E41F2FF02DE0929804A3
:10428000F092990400939A0410939B0480E090E0CC
:10429000A0E8BFE3898B9A8BAB8BBC8BED8AFE8A3F
:1042A0000F8B188FCE014196BE016B5E7F4F0E942F
:1042B0009F2060918C0470918D0480918E04909168
:1042C0008F0420E030E040E251E40E940234698F24
:1042D0007A8F8B8F9C8FED8EFE8E0F8F18A3CE0161
:1042E0004996BE01635E7F4F0E949F20A0928C047E
:1042F000B0928D04C0928E04D0928F04A0960FB617
:10430000F894DEBF0FBECDBFCF91DF911F910F910B
:10431000FF90EF90DF90CF90BF90AF900895CF9334
:10432000DF93EC019B01A6E4B5E0E8E8F4E084E16A
:1043300001900D928150E1F788819981AA81BB811A
:104340008093460590934705A0934805B09349058F
:10435000F90180819181A281B38180935605909368
:104360005705A0935805B093590586E495E00E943F
:10437000791FDF91CF9108958F929F92AF92BF9254
:10438000CF92DF92EF92FF920F931F93DF93CF9321
:10439000CDB7DEB7A0970FB6F894DEBF0FBECDBF86
:1043A0000F2EF0E0AF2EF0E0BF2EF6E9CF2EF4E4B2
:1043B000DF2EF02DA0929804B0929904C0929A0436
:1043C000D0929B0418E8812E14E0912EF4016081B4
:1043D00071818281938120E030E040EA50E40E94C4
:1043E000023469837A838B839C830F2EF0E0EF2E57
:1043F000F0E0FF2EFAE70F2FF5E41F2FF02DED82EE
:10440000FE820F831887CE010196BE016B5F7F4F3E
:104410000E948F21F401608171818281938120E06B
:1044200030E04AE753E40E94023469877A878B8739
:104430009C87ED86FE860F87188BCE010996BE01FC
:10444000635F7F4F0E948F210F2EF0E0EF2EF0E090
:10445000FF2EF0E00F2FF0E01F2FF02DF401E0828F
:10446000F18202831383A0929804B0929904C092BF
:104470009A04D0929B0480E090E0A0E8BFE3898B8F
:104480009A8BAB8BBC8BAD8ABE8ACF8AD88ECE017D
:104490004196BE016B5E7F4F0E948F21F4016081C7
:1044A00071818281938120E030E040E251E40E94FA
:1044B0000234698F7A8F8B8F9C8FAD8EBE8ECF8E9C
:1044C000D8A2CE014996BE01635E7F4F0E948F2124
:1044D000F401E082F18202831383A0960FB6F89470
:1044E000DEBF0FBECDBFCF91DF911F910F91FF9027
:1044F000EF90DF90CF90BF90AF909F908F900895F6
:104500004F925F926F927F928F929F92AF92BF92E3
:10451000CF92DF92EF92FF920F931F93CF93DF938F
:10452000EC01AB0188818F3209F4ADC580E090E0E9
:10453000A0E0B0E08093320590933305A09334055A
:10454000B09335058093360590933705A0933805D1
:10455000B093390580933A0590933B05A0933C05B1
:10456000B0933D0580933E0590933F05A093400591
:10457000B09341058093420590934305A093440571
:10458000B09345058AE595E0BE010E94B60D6091A5
:104590005A0570915B05CB01880F892F881F990BF5
:1045A00091958170972F917070FD03C0882309F455
:1045B00005C1981709F44DC08091380482FFDAC014
:1045C0002FEB35E0992319F18DB79EB708970FB6F9
:1045D000F8949EBF0FBE8DBFEDB7FEB73196ADB755
:1045E000BEB712963C932E93119781EA92E0938383
:1045F000828380918E0590918F0595838483D783E4
:10460000C6830E942B05EDB7FEB73896AEC08DB7B6
:104610009EB70A970FB6F8949EBF0FBE8DBFEDB739
:10462000FEB73196ADB7BEB712963C932E93119755
:104630008DEE92E093838283809190059091910515
:10464000A0919205B091930584839583A683B78347
:1046500036C0992309F4B2C090E080E002C09E27E2
:104660008F5FFE01E80FF11DE081EA32C1F7209172
:104670008E0530918F05492F50E02417350739F109
:104680008091380482FF76C08DB79EB70A970FB627
:10469000F8949EBF0FBE8DBFEDB7FEB731968FEB7E
:1046A00095E0ADB7BEB712969C938E9311978BE3AE
:1046B00093E0938382833583248357834683D18712
:1046C000C0870E942B05EDB7FEB73A964EC061FF3A
:1046D00008C080915E0590915F058E36910509F4C2
:1046E0005DC0E0909005F0909105009192051091C9
:1046F0009305209194053091950540919605509130
:1047000097052F5F3F4F4F4F5F4FE216F3060407A9
:10471000150709F443C08091380482FF2BC08DB780
:104720009EB70E970FB6F8949EBF0FBE8DBFEDB724
:10473000FEB731968FEB95E0ADB7BEB712969C935E
:104740008E93119784E993E093838283E482F582C8
:10475000068317832087318742875387D587C4878D
:104760000E942B05EDB7FEB73E960FB6F894FEBF3C
:104770000FBEEDBF8091940590919505A09196058F
:10478000B09197050196A11DB11D8093D30690931A
:10479000D406A093D506B093D60675C48091900533
:1047A00090919105A0919205B09193058093940505
:1047B00090939505A0939605B0939705CB018370D0
:1047C0009074892B91F46115710579F08091390409
:1047D00090913A0497FD09C090935D0580935C0524
:1047E000616070935B0560935A0580915A0581FF63
:1047F00009C080915E0590915F058037910511F4A5
:104800000E942616C0915A05D0915B05C0FF78C260
:1048100080915C0590915D0590933A0480933904F2
:10482000A2E3B5E0E8E8F4E084E101900D92815064
:10483000E1F780913B049E0128703070882309F4D1
:1048400049C0232B81F08091660590916705A09166
:104850006805B09169058093320590933305A09364
:104860003405B0933505C4FF10C080916A0590915E
:104870006B05A0916C05B0916D0580933605909302
:104880003705A0933805B0933905C5FF10C0809156
:104890006E0590916F05A0917005B09171058093A0
:1048A0003A0590933B05A0933C05B0933D05D5FF99
:1048B00081C08091720590917305A0917405B091AB
:1048C000750580933E0590933F05A0934005B093F6
:1048D000410570C0232BD1F06091320570913305F2
:1048E00080913405909135052091660530916705DA
:1048F00040916805509169050E9403346093320528
:10490000709333058093340590933505C4FF1AC026
:104910006091360570913705809138059091390581
:1049200020916A0530916B0540916C0550916D05A1
:104930000E940334609336057093370580933805E1
:1049400090933905C5FF1AC060913A0570913B05F7
:1049500080913C0590913D0520916E0530916F0549
:1049600040917005509171050E94033460933A059F
:1049700070933B0580933C0590933D05D5FF1AC08D
:1049800060913E0570913F058091400590914105F1
:104990002091720530917305409174055091750511
:1049A0000E94033460933E0570933F058093400559
:1049B00090934105D1FF10C080917E0590917F05B5
:1049C000A0918005B09181058093420590934305A5
:1049D000A0934405B093450580915C0590915D05D9
:1049E0008130910539F18C31910549F1892B09F01C
:1049F0004DC0E0904205F0904305009144051091B0
:104A0000450580E090E0AAE7B5E4809342059093E5
:104A10004305A0934405B093450582E395E00E94C9
:104A2000791FE0924205F0924305009344051093EC
:104A3000450529C382E395E00E94791F24C3C3FD85
:104A400002C090E003C00E94BC2191E080915A0511
:104A500084FF03C00E94CC2091E080915A0585FD1F
:104A600006C0992331F40E94BC210E94CC200E94F0
:104A7000DB1F80E090E0A6E9B4E480939804909373
:104A80009904A0939A04B0939B04FDC2909184046E
:104A900080918304981709F0E1C2E0918404F0E06A
:104AA000EE0FFF1FE558FB4F0190F081E02DE6551A
:104AB000FF4F8081882309F0D1C220915C0530919D
:104AC0005D052531310509F487C02631310544F4EF
:104AD0002430310591F02431310509F0DCC024C0C7
:104AE0002B35310509F4CAC02C35310509F4C9C08C
:104AF0002A35310509F0CFC0BDC0609162057091C3
:104B00006305809164059091650520E030E040E008
:104B10005FE30E9403340E94D334882777FD809599
:104B2000982F0E94DA2AECC0CBE7D4E00F2EF1E2F6
:104B3000CF2EF8E9DF2EFDEFEF2EF4E4FF2EF02D5F
:104B40000F2EF0E04F2EF0E05F2EFEEF6F2EF6E41A
:104B50007F2EF02D0F2EF0E08F2EF0E09F2EF0E84C
:104B6000AF2EFFE3BF2EF02D09911991D8011C92B1
:104B7000F801C182D282E382F4821596CD92DD9251
:104B8000ED92FC9218974186528663867486E09176
:104B90007A04F0E0EE0FFF1FE858FB4F0190F08120
:104BA000E02D608571858285938523E333E34BECAB
:104BB00051E40E94BA35D8011D966D937D938D9373
:104BC0009C935097F801818A928AA38AB48AF4E070
:104BD000C338DF0749F694C0CBE7D4E09924939417
:104BE00042E95EEB6FE972E40F2EF0E0AF2EF0E0E9
:104BF000BF2EF0EACF2EF4E4DF2EF02D0F2EF0E0E2
:104C0000EF2EF0E0FF2EF0E80F2FFFE31F2FF02D27
:104C100029913991D9019C92F9014183528363838F
:104C2000748315964D935D936D937C931897A1862D
:104C3000B286C386D486E0917A04F0E0EE0FFF1FBF
:104C4000E858FB4F0190F081E02D80859185A28589
:104C5000B385F90185879687A787B08BD9015196CF
:104C6000ED92FD920D931C935497B4E0C338DB078B
:104C700079F646C081E080933B0442C010923B0429
:104C80003FC0A8E8B4E0E2E3F5E084E101900D92D2
:104C90008150E1F735C08091380482FF1EC000D0FA
:104CA00000D000D0EDB7FEB731968FEB95E0ADB7F1
:104CB000BEB712969C938E9311978AED93E09383DF
:104CC0008283358324830E942B05EDB7FEB7369689
:104CD0000FB6F894FEBF0FBEEDBF80919405909182
:104CE0009505A0919605B09197050196A11DB11D5E
:104CF0008093D3069093D406A093D506B093D6069E
:104D000080915A0581FF8AC1909184048091830427
:104D1000981709F0AAC1E0918404F0E0EE0FFF1F9C
:104D2000E558FB4F0190F081E02DE655FF4F808163
:104D3000882309F09AC120915E0530915F052037E4
:104D4000310509F4C6C021373105E4F42D363105AB
:104D500084F42A3631050CF061C12836310599F109
:104D6000293631050CF055C02115310509F4B1C0C3
:104D700020C12E36310509F48AC02F3631050CF0DA
:104D80009BC065C0203831058CF42E3731050CF0FE
:104D900045C12237310509F49FC0223731050CF493
:104DA0003DC12437310509F004C1DAC02C38310582
:104DB00009F4E2C02C3831050CF4FBC02F38310562
:104DC0000CF0F7C02BC180915A0590915B0592FFC2
:104DD00025C1E0917A04F0E0EE0FFF1FE858FB4F89
:104DE000C080D18060918205709183058091840597
:104DF000909185050E94D3347B018C01D601509699
:104E00008D919C9151970E94A40FF601F182E0824E
:104E100005C1E0917A04F0E0EE0FFF1FE858FB4F68
:104E20000190F081E02D0088F189E02D83A194A10B
:104E30009093C0068093BF06E091BB05F091BC053E
:104E400083A194A19093C2068093C106E7C0E0912C
:104E50007A04F0E0EE0FFF1FE858FB4FC080D180CE
:104E600060918205709183058091840590918505FC
:104E70000E94D3347B018C01D60150968D919C9178
:104E800051970E94A40FF601F182E08269C08091DF
:104E90005A0587FFC3C08091900590919105A0911C
:104EA0009205B09193058093940590939505A093F6
:104EB0009605B0939705B2C0609182057091830505
:104EC00080918405909185050E94D83460933804C0
:104ED000A5C00E942616A2C08091880490918904E2
:104EE000A0918A04B0918B048093C3069093C4066A
:104EF000A093C506B093C60680918C0490918D0452
:104F0000A0918E04B0918F048093C7069093C80639
:104F1000A093C906B093CA06809190049091910421
:104F2000A0919204B09193048093CB069093CC0609
:104F3000A093CD06B093CE068091940490919504F1
:104F4000A0919604B09197048093CF069093D006D9
:104F5000A093D106B093D20681E08093D8065EC0BC
:104F6000E0917A04F0E0EE0FFF1FE858FB4F8081DC
:104F700091810E94601252C080915A0590915B0508
:104F800092FF4CC0609182057091830580918405E9
:104F9000909185050E94D3347B018C018091BB05E3
:104FA0009091BC050E94A40FF092B005E092AF056D
:104FB00035C08091380482FF1EC000D000D000D0E0
:104FC000EDB7FEB731968FEB95E0ADB7BEB7129651
:104FD0009C938E9311978AEE93E09383828335831B
:104FE00024830E942B05EDB7FEB736960FB6F894D2
:104FF000FEBF0FBEEDBF8091940590919505A091E5
:105000009605B09197050196A11DB11D8093D30619
:105010009093D406A093D506B093D60680915A05F6
:1050200090915B0596FF2FC090918404809183043A
:10503000981711F5E0918404F0E0EE0FFF1FE5589A
:10504000FB4F0190F081E02DE655FF4F80818823D2
:1050500099F4809160050E94420C15C061E070E0F7
:1050600080E090E00E94DA2A11CD61E070E080E0FB
:1050700090E00E94DA2A48CE61E070E080E090E0A3
:105080000E94DA2AD1CFDF91CF911F910F91FF902B
:10509000EF90DF90CF90BF90AF909F908F907F90D8
:1050A0006F905F904F9008950F931F9380E28093CD
:1050B00037040AE011E027C00093370490913704C9
:1050C0009032CCF09B3311F0983219F410933105E3
:1050D00004C0993211F41092310580913105882372
:1050E00051F480913005E82FF0E0E055FB4F9083BC
:1050F0008F5F809330058091300587FF04C0109248
:1051000030051092310588EE9BE00E94CF2F882356
:1051100009F432C1809137048A3009F42DC188EE38
:105120009BE00E94FD2F809337040E941616809109
:1051300037048D3019F6C0CF809137048A3009F0DA
:1051400020C1F0E0E055FB4F10828091380480FFD1
:1051500020C000D000D000D0EDB7FEB731968FEB65
:1051600095E0ADB7BEB712969C938E9311978AEFD8
:1051700093E09383828380EB94E0958384830E9401
:105180002B058DB79EB706960FB6F8949EBF0FBE3F
:105190008DBF6091300580EB94E070E00E9480222A
:1051A0001092300510923105109138048091D70685
:1051B000882391F088EE9BE063E074E00E94523116
:1051C0008FEB95E061E00E942F0F88EE9BE00E943C
:1051D00076320E942616D5C08091D3069091D406CF
:1051E000A091D506B091D606B7FF07C088EE9BE028
:1051F00066E074E00E94523114C088EE9BE069E0E2
:1052000074E00E9452314091D3065091D4066091CF
:10521000D5067091D60688EE9BE02AE030E00E9429
:105220002D328091BF069091C006855D9E4F84F01F
:1052300088EE9BE06DE074E00E9452316091BF0601
:105240007091C00688EE9BE04AE050E00E94633215
:105250008091C1069091C206855D9E4F84F088EED4
:105260009BE061E174E00E9452316091C10670914F
:10527000C20688EE9BE04AE050E00E9463328091D3
:10528000D806882309F450C088EE9BE065E174E0FD
:105290000E9452314091C3065091C4066091C506E8
:1052A0007091C60688EE9BE022E030E00E94193340
:1052B00088EE9BE06CE174E00E9452314091C70699
:1052C0005091C8066091C9067091CA0688EE9BE0AD
:1052D00022E030E00E94193388EE9BE060E274E047
:1052E0000E9452314091CB065091CC066091CD0680
:1052F0007091CE0688EE9BE022E030E00E941933E8
:1053000088EE9BE064E274E00E9452314091CF0647
:105310005091D0066091D1067091D20688EE9BE044
:1053200022E030E00E941933612F70E07695679596
:1053300061708FEB95E00E942F0F88EE9BE00E943A
:10534000763284ED9EEF9093C0068093BF069093D3
:10535000C2068093C1061092BF058FEF9FEFAFEF9B
:10536000BFEF8093D3069093D406A093D506B09355
:10537000D6061092D80605C0E0913005EE2309F05C
:10538000DBCE1F910F91089510929C040E94DF12B2
:105390000E9454280895AF92BF92CF92DF92EF926D
:1053A000FF920F931F93CF93DF9310929C048091F1
:1053B0006F008D7F80936F000E946B0B10928704AB
:1053C0001092860484E061E00E948F2C1092850484
:1053D0008FEF9FEFAFEFBFEF80939405909395050C
:1053E000A0939605B093970588E995E0909379048A
:1053F0008093780410927A041092830410928404AB
:1054000089ED96E090937C0480937B0484E897E098
:1054100090937E0480937D048FE298E090938004C3
:1054200080937F048AED98E09093820480938104B6
:10543000CBE7D4E061E022E93EEB4FE952E40F2EE6
:10544000F0E0AF2EF0E0BF2EF0EACF2EF4E4DF2E36
:10545000F02D0F2EF0E0EF2EF0E0FF2EF0E80F2FF2
:10546000FFE31F2FF02DE991F991608321833283AF
:10547000438354832583368347835087A186B2862E
:10548000C386D4868091A0059091A105A091A20524
:10549000B091A30585879687A787B08BE18AF28AAA
:1054A000038B148B84E0C338D807E9F610923005DB
:1054B0001092310588EE9BE040E051EE60E070E034
:1054C0000E94D62E88EE9BE068E274E00E94523182
:1054D00088EE9BE00E94763268EE73E080E090E018
:1054E0000E94E90B80916F00826080936F000E94A0
:1054F0006913DF91CF911F910F91FF90EF90DF9093
:10550000CF90BF90AF9008951F920F920FB60F9259
:1055100011242F933F938F939F93AF93BF938091C9
:10552000D3099091D409A091D509B091D6093091B1
:10553000D7090196A11DB11D232F2D5F2D3720F016
:105540002D570196A11DB11D2093D7098093D30932
:105550009093D409A093D509B093D6098091CF092F
:105560009091D009A091D109B091D2090196A11DC5
:10557000B11D8093CF099093D009A093D109B09326
:10558000D209BF91AF919F918F913F912F910F9031
:105590000FBE0F901F9018958FB7F8942091D309E4
:1055A0003091D4094091D5095091D6098FBFB901E6
:1055B000CA0108959B01AC017FB7F8948091CF098F
:1055C0009091D009A091D109B091D20966B5A89B5C
:1055D00005C06F3F19F00196A11DB11D7FBFBA2F05
:1055E000A92F982F8827860F911DA11DB11D62E05C
:1055F000880F991FAA1FBB1F6A95D1F7BC012DC048
:10560000FFB7F8948091CF099091D009A091D1096A
:10561000B091D209E6B5A89B05C0EF3F19F00196FD
:10562000A11DB11DFFBFBA2FA92F982F88278E0F5C
:10563000911DA11DB11DE2E0880F991FAA1FBB1F7C
:10564000EA95D1F7861B970B885E9340C8F22150EC
:1056500030404040504068517C4F21153105410594
:10566000510571F60895019739F0880F991F880F39
:10567000991F02970197F1F70895789484B5826095
:1056800084BD84B5816084BD85B5826085BD85B5E6
:10569000816085BDEEE6F0E0808181608083E1E895
:1056A000F0E01082808182608083808181608083CD
:1056B000E0E8F0E0808181608083E1EBF0E08081D0
:1056C00084608083E0EBF0E0808181608083E1E9A9
:1056D000F0E0808182608083808181608083E1EA64
:1056E000F0E0808182608083808181608083E1E25C
:1056F000F1E0808182608083808181608083E0E945
:10570000F0E0808181608083E0EAF0E08081816068
:105710008083E0E2F1E0808181608083EAE7F0E06D
:1057200080818460808380818260808380818160C9
:1057300080838081806880831092C1000895382F13
:10574000863308F0365320917B00832F869586950B
:10575000869590E08170907043E0880F991F4A957C
:10576000E1F7277F282B20937B00377080913C0442
:105770008295880F880F807C832B80937C0080919A
:105780007A00806480937A0080917A0086FDFCCF55
:105790002091780040917900942F80E030E0282B10
:1057A000392BC90108951F93CF93DF93182FEB0175
:1057B00061E00E948F2CE12FF0E0E254FE4F8491D3
:1057C000833051F480918000806880938000D09372
:1057D0008900C09388009FC0843051F4809180007C
:1057E000806280938000D0938B00C0938A0093C026
:1057F000813041F4209709F487C084B5806884BD66
:10580000C7BD89C0823041F4209709F47DC084B5BA
:10581000806284BDC8BD7FC0863041F48091B000F5
:1058200080688093B000C093B30075C0873041F4A6
:105830008091B00080628093B000C093B4006BC0D0
:10584000883051F480919000806880939000D093CC
:105850009900C09398005FC0893051F48091900006
:10586000806280939000D0939B00C0939A0053C0B5
:105870008A3051F480919000886080939000D0939A
:105880009D00C0939C0047C08B3051F48091A000D4
:1058900080688093A000D093A900C093A8003BC06B
:1058A00084918C3051F48091A00080628093A0009C
:1058B000D093AB00C093AA002EC08D3051F48091DC
:1058C000A00088608093A000D093AD00C093AC008E
:1058D00022C08E3051F48091200180688093200195
:1058E000D0932901C093280116C08F3051F48091C4
:1058F0002001806280932001D0932B01C0932A0164
:105900000AC0C038D1051CF4812F60E002C0812F8D
:1059100061E00E94B52CDF91CF911F910895482F2F
:1059200050E0CA0188589E4FFC0124914E5C5E4FA6
:10593000FA0184918823C1F0E82FF0E0EE0FFF1FF9
:10594000EC51FF4FA591B491662341F49FB7F894B1
:105950008C91209582238C939FBF08959FB7F894D4
:105960008C91822B8C939FBF0895482F50E0CA01E1
:1059700082549E4FFC012491CA0188589E4FFC011D
:1059800034914E5C5E4FFA019491992309F47DC0E5
:10599000222309F462C0233021F4809180008F77A4
:1059A00005C0243031F4809180008F7D8093800089
:1059B00054C0213019F484B58F7704C0223021F40B
:1059C00084B58F7D84BD49C0263021F48091B0001C
:1059D0008F7705C0273031F48091B0008F7D8093A0
:1059E000B0003BC0283021F4809190008F7705C033
:1059F000293031F4809190008F7D809390002DC0EC
:105A00002A3021F480919000877FF7CF2B3021F44A
:105A10008091A0008F770BC02C3021F48091A000E2
:105A20008F7D05C02D3031F48091A000877F809359
:105A3000A00013C02E3021F4809120018F770BC07D
:105A40002F3021F4809120018F7D05C0203129F471
:105A500080912001877F80932001E92FF0E0EE0FF5
:105A6000FF1FE250FF4FA591B491662341F49FB709
:105A7000F8948C91309583238C939FBF08959FB7A2
:105A8000F8948C91832B8C939FBF0895682F70E0BE
:105A9000CB0182549E4FFC012491CB0188589E4F2C
:105AA000FC0144916E5C7E4FFB019491992319F4A3
:105AB00020E030E075C0222309F462C0233021F4D5
:105AC000809180008F7705C0243031F48091800070
:105AD0008F7D8093800054C0213019F484B58F7776
