:100000000C9422010C944F010C944F010C944F015D
:100010000C944F010C944F010C944F010C944F0120
:100020000C944F010C944F010C944F010C944F0110
:100030000C944F010C944F010C944F010C944F0100
:100040000C944F010C9450160C944F010C944F01DA
:100050000C944F010C944F010C944F010C94822688
:100060000C944F010C94A0290C944F010C944F0157
:100070000C944F010C944F010C944F010C944F01C0
:100080000C944F010C944F010C944F010C944F01B0
:100090000C94D5290C944F010C944F010C944F01F2
:1000A0000C944F010C944F010C944F010C944F0190
:1000B0000C944F010C944F010C944F010C944F0180
:1000C0000C944F010C944F010C944F010C940A2A8C
:1000D0000C944F010C944F010C943F2A0C944F0147
:1000E0000C944F0100002100240027002A002D005D
:1000F0003000330001010000040107010A01000083
:100100002200250028002B002E00310034000201BF
:100110000000050108010B0100002000230026005B
:1001200029002C002F00320000010000030106010D
:10013000090105050505070508080808020202026D
:100140000A0A080804040404010101010101010173
:100150000303030303030303040707070C0C0C0C3E
:100160000C0C0C0C02020202060606060606060627
:100170000B0B0B0B0B0B0B0B0102102020080810B4
:100180002040102040800201020108040201010207
:1001900004081020408080402010080402018004E0
:1001A000020180402010080402010804020101023B
:1001B0000408102040800102040810204080000044
:1001C000090A02080B0C0D070603040100000000D9
:1001D000000000000000000000000000000000001F
:1001E00000000000000000000000100F0E000000E2
:1001F00000000000000000000000000000000000FF
:1002000000000000494E46494E4954594E414ECDDA
:10021000CCCC3D0AD7233C17B7D13877CC2B3295BD
:1002200095E6241FB14F0A000020410000C842009B
:10023000401C4620BCBE4CCA1B0E5AAEC59D740065
:1002400066113F2B11241FBECFEFD1E2DEBFCDBF21
:1002500000E00CBF14E0A0E0B2E0ECE4F3E600E064
:100260000BBF02C007900D92A837B107D9F71BBE8C
:100270001CE0A8E7B4E001C01D92A832B107E1F785
:1002800012E0C4E4D2E004C02297FE010E945E3175
:10029000C034D107C9F70E940F2C0C94A4310C94E0
:1002A0000000CF93DF93BC018230910510F462E02F
:1002B00070E0A091240CB091250CED01E0E0F0E09D
:1002C00040E050E021C0888199818617970769F442
:1002D0008A819B81309719F09383828304C0909325
:1002E000250C8093240CFE0134C06817790738F47C
:1002F0004115510519F08417950708F4AC01FE016A
:100300008A819B819C01E9012097E9F641155105FD
:10031000A9F1CA01861B970B049708F4BA01E0E023
:10032000F0E02AC08D919C91119784179507F9F4FC
:100330006417750781F412968D919C9113973097ED
:1003400019F09383828304C09093250C8093240C2E
:10035000FD0132964CC0CA01861B970BFD01E80FC8
:10036000F91F6193719302978D939C9340C0FD0197
:10037000828193819C01D9011097A1F68091220C72
:100380009091230C892B41F480915B0490915C0443
:100390009093230C8093220C40915D0450915E0455
:1003A0004115510541F44DB75EB7809159049091C4
:1003B0005A04481B590B2091220C3091230CCA017E
:1003C000821B930B8617970780F0AB014E5F5F4F40
:1003D0008417950750F0420F531F5093230C4093FE
:1003E000220CF9016193719302C0E0E0F0E0CF01CB
:1003F000DF91CF910895CF93DF93009709F450C018
:10040000EC0122971B821A82A091240CB091250C3A
:10041000109709F140E050E0AC17BD0708F1BB832D
:10042000AA83FE0121913191E20FF31FAE17BF079E
:1004300079F48D919C911197280F391F2E5F3F4FB2
:100440003983288312968D919C9113979B838A837D
:100450004115510571F4D093250CC093240C20C094
:1004600012968D919C911397AD01009711F0DC01CC
:10047000D3CFFA01D383C28321913191E20FF31FCD
:10048000CE17DF0769F488819981280F391F2E5F05
:100490003F4FFA01318320838A819B81938382833A
:1004A000DF91CF910895A0E0B0E0E9E5F2E00C948F
:1004B0007331EC015B016115710519F0FB0191834A
:1004C0008083F9908F2D90E00E946231892BC9F7CB
:1004D000FDE2FF1621F4F990EE24E39405C02BE22F
:1004E000F21609F4F990EE248E0101501040C80173
:1004F00064E072E043E050E00E94E204892B01F5E1
:100500008E010E5F1F4FC80167E072E045E050E0CA
:100510000E94E204892B19F48E01095F1F4FA11478
:10052000B10419F0F50111830083E0FC04C070E010
:1005300090E080E814C070E090E080E86FEF08C1C0
:10054000C8016CE072E043E050E00E94E204892BB5
:1005500069F4A114B10429F470E090E080EC6FE735
:10056000F7C02296F501D183C083F6CF8824992461
:1005700040E050E060E070E0EF2DE053EA30A0F59D
:10058000F2E0EF2A8E2D90E09C0128703070E2FEA0
:1005900006C0232B79F50894811C911C2BC0232BBA
:1005A00019F0089481089108DB01CA0112E0880F54
:1005B000991FAA1FBB1F1A95D1F7480F591F6A1F11
:1005C0007B1F440F551F661F771F4E0F511D611D66
:1005D000711D483929E9520729E9620729E17207A3
:1005E00048F084E0E82A06C0EE3F31F4E3FC39C06D
:1005F00098E0E92AF990C0CFE53311F0E53189F5AB
:1006000029912D3219F4E0E1EE2A05C02B3219F0C0
:1006100081E090E003C0299182E090E0E22FE05376
:10062000EA3018F0C81BD90B1CC020E030E0FCE019
:1006300020383F075CF4C901880F991F880F991F64
:10064000280F391F220F331F2E0F311DE991E05360
:10065000EA3068F3E4FE03C0309521953F4F820EE7
:10066000931ECE2CDD24E1FE07C0A114B10421F0BD
:100670002197F501D183C083CB01BA010E945B2F82
:100680007B018C01F3E0CF22DD2423E0C216D104EC
:1006900021F417FB109517F9109557016801C8014F
:1006A000B70120E030E040E050E00E94BE2E8823F9
:1006B00009F44AC097FE0DC023E2E22E22E0F22E9A
:1006C0009094819491089394C0E2D0E000E010E00F
:1006D00012C09BE3E92E92E0F92EF6CFF7012591A7
:1006E000359145915491C601B5010E9411305B01CD
:1006F0006C018C1A9D0A8C169D0684F7D595C795BA
:100700000F5F1F4F0630110529F08CEF9FEFE80EA9
:10071000F91EF1CFC501D6017C018D018C2D880F0A
:100720008D2D881F8F3F51F0C601B50120E030E0CC
:1007300040E050E00E94BE2E882331F482E290E037
:100740009093270C8093260C7E2D9F2D802F612F58
:10075000272F392F482F562FB901CA01CDB7DEB741
:10076000ECE00C948F312F923F925F926F927F92C8
:100770008F929F92AF92BF92CF92DF92EF92FF92B1
:100780000F931F93CF93DF938C011B01EA01611537
:10079000710519F0FB0191838083209749F0CE0108
:1007A0000297839728F020E030E040E050E0F6C068
:1007B000F801A1908F018A2D90E00E946231892B6F
:1007C000B9F7FDE2AF1631F4F801A1908F0155247D
:1007D000539407C0FBE2AF1619F4F801A1908F0102
:1007E0005524209719F0C031D105C1F4F0E3AF16BC
:1007F00079F4F8018081883711F0883549F4F801DF
:10080000A1800E5F1F4FF2E05F2AC0E1D0E006C07A
:10081000209721F480E3A816E9F427C0C830D10559
:1008200031F1C930D10524F4C230D10531F50CC005
:10083000CA30D10589F0C031D105F9F4C12CD12CD1
:10084000E12CB8E0FB2E28C0C12CD12CE12CA0E477
:10085000FA2E22C0CAE0D0E0FCECCF2EFCECDF2E5A
:10086000FCECEF2EFCE0FF2E17C0C8E0D0E0C12C5E
:10087000D12CE12CE0E1FE2E0FC09E01442737FD74
:100880004095542F60E070E080E090E80E940B31CA
:10089000C901DA016C017D0120E030E040E050E068
:1008A00060E03E01882477FC8094982C70EDB72E90
:1008B000BA0CE9E0EB1570F48A2D81548A3118F4F2
:1008C00099ECB92E06C08A2D81568A3150F589EAF5
:1008D000B82EBA0C8B2D90E08C179D0714F56F3F46
:1008E000E1F0C216D306E406F506B0F0CA01B9017C
:1008F000A40193010E94D9309B01AC012B0D311D45
:10090000411D511D2130F0E03F07F0E04F07F0E8B6
:100910005F0710F461E001C06FEFF801A1908F0153
:10092000C5CF2114310481F0662331F0015010400D
:10093000F1011183008308C051FE1AC0025010401B
:10094000F1011183008314C067FF12C050FC05C081
:100950002FEF3FEF4FEF5FE704C020E030E040E0D3
:1009600050E882E290E09093270C8093260C16C00A
:1009700050FE08C050954095309521953F4F4F4F00
:100980005F4F0CC057FF0AC082E290E09093270CA3
:100990008093260C2FEF3FEF4FEF5FE7B901CA01BD
:1009A000DF91CF911F910F91FF90EF90DF90CF904B
:1009B000BF90AF909F908F907F906F905F903F908F
:1009C0002F900895FB01DC014150504088F08D913B
:1009D00081341CF08B350CF4805E659161341CF021
:1009E0006B350CF4605E861B611171F3990B0895F1
:1009F000881BFCCFFB01DC0101900D920020E1F788
:100A00000895AEE0B0E0E7E0F5E00C947B310E89AC
:100A10001F8986E08C831A8309838FEF9FE79E836B
:100A20008D839E01265E3F4FCE010196688D798DA4
:100A3000A9010E9425052F813885020F131FF80197
:100A400010822E96E4E00C949731ABE0B0E0EBE23C
:100A5000F5E00C946D313C012B015A01FC01178229
:100A60001682838181FD03C06FEF7FEFC6C19AE0DC
:100A7000892E1E010894211C311CF3012381F201EF
:100A800023FD859123FF81912F01882309F4B2C1B1
:100A9000853239F423FD859123FF81912F01853221
:100AA00029F490E0B3010E941807E7CF982FFF24A4
:100AB000EE249924FFE1FF15D0F09B3269F09C32BF
:100AC00028F4903259F0933291F40EC09D3249F0DF
:100AD000903369F441E024C052E0F52A84E0F82A1A
:100AE00028C098E0F92A25C0E0E1FE2A22C0F7FCE0
:100AF00029C0892F80538A3070F4F6FE05C0989C77
:100B0000902C1124980E15C0E89CE02C1124E80EBE
:100B1000F0E2FF2A0EC09E3229F4F6FC6BC140E4DD
:100B2000F42A07C09C3619F450E8F52A02C098361A
:100B300049F4F20123FD959123FF91912F0199230F
:100B400009F0B8CF892F8554833018F08052833054
:100B500038F444E050E0A40EB51E5FE359830FC0A3
:100B6000933631F0933779F0933509F056C020C0B1
:100B7000F5018081898342E050E0A40EB51E610139
:100B800001E010E012C0F501C080D180F6FC03C086
:100B90006FEF7FEF02C0692D70E042E050E0A40EDD
:100BA000B51EC6010E940D078C015FE7F52214C037
:100BB000F501C080D180F6FC03C06FEF7FEF02C06B
:100BC000692D70E042E050E0A40EB51EC6010E94FF
:100BD00002078C0150E8F52AF3FE07C01AC080E234
:100BE00090E0B3010E941807EA948E2D90E0081758
:100BF0001907A8F30EC0F601F7FC8591F7FE819165
:100C00006F0190E0B3010E941807E110EA940150CF
:100C100010400115110579F7EAC0943611F09936A4
:100C200069F5F7FE08C0F5012081318142815381C9
:100C300084E090E00AC0F501808191819C01442705
:100C400037FD4095542F82E090E0A80EB91E9FE634
:100C5000F92257FF09C050954095309521953F4F97
:100C60004F4F5F4FE0E8FE2ACA01B901A1012AE017
:100C700030E00E944407D82ED21840C0953729F49E
:100C80001F2D1F7E2AE030E01DC01F2D197F9F36CB
:100C900061F0903720F4983509F0ACC00FC0903760
:100CA00039F0983709F0A6C004C028E030E00AC047
:100CB000106114FD146020E130E004C014FD1660E2
:100CC00020E132E017FF08C0F50160817181828167
:100CD000938144E050E008C0F50180819181BC011E
:100CE00080E090E042E050E0A40EB51EA1010E9419
:100CF0004407D82ED2188FE7F82EF122F6FE0BC04B
:100D00005EEFF522D91438F4F4FE07C0F2FC05C0FA
:100D10008FEEF82202C01D2D01C0192DF4FE0DC06A
:100D2000FE01ED0DF11D8081803319F499EEF92259
:100D300008C01F5FF2FE05C003C08F2D867809F042
:100D40001F5F0F2DF3FC14C0F0FE0FC01E1510F036
:100D50009D2C0BC09D2C9E0C911A1E2D06C080E26E
:100D600090E0B3010E9418071F5F1E15C0F304C076
:100D70001E1510F4E11A01C0EE2404FF0FC080E339
:100D800090E0B3010E94180702FF1DC001FD03C0DF
:100D900088E790E00EC088E590E00BC0802F867851
:100DA00091F001FF02C08BE201C080E2F7FC8DE20E
:100DB00090E0B3010E94180706C080E390E0B30101
:100DC0000E9418079A94D914C0F3DA94F101ED0D3A
:100DD000F11D808190E0B3010E941807DD20A9F782
:100DE00006C080E290E0B3010E941807EA94EE206A
:100DF000C1F743CEF30166817781CB012B96E2E107
:100E00000C948931FC010590615070400110D8F7B5
:100E1000809590958E0F9F1F0895FC016150704042
:100E200001900110D8F7809590958E0F9F1F08951F
:100E30000F931F93CF93DF938C01EB018B8181FF85
:100E40001BC082FF0DC02E813F818C819D812817A0
:100E5000390764F4E881F9810193F983E88306C0D6
:100E6000E885F985802F1995892B31F48E819F8132
:100E700001969F838E8302C00FEF1FEFC801DF91A1
:100E8000CF911F910F910895FA01AA27283051F1AF
:100E9000203181F1E8946F936E7F6E5F7F4F8F4FAB
:100EA0009F4FAF4FB1E03ED0B4E03CD0670F781F0A
:100EB000891F9A1FA11D680F791F8A1F911DA11DEF
:100EC0006A0F711D811D911DA11D20D009F4689428
:100ED0003F912AE0269F11243019305D3193DEF6D0
:100EE000CF010895462F4770405D4193B3E00FD086
:100EF000C9F7F6CF462F4F70405D4A3318F0495D71
:100F000031FD4052419302D0A9F7EACFB4E0A69553
:100F10009795879577956795BA95C9F70097610575
:100F2000710508959B01AC010A2E069457954795CB
:100F300037952795BA95C9F7620F731F841F951FC0
:100F4000A01D08952F923F924F925F926F927F92D1
:100F50008F929F92AF92BF92CF92DF92EF92FF92C9
:100F60000F931F93DF93CF93CDB7DEB72E970FB6B6
:100F7000F894DEBF0FBECDBF9E878D878B017A01AF
:100F8000FB016081718182819381FA01208131812D
:100F9000428153810E9411305B016C01F801648130
:100FA000758186819781F70124813581468157813A
:100FB0000E9411303B014C01F801608571858285EA
:100FC0009385F70120853185428553850E94113034
:100FD0001B012C01F8016485758586859785F701CD
:100FE00024853585468557850E94113069877A8723
:100FF0008B879C87F8016089718982899389F701C1
:1010000020893189428953890E9411307B018C01EA
:10101000C601B50120E030E040E050E00E940D3014
:1010200088234CF0C601B50120E030E040E05FE3EA
:101030000E945A2E08C0C601B50120E030E040E011
:101040005FE30E94592E0E942A2F69837A838B8343
:101050009C83C401B30120E030E040E050E00E94F6
:101060000D3088234CF0C401B30120E030E040E0B3
:101070005FE30E945A2E08C0C401B30120E030E0B3
:1010800040E05FE30E94592E0E942A2F6D837E83E9
:101090008F839887C201B10120E030E040E050E04A
:1010A0000E940D3088234CF0C201B10120E030E0F5
:1010B00040E05FE30E945A2E08C0C201B10120E067
:1010C00030E040E05FE30E94592E0E942A2F3B014E
:1010D0004C0169857A858B859C8520E030E040E075
:1010E00050E00E940D3088235CF069857A858B85FD
:1010F0009C8520E030E040E05FE30E945A2E0AC069
:1011000069857A858B859C8520E030E040E05FE34F
:101110000E94592E0E942A2F5B016C01C801B70161
:1011200020E030E040E050E00E940D3088234CF099
:10113000C801B70120E030E040E05FE30E945A2E92
:1011400008C0C801B70120E030E040E05FE30E9442
:10115000592E0E942A2F29813A814B815C81ED858D
:10116000FE8520833183428353832D813E814F81CD
:1011700058852483358346835783608671868286AB
:101180009386A486B586C686D786608B718B828B44
:10119000938BCF012E960FB6F894DEBF0FBECDBF56
:1011A000CF91DF911F910F91FF90EF90DF90CF9043
:1011B000BF90AF909F908F907F906F905F904F9077
:1011C0003F902F900895882321F4809181008B7F98
:1011D00029C0813049F4809181008B7F8093810008
:1011E00080918100826015C0823049F48091810035
:1011F0008B7F8093810080918100826018C0833052
:1012000071F48091810084608093810080918100DD
:101210008D7F80938100809181008E7F0DC08091B1
:101220008100846080938100809181008D7F809314
:101230008100809181008160809381000895E0E8C1
:10124000F0E01082A1E8B0E01C92109282001092AF
:101250006F008C918F7E8C938C9188608C938081B1
:101260008D7F808380818E7F808380818F77808354
:1012700080818F7B808380818F7D808380818F7E42
:10128000808384E00E94E3088FEF9FEF90938900B2
:10129000809388000895FC0180819181A281B381AF
:1012A000803020E0920721E0A20720E0B2070CF492
:1012B00041C0893F2FEF920727E0A20720E0B20745
:1012C00044F453E0B595A795979587955A95D1F72E
:1012D00031C0813C2FEF92072FE3A20720E0B20735
:1012E00044F446E0B595A795979587954A95D1F72B
:1012F00021C081302FEF92072FEFA20720E0B20725
:101300003CF4892F9A2FAB2FBB27A7FDBA9512C0AB
:1013100081302CEF92072FEFA20723E0B2071CF0D9
:10132000EFEFFFEF08C02AE0B595A7959795879551
:101330002A95D1F7FC01CF010895EF92FF920F9308
:101340001F93DF93CF9300D00F92CDB7DEB77B0111
:101350008C0164E0EE0CFF1C001F111F6A95D1F791
:10136000E982FA820B831C83CE0101960E944B090D
:10137000909389008093880080E0E81680E0F8066A
:1013800081E0080780E0180714F480E022C089EFAC
:10139000E8168FEFF80687E0080780E0180714F4D6
:1013A00081E017C081ECE8168FEFF8068FE308079D
:1013B00080E0180714F482E00CC081E0E8168FEF9B
:1013C000F8068FEF080780E0180714F084E001C0EA
:1013D00083E00E94E3080F900F900F900F90CF9141
:1013E000DF911F910F91FF90EF9008952F923F9200
:1013F0004F925F926F927F928F929F92AF92BF9225
:10140000CF92DF92EF92FF920F931F93DF93CF93D0
:1014100000D0CDB7DEB7882309F08AC080917A0466
:10142000882309F485C010927A04E0917B04F0913E
:101430007C048081898320907804309079040BE7C4
:1014400014E00F2EF1E24F2EF8E95F2EFDEF6F2E24
:10145000F4E47F2EF02D0F2EF0E08F2EF0E09F2E83
:10146000F0E8AF2EFFE3BF2EF02D0F2EF2E9CF2EC6
:10147000FEEBDF2EFFE9EF2EF2E4FF2EF02DD80178
:101480000D90BC91A02DBB83AA83E981EC93EE2340
:10149000F9F01196CD92DD92ED92FC921497FD0138
:1014A000C582D682E782F08680E090E4A5E0B4E4CD
:1014B00081879287A387B487F10180859185A28572
:1014C000B385EA81FB8185879687A787B08B25C086
:1014D000EA81FB8141825282638274824582568214
:1014E000678270868DEC98E8A3E5B6E481879287E1
:1014F000A387B487D10118966D917D918D919C91B0
:101500001B9723E333E34BEC51E40E941130EA8153
:10151000FB81658776878787908B818A928AA38AE9
:10152000B48A0E5F1F4FB4E003381B0709F0A7CF42
:101530000F900F900F90CF91DF911F910F91FF901F
:10154000EF90DF90CF90BF90AF909F908F907F9063
:101550006F905F904F903F902F900895AF92BF9201
:10156000CF92DF92EF92FF920F931F93DF93CF936F
:101570000F920F92CDB7DEB78C017B016A01590142
:10158000BE016F5F7F4F4AE050E00E94B3032981A4
:101590003A81201B310B121613066CF4F70160839D
:1015A000718382839383F601808191818A299B29AB
:1015B0009183808305C0F701108211821282138209
:1015C000C9010F900F90CF91DF911F910F91FF9064
:1015D000EF90DF90CF90BF90AF900895AF92BF9201
:1015E000CF92DF92EF92FF920F931F93DF93CF93EF
:1015F0000F920F92CDB7DEB78C017B016A015901C2
:10160000BE016F5F7F4F4AE050E00E94B303298123
:101610003A81201B310B121613065CF4F70171831B
:101620006083F601808191818A299B29918380833F
:1016300003C0F70111821082C9010F900F90CF9162
:10164000DF911F910F91FF90EF90DF90CF90BF90AF
:10165000AF900895AF92BF92CF92DF92EF92FF9238
:101660000F931F93DF93CF930F920F92CDB7DEB7F7
:101670008C017B016A015901BE016F5F7F4F0E949F
:10168000530229813A81201B310B121613066CF488
:10169000F7016083718382839383F6018081918156
:1016A0008A299B299183808309C080E090E0A0E093
:1016B000B0E0F70180839183A283B383C9010F90C7
:1016C0000F90CF91DF911F910F91FF90EF90DF90DE
:1016D000CF90BF90AF9008952F923F924F925F921C
:1016E0006F927F928F929F92AF92BF92CF92DF9232
:1016F000EF92FF920F931F93DF93CF93CDB7DEB797
:1017000068970FB6F894DEBF0FBECDBF8B015E8B1E
:101710004D8BFC01119211926F017C019C012C5F99
:101720003F4F3C8B2B8BFC013696FA8BE98B9C014F
:10173000285D3F4F388B2F87FC013896FE87ED8759
:101740009C01245F3F4F3C872B87FC017096FA87F2
:10175000E9879C012C5E3F4F38872F83FC017C96E4
:10176000FE83ED839C01205E3F4F3C832B83FC0175
:10177000B496FA83E9836CE2262E312C280E391EAA
:1017800050E3452E512C480E591E48E1642E712C11
:10179000680E791E36E3832E912C880E991E24E361
:1017A000A22EB12CA80EB91E188E1F8AEDC0EF898B
:1017B000F88DE00FF11FE081E03509F45DC0E135FF
:1017C000DCF4E93409F484C0EA3474F4E63409F44E
:1017D00095C0E73434F4EA3209F4C4C0E53409F5BD
:1017E000A9C0E734F1F420C0ED3441F1EE3409F43E
:1017F000ADC0EA34B1F477C0E43559F1E5354CF4C5
:10180000E23509F486C08F89988D0196E33564F539
:101810008AC0E93509F446C0EA3509F44EC0E83516
:10182000B1F180E090E0A9C08F89988D0196800F7A
:10183000911FB601A70121E030E09DC08F89988DEE
:101840000196800F911F6B897C89A70122E030E00F
:1018500092C08F89988D0196800F911F69897A892E
:10186000A70120E030E487C0800F911F6F85788941
:10187000A70120E034E067C08F89988D0196800F22
:10188000911F6D857E85A70124E030E05CC08F89C3
:10189000988D0196800F911F6B857C85A70128E0AC
:1018A00030E051C08F89988D0196800F911F698516
:1018B0007A85A70120E130E046C08F89988D019696
:1018C000800F911F6F817885A70120E230E03BC037
:1018D0008F89988D0196800F911F6D817E81A70160
:1018E00020E430E030C08F89988D0196800F911FE1
:1018F0006B817C81A70120E030E825C08F89988D1D
:101900000196800F911F69817A81A70120E032E062
:101910001AC08F89988D0196800F911FB101A70180
:1019200020E030E110C0800F911FB201A70120E03C
:1019300038E009C08F89988D0196800F911FB301FF
:10194000A70120E030E20E942A0B17C08F89988DF2
:101950000196800F911FB401A70120E830E00E949A
:10196000AE0A0BC08F89988D0196800F911FB5012B
:10197000A70120E031E00E94EE0A01962F89388D00
:10198000280F391F388F2F8B8F89988DED89FE890D
:101990008E179F070CF40BCF68960FB6F894DEBF36
:1019A0000FBECDBFCF91DF911F910F91FF90EF90B0
:1019B000DF90CF90BF90AF909F908F907F906F906F
:1019C0005F904F903F902F900895CF93DF93EC015D
:1019D000662371F08881882359F086ED9BE060E0F2
:1019E00072E00E944D2C86ED9BE0BE010E944D2CC2
:1019F000DF91CF910895FC0181A160E070E00E9429
:101A0000C72708950F931F938C010E94CA26F801DF
:101A1000618372838383948380E090E0A0E0B0E0F0
:101A200081879287A387B48785879687A787B08B9E
:101A30001F910F9108950F931F938C01FC018485D2
:101A400095850E94020DF80111821082848595858A
:101A50000E94FB0C1F910F9108950F931F938C010F
:101A6000FC0182A10E949327AA2797FDA095BA2F77
:101A7000BC01CD010E945D2F20E030E040EA50E43F
:101A80000E94113020E030E048EC52E40E94113016
:101A900020E030E040E85AE30E9411300E942A2FF3
:101AA000F80174A363A31F910F9108952F923F92A1
:101AB0004F925F926F927F928F929F92AF92BF925E
:101AC000CF92DF92EF92FF920F931F93DF93CF930A
:101AD000CDB7DEB72C970FB6F894DEBF0FBECDBFE3
:101AE0004C013B011E010894211C311CC10162E024
:101AF00072E00E94312EC4010E942D0D0E94CA2660
:101B00007B018C01F40165837683878390878181D3
:101B10009281A381B481A8019701281B390B4A0B3C
:101B20005B0BCA01B9010E945B2F2FE632E143E84B
:101B30005AE30E9411305B016C01F401E182F282F0
:101B40000383148320E030E040E050E00E94BE2E8A
:101B500018160CF0ACC0F40183A194A1681A790A9C
:101B6000B301882777FD8095982F0E945D2F2B0168
:101B70003C01A60195010E941130F40125853685AE
:101B8000478550890E945A2EF4016587768787879A
:101B9000908B20E030E040EF52E40E940D301816A8
:101BA000ECF48E01095F1F4FC80163E072E00E94F0
:101BB000312EC101B8010E94012E8F8198850E94AB
:101BC000FB011A8619861C861B8680E090E0A0EF38
:101BD000B2E4F40185879687A787B08BF401658509
:101BE00076858785908920E030E040EF52EC0E94B6
:101BF000BE2E88234CF480E090E0A0EFB2ECF4011C
:101C000085879687A787B08BC301B201F401218530
:101C10003285438554850E94592EA60195010E9464
:101C2000C22E5B016C01F401418652866386748684
:101C3000C301B20121893289438954890E9411303C
:101C40007B018C01F40165857685878590892589DE
:101C500036894789508D0E9411309B01AC01C80123
:101C6000B7010E945A2E7B018C01C601B501F40117
:101C7000218D328D438D548D0E9411309B01AC011A
:101C8000C801B7010E945A2E0E942A2FCB016F3F34
:101C9000710519F014F08FEF90E0BC0197FF02C0BE
:101CA00060E070E0F40181A170E00E94C7278981A3
:101CB0009A810E94FB012C960FB6F894DEBF0FBEEE
:101CC000CDBFCF91DF911F910F91FF90EF90DF90EB
:101CD000CF90BF90AF909F908F907F906F905F90CC
:101CE0004F903F902F900895FC0160817181808911
:101CF00091890E94560D0895FC011486158616865A
:101D000017860E94740E0895FC0184859585A6852A
:101D1000B7850196A11DB11D84879587A687B787D2
:101D2000815D9740A040B0401CF0CF010E947C0E26
:101D30000895EF92FF920F931F93CF93DF93EC01DF
:101D40001B821A821F821E821D821C82FF24EE24A7
:101D5000E394E889F9892E813F8183A194A1280F1A
:101D6000391F3F832E838A819B8101969B838A83BF
:101D7000069704F1C90165E070E00E94F8307F83A6
:101D80006E838881998105976817790734F08AE016
:101D90008F1510F1F394EE2409C0EE2039F08C81F8
:101DA0009D8186179707C4F47D836C831F821E82F2
:101DB0001B821A8200E010E0CE010E94840E61E0D6
:101DC00070E080E090E00E94D8260F5F1F4F83E014
:101DD000083E180789F7BDCFDF91CF911F910F9172
:101DE000FF90EF900895FC01608171818485958555
:101DF0000E94560D0895FC011086118612861386E6
:101E00000E94F30E0895FC0180859185A285B3851B
:101E10000196A11DB11D80879187A287B387815D3F
:101E20009740A040B0401CF0CF010E94FB0E0895E7
:101E300080917804909179040E94840E8DE995E058
:101E40000E94030F0895CF93DF93EC0169A34AA387
:101E500088818823E9F080E090E0A0E0B0E4898BFD
:101E60009A8BAB8BBC8B89E29CE5AFE8BDE38D8B95
:101E70009E8BAF8BB88F80E090E0A0E8BFE3898FA6
:101E80009A8FAB8FBC8F80E090E0AAE7B4E41CC0CF
:101E900080E090E0A0EBB0E4898B9A8BAB8BBC8B9D
:101EA00080E090E0A0E0BFE38D8B9E8BAF8BB88F7E
:101EB0008DEC9CECACE4BEE3898F9A8FAB8FBC8F2A
:101EC00080E090E0A0E0B0E08D8F9E8FAF8FB8A350
:101ED0001CA21BA2CE010E94020D89A161E00E94FA
:101EE000A2288AA160E00E94A228DF91CF910895E4
:101EF0000F931F938C01862FF80166874787108602
:101F000011861286138623E739E03587248761E03E
:101F10000E94A228F801878560E00E94A228F801AB
:101F2000868560E070E00E94C727F8011182108268
:101F3000848595850E94020DF801118210821F91FF
:101F40000F910895FC01868960E00E943B29089565
:101F50000F931F938C01FC01808991890E94020DCF
:101F6000F80111821082808991890E94FB0CF8018E
:101F7000868961E00E943B291F910F9108956F921D
:101F80007F928F92AF92BF92CF92DF92EF920F9398
:101F9000DF93CF93CDB7DEB73C01862FF301628B81
:101FA000438B268B048BE58AA086B186C286D386B6
:101FB000878A148615861686178628E939E0318BBC
:101FC000208B61E00E94A228F301838961E00E94D6
:101FD000A228F301868961E00E94A228F301848986
:101FE00061E00E94A228F301858960E00E94A22896
:101FF000F301838961E00E943B29F301828960E05B
:102000000E943B29F301848960E070E00E94C727A9
:10201000F30111821082808991890E94020DF301DF
:1020200011821082CF91DF910F91EF90DF90CF90CE
:10203000BF90AF908F907F906F900895CF93DF9374
:10204000EC01C759DF4F88819981AA81BB81C956AC
:10205000D0400097A105B10521F08BE160E00E941E
:102060003B29C359DF4F88819981AA81BB81CD5615
:10207000D0400097A105B10521F08DE160E00E94FC
:102080003B29CF58DF4F88819981AA81BB81C157F5
:10209000D0400097A105B10521F083E260E00E94E5
:1020A0003B29CB58DF4F88819981AA81BB8100975A
:1020B000A105B10559F0E0917A04F0E0EE0FFF1FA1
:1020C000E858FB4F808191810E94A20FDF91CF9150
:1020D00008951F93CF93DF93EC01C955DF4F88819B
:1020E000C75AD040882379F5CB56DF4F699111E06C
:1020F000612787E10E943B29699181E20E943B2987
:102100006991612787E20E943B296881C859D040C4
:10211000E0917A04F0E0EE0FFF1FE858FB4F0190CA
:10212000F081E02D83890E943B29CE010E941E1080
:1021300068EE73E080E090E00E949D09C655DF4F95
:102140001883FE011293DF91CF911F910895FF92A2
:102150000F931F938C0106551F4FF80110820350F7
:102160001040F801108202511040FF24F394F8014E
:10217000F192F192F192F1928F01F082095910409F
:1021800080E090E0A0E0B0E0F801858B968BA78B13
:10219000B08F818F928FA38FB48F858F968FA78FEB
:1021A000B0A381A392A3A3A3B4A380E090E0A6E987
:1021B000B4E485A396A3A7A3B0A789E161E00E9438
:1021C000A22887E161E00E94A2288FE161E00E94DD
:1021D000A22881E261E00E94A22885E261E00E94DB
:1021E000A22887E261E00E94A2288BE161E00E94C0
:1021F000A2288DE161E00E94A22883E261E00E94B2
:10220000A22886E160E00E94A2288AE160E00E94A4
:10221000A2288EE160E00E94A22886E161E00E948F
:102220003B298AE161E00E943B298EE161E00E9446
:102230003B2988E160E00E94A2288CE160E00E94D6
:10224000A22880E260E00E94A22888E161E00E946A
:102250003B298CE161E00E943B2980E261E00E9421
:102260003B29F801F08282E99EEBAFE9B2E4818379
:102270009283A383B48385839683A783B08780E00A
:1022800090E4A5E0B4E481879287A387B487E091C6
:102290007A04F0E0EE0FFF1FE858FB4F0190F08149
:1022A000E02D80859185A285B385F8018587968785
:1022B000A787B08B80E090E0A0E8BFE3818B928B92
:1022C000A38BB48B1F910F91FF9008958F92AF92C3
:1022D000BF92CF92DF92EF920F9385E895E06BE289
:1022E0004DE229E202E058E0E52E0F2EF0E0AF2E9D
:1022F000F0E0BF2EF0E6CF2EF1E4DF2EF02D37E038
:10230000832E0E94BF0F8DE995E064E04AE00E94B1
:10231000780F1092C50684ED9EEF9093AE068093E1
:10232000AD069093B0068093AF061092AD058FEF87
:102330009FEFAFEFBFEF8093C1069093C206A093CB
:10234000C306B093C4061092C60687EC96E00E94BE
:10235000A71082E797E00E94A7108DE198E00E9405
:10236000A71088EC98E00E94A71083E799E064E04A
:102370004AE021E00E94230F88E999E062E048E00A
:1023800020E00E94230F0F91EF90DF90CF90BF903D
:10239000AF908F9008958091850491E08927809374
:1023A0008504882319F084E061E002C084E060E0E5
:1023B0000E943B290895F8948091830480938404BB
:1023C000ABE7B4E0ED91FD91E655FF4F10823397F6
:1023D000108284E0A338B807A9F78BE161E00E947E
:1023E0003B298DE161E00E943B2983E261E00E948C
:1023F0003B2980917804909179040E94A80F8DE97F
:1024000095E00E941B0D84E060E00E943B29FFCF15
:102410002F923F924F925F926F927F928F929F92F4
:10242000AF92BF92CF92DF92EF92FF920F931F93E2
:10243000DF93CF93CDB7DEB7AC970FB6F894DEBF7E
:102440000FBECDBF86559F4FDC018C91AA5AB0407C
:10245000BCA7ABA7882309F40AC4AB56BF4FBA8305
:10246000A983EBA5FCA5EB5AFF4FFC83EB832BA5BF
:102470003CA52F5B3F4F3E832D838BA59CA58656A5
:102480009F4F98878F83ABA5BCA5AA56BF4FBA872D
:10249000A987EBA5FCA5E75AFF4FFC87EB872BA587
:1024A0003CA52B5B3F4F3E872D878BA59CA5855672
:1024B0009F4F988B8F87ABA5BCA5A956BF4FBA8BF2
:1024C000A98BEBA5FCA5E35AFF4FFC8BEB8B2BA54F
:1024D0003CA5275B3F4F3E8B2D8B8BA59CA584563F
:1024E0009F4F988F8F8BABA5BCA5A856BF4FBA8FB7
:1024F000A98FEBA5FCA5EF59FF4FFC8FEB8F1DE4D7
:10250000212E312C2BA53CA5220E331E23563F4FE6
:102510003E8F2D8F8BA59CA587569F4F98A38F8F9D
:10252000ABA5BCA5AB59BF4FBAA3A9A3B1E54B2E30
:10253000512CEBA5FCA54E0E5F1EE256FF4FFCA3EF
:10254000EBA3A8EA6A2E712C2BA53CA5620E731E84
:1025500027593F4F3EA32DA38BA59CA583589F4F82
:1025600098A78FA3FFE98F2E912CABA5BCA58A0E4F
:102570009B1EA359BF4FBAA7A9A7E981FA81608121
:10258000AB81BC812D913D914D915C91ED81FE819E
:1025900080819181A281B381281739074A075B079F
:1025A00051F0662311F486E101C088E10E94702990
:1025B000892B09F04AC380E0AF81B8858C93E98507
:1025C000FA856081AB85BC852D913D914D915C91E3
:1025D000ED85FE8580819181A281B381281739071D
:1025E0004A075B0751F0662311F48AE101C08CE1D0
:1025F0000E947029892B09F02AC380E0AF85B88931
:102600008C93E989FA896081AB89BC892D913D91D0
:102610004D915C91ED89FE8980819181A281B38188
:10262000281739074A075B0751F0662311F48EE13A
:1026300001C080E20E947029892B09F00AC380E062
:10264000AF89B88D8C93E98DFA8D808160E0AB8D78
:10265000BC8D2D913D914D915C91F10180819181D5
:10266000A281B381281739074A075B0709F061E0A7
:10267000AD8DBE8D6C93EF8DF8A1808160E0A9A136
:10268000BAA12D913D914D915C91F2018081918192
:10269000A281B381281739074A075B0709F061E077
:1026A000ABA1BCA16C93F3011082AF81B8858C9172
:1026B000882309F453C0EDA1FEA180819181A281FC
:1026C000B381EFA1F8A52081318142815381820F2E
:1026D000931FA41FB51F80839183A283B383181611
:1026E00019061A061B06D4F589E161E00E943B2910
:1026F00089E160E00E943B2981E0D3018C93F401E1
:102700002081318142815381EFA1F8A5808191819F
:10271000A281B381821B930BA40BB50B80839183A1
:10272000A283B383A981BA818C91882351F0ED8172
:10273000FE8180819181A281B3810196A11DB11D8D
:1027400009C0ED81FE8180819181A281B3810197D1
:10275000A109B10980839183A283B383AF85B8892E
:102760008C91882309F455C00BA51CA50F571F4F4A
:10277000E9A5FAA580819181A281B381F801208128
:10278000318142815381820F931FA41FB51F808323
:102790009183A283B383181619061A061B06CCF57B
:1027A0008FE161E00E943B298FE160E00E943B29BC
:1027B00081E0D3018C93F4012081318142815381E6
:1027C000F80180819181A281B381821B930BA40BBC
:1027D000B50B80839183A283B383A985BA858C913D
:1027E000882351F0ED85FE8580819181A281B3819E
:1027F0000196A11DB11D09C0ED85FE8580819181E5
:10280000A281B3810197A109B10980839183A28339
:10281000B383AF89B88D8C91882309F45BC00BA575
:102820001CA50B571F4FEBA5FCA5EF58FF4F808150
:102830009181A281B381E157F040FCA7EBA7F80199
:102840002081318142815381820F931FA41FB51FC4
:1028500080839183A283B383181619061A061B0678
:10286000CCF585E261E00E943B2985E260E00E94B0
:102870003B2981E0D3018C93F40120813181428195
:102880005381F80180819181A281B381821B930BD6
:10289000A40BB50B80839183A283B383A989BA89E2
:1028A0008C91882351F0ED89FE8980819181A281EC
:1028B000B3810196A11DB11D09C0ED89FE898081FA
:1028C0009181A281B3810197A109B109808391838C
:1028D000A283B383AD8DBE8D8C91882309F467C02C
:1028E000E9E8EE2EF12CEBA5FCA5EE0EFF1EEB5851
:1028F000FF4F80819181A281B381E557F040FCA711
:10290000EBA7F7012081318142815381820F931F10
:10291000A41FB51F80839183A283B3831816190661
:102920001A061B060CF043C0E0917A04F0E0EE0FAB
:10293000FF1FE858FB4F00811181D80152968C91FE
:1029400061E00E943B29F801828960E00E943B29F6
:1029500081E0D3018C93F401208131814281538144
:10296000F70180819181A281B381821B930BA40B1B
:10297000B50B80839183A283B383A98DBA8D8C918B
:10298000882349F0F10180819181A281B381019670
:10299000A11DB11D08C0F10180819181A281B38187
:1029A0000197A109B10980839183A283B383ABA16D
:1029B000BCA18C91882309F45FC0EBA5FCA5E3576B
:1029C000FF4F2BA53CA527583F4FD9012D913D9195
:1029D0004D915C911397A957B040BCA7ABA78081DC
:1029E0009181A281B381280F391F4A1F5B1F208369
:1029F00031834283538312161306140615069CF581
:102A0000D401ED90FD900D911C912E193F09400BC2
:102A1000510B2083318342835383EF8DF8A1808152
:102A2000882349F0F20180819181A281B3810196CE
:102A3000A11DB11D08C0F20180819181A281B381E5
:102A40000197A109B10980839183A283B3832BA548
:102A50003CA527553F4F81E0D9018C93A95AB0403E
:102A6000BCA7ABA709C0EBA5FCA5E755FF4F10829B
:102A7000E95AF040FCA7EBA7D3018C91882309F415
:102A80009AC0EBA5FCA5E755FF4F8081E95AF040BD
:102A9000FCA7EBA7882309F48EC0EF56FF4FFCA7D5
:102AA000EBA7D2016D917D918D919C912081318117
:102AB000428153810E94D930EBA5FCA57296DF01BB
:102AC0006083718382839383A35AB040BCA7ABA772
:102AD0000E945D2F7B018C01EBA5FCA5FD9660811A
:102AE00071818281938120EC31EE44E65CE40E94A6
:102AF00011305B016C01F4016081718182819381ED
:102B00000E945D2F9B01AC01C801B7010E941130EA
:102B10009B01AC01C601B5010E94C22E20E030E04D
:102B200040E050E00E940D308823D4F0D4016D9134
:102B30007D918D919C910E945D2F9B01AC01C801FC
:102B4000B7010E9411309B01AC01C601B5010E9482
:102B5000C22E20E030E040E05FE30E945A2E19C010
:102B6000F40160817181828193810E945D2F9B01BC
:102B7000AC01C801B7010E9411309B01AC01C60134
:102B8000B5010E94C22E20E030E040E05FE30E94E9
:102B9000592E0E942A2F2BA53CA52D553F4FD90118
:102BA0006D937D938D939C931397A35AB040BCA7CC
:102BB000ABA70E949D09EBA5FCA5E755FF4F10822E
:102BC000E95AF040FCA7EBA7D3018C91882309F0C8
:102BD00042C0EBA1FCA180818823E9F1CECC2BA5DA
:102BE0003CA525563F4FD9018C91AB59B040BCA7AD
:102BF000ABA78823D1F4A456BF4F8C91AC59B040F9
:102C0000BCA7ABA7882389F4A356BF4F8C91AD59BD
:102C1000B040BCA7ABA7882341F4A256BF4F8C910C
:102C2000AE59B040BCA7ABA701C081E0EBA5FCA5A5
:102C3000E655FF4F808380818823C9F468EE73E0F6
:102C400080E090E00E949D0912C081E0B5CC81E057
:102C5000D5CC81E0F5CCEBA5FCA5E656FF4F8081F5
:102C6000EA59F040FCA7EBA78823F9F6B8CFAC9659
:102C70000FB6F894DEBF0FBECDBFCF91DF911F918D
:102C80000F91FF90EF90DF90CF90BF90AF909F900B
:102C90008F907F906F905F904F903F902F9008950E
:102CA0001F920F920FB60F920BB60F9211241F9323
:102CB0002F933F934F935F936F937F938F939F9344
:102CC000AF93BF93EF93FF9380919C04882309F007
:102CD0005DC081E080939C047894809186049091FB
:102CE00087040196909387048093860480589240CD
:102CF00031F40E94CB111092870410928604E09167
:102D00008404F0E0EE0FFF1FE558FB4F0190F081C7
:102D1000E02DE655FF4F8081882361F0E091840427
:102D2000F0E0EE0FFF1FE558FB4F808191810E947C
:102D3000081222C090918404809183049817F9F4BA
:102D4000E0918404F0E0EE0FFF1FE558FB4F019087
:102D5000F081E02DE655FF4F8081882381F40CC07F
:102D6000E12FF0E0EE0FFF1FE558FB4F80819181CE
:102D70000E9469101093840410929C0407C0109163
:102D800084041F5F143060F310E0EACFFF91EF91ED
:102D9000BF91AF919F918F917F916F915F914F9173
:102DA0003F912F911F910F900BBE0F900FBE0F9070
:102DB0001F9018952F923F924F925F926F927F9241
:102DC0008F929F92AF92BF92CF92DF92EF92FF923B
:102DD0000F931F93DF93CF93CDB7DEB7A4970FB6B2
:102DE000F894DEBF0FBECDBF2C016BA37CA3DC012A
:102DF0005596FB0184E101900D928150E1F727EA9D
:102E000030E0420E531ED2011C92E9E5FFEF4E0E58
:102E10005F1ED20155966D917D918D919C91589731
:102E2000209188043091890440918A0450918B0448
:102E30000E94592E5B016C01E894D7F8F201618D74
:102E4000728D838D948D20918C0430918D044091EE
:102E50008E0450918F040E94592E7B018C01E894BE
:102E600017F9D2015D966D917D918D919C9190970E
:102E700020919004309191044091920450919304D8
:102E80000E94592E3B014C01E89497F8F20161A190
:102E900072A183A194A12091940430919504409152
:102EA0009604509197040E94592E9B01AC015F77C4
:102EB000298F3A8F4B8F5C8FD20195966D917D91C2
:102EC0008D919C919897209198043091990440910C
:102ED0009A0450919B040E94592E9B01AC015F778C
:102EE0002D8F3E8F4F8F58A3D201D9962D933D93AE
:102EF0004D935C93DC97298D3A8D4B8D5C8DD596E7
:102F00002D933D934D935C93D897F20161AA72AAD9
:102F100083AA94AA9D96ED92FD920D931C93D0974F
:102F2000A1A6B2A6C3A6D4A6C601B501A601950165
:102F30000E9411305B016C01C801B701A801970123
:102F40000E9411309B01AC01C601B5010E945A2EAE
:102F50007B018C01C401B301A40193010E941130D3
:102F60009B01AC01C801B7010E945A2E8201035C8B
:102F70001F4FD8016D937D938D939C93139727E1F9
:102F800037EB41ED58E30E94BE2E88236CF4698D27
:102F90007A8D8B8D9C8D9B01AC010E941130F801C4
:102FA00060837183828393838201035C1F4FD80106
:102FB0006D917D918D919C9127E137EB41ED58E327
:102FC0000E94BE2E88236CF46D8D7E8D8F8D98A10E
:102FD0009B01AC010E941130F801608371838283F0
:102FE00093838201035C1F4FD8016D917D918D9178
:102FF0009C910E947830F80160837183828393836F
:1030000072010894E11CF11C21E430E0420E531ED1
:103010008E010F5F1F4FC801B70148E854E00E94BE
:10302000A207D2014FEB5FEF440E551EF80184E179
:1030300001900D928150E1F785E190E0480E591E14
:103040008E010F5F1F4FC801B701A2010E94A207A6
:10305000A0E4B0E04A0E5B1ED201EBEAFFEF4E0E99
:103060005F1EF80184E101900D928150E1F7F201B9
:10307000EB5AFF4F21E430E0420E531E6080718016
:1030800082809380F20180819181A281B3812FEBB4
:103090003FEF420E531E681A790A8A0A9B0A97FE6E
:1030A00008C09094809470946094611C711C811C81
:1030B000911CF201E75AFF4F45E450E0440E551EC3
:1030C000E080F18002811381F20180819181A281EF
:1030D000B3812BEB3FEF420E531EE81AF90A0A0B9D
:1030E0001B0B17FF08C010950095F094E094E11CAD
:1030F000F11C011D111DF201E35AFF4F49E450E09C
:10310000440E551E80819181A281B3818D8B9E8B4F
:10311000AF8BB88FF20180819181A281B38127EBBF
:103120003FEF420E531E2D893E894F89588D281B33
:10313000390B4A0B5B0B2D8B3E8B4F8B588F57FFF8
:103140000BC050954095309521953F4F4F4F5F4FA5
:103150002D8B3E8B4F8B588FF201EF59FF4F4DE473
:1031600050E0440E551EA080B180C280D380F20191
:1031700080819181A281B38123EB3FEF420E531EE8
:10318000A81AB90ACA0ADB0AD7FE08C0D094C094AC
:10319000B094A094A11CB11CC11CD11CB2016758F1
:1031A0007F4FF201EB59FF4F41E550E0440E551EB1
:1031B0002081318142815381F20180819181A281FC
:1031C000B381EFEAFFEF4E0E5F1E281B390B4A0B4F
:1031D0005B0B57FF07C050954095309521953F4FA9
:1031E0004F4F5F4FDB012D933D934D935C931397AE
:1031F000E5E7F0E04E0E5F1ED201AD92BD92CD929A
:10320000DC9213972D893E894F89588D5E934E939A
:103210003E932E93FD0112930293F292E292DF010C
:103220009E928E927E926E922D01E7E9FFEF4E0EF6
:103230005F1ED401C3016E147F048006910614F44E
:10324000D801C701F201E156FF4F80839183A28329
:10325000B383E080F1800281138121E730E0420EE8
:10326000531ED2012D913D914D915C918FE89FEFBE
:10327000480E591E2E153F054007510724F42081A2
:10328000318142815381F201E156FF4F2083318326
:1032900042835383E080F18002811381A5E7B0E08F
:1032A0004A0E5B1ED2012D913D914D915C918BE8B0
:1032B0009FEF480E591E2E153F054007510724F475
:1032C00020813181428153816FE9E62EF12CE40C9B
:1032D000F51CD7012D933D934D935C9313978D91DE
:1032E0009D910D90BC91A02D0097A105B10599F479
:1032F000E7EAF0E04E0E5F1E81E0D2018C93A8E871
:10330000B4E02BA13CA1C901FC0184E101900D9224
:103310008150E1F78AC145E6242E312C240C351C5E
:10332000F101608071808280938092012F5A3F4F1B
:103330003AA329A3D9016D927D928D929C92139705
:10334000E9E7F0E04E0E5F1ED2011D921D921D9224
:103350001C921397E7E8FFEF4E0E5F1E82010F5697
:103360001F4F21E030E040E050E0D8012D933D9325
:103370004D935C931397F70180819181A281B38172
:10338000B7FF6DC0208131814281538160E070E0E0
:1033900080E090E00E942D3159016A01D801AD9280
:1033A000BD92CD92DC921397B3E0AB16B104C10489
:1033B000D1040CF445C0C401B301A60195010E94DB
:1033C0002D31F1012083318342835383C401B30142
:1033D000A60195010E942D31C901DA01E9A1FAA1E6
:1033E00080839183A283B383281B390B4A0B5B0B29
:1033F00057FF07C050954095309521953F4F4F4F4F
:103400005F4F89E790E0480E591ED2012D933D93FE
:103410004D935C931397E7E8FFEF4E0E5F1EF201AA
:10342000E156FF4F80819181A281B381821793077A
:10343000A407B507A4F420833183428353830FC0CC
:1034400021E030E040E050E0D8012D933D934D93D2
:103450005C931397F701108211821282138210E09D
:10346000D20155966D917D918D919C9158972091A7
:1034700088043091890440918A0450918B040E9401
:103480000D3088230CF011E0E5E9F0E04E0E5F1EF0
:10349000D2011C93EBE6FFEF4E0E5F1E10E0D2014F
:1034A00059966D917D918D919C915C9720918C04A2
:1034B00030918D0440918E0450918F040E940D3004
:1034C00088230CF011E0E6E9F0E04E0E5F1ED20119
:1034D0001C93EAE6FFEF4E0E5F1E10E0D2015D96F0
:1034E0006D917D918D919C91909720919004309158
:1034F000910440919204509193040E940D308823CE
:103500000CF011E0E7E9F0E04E0E5F1ED2011C93D3
:10351000E9E6FFEF4E0E5F1E10E0D20191966D912D
:103520007D918D919C919497209194043091950474
:1035300040919604509197040E940D3088230CF01E
:1035400011E0E8E9F0E04E0E5F1ED2011C93E8E6C0
:10355000FFEF4E0E5F1E10E0D20195966D917D91AA
:103560008D919C9198972091980430919904409165
:103570009A0450919B040E940D3088230CF011E0B6
:10358000E9E9F0E04E0E5F1ED2011C93E6E0F0E0A8
:103590004E0E5F1ED2016D917D918D919C91E1E661
:1035A000FFEF4E0E5F1E22E030E040E050E00E9450
:1035B0002D3150954095309521953F4F4F4F5F4F9E
:1035C000D201A358BF4F2C9311963C93119712969A
:1035D0004C93129713965C931397F201EF57FF4F9A
:1035E000208331834283538325E830E0420E531E0B
:1035F0008D919D910D90BC91A02DF201819391939D
:10360000A193B19381939193A193B193808391837B
:10361000A283B383A8E8B4E02BA13CA1C901FC01BB
:1036200084E101900D928150E1F7A4960FB6F894D1
:10363000DEBF0FBECDBFCF91DF911F910F91FF90E5
:10364000EF90DF90CF90BF90AF909F908F907F9042
:103650006F905F904F903F902F9008951F93CF935E
:10366000DF93EC0106C061E070E080E090E00E9432
:10367000D82680918404882329F4809183048330A0
:1036800059F4F1CF209183048091840430E090E0DC
:1036900001972817390739F3109183041F5F1430FD
:1036A00008F010E0E12FF0E0EE0FFF1FE558FB4FB0
:1036B00080819181BE010E94DA1610938304DF910C
:1036C000CF911F910895CF93DF93EC019B01A3E36A
:1036D000B5E0E8E8F4E084E101900D928150E1F773
:1036E00088819981AA81BB8180933B0590933C0599
:1036F000A0933D05B0933E05F90180819181A2819F
:10370000B3818093430590934405A0934505B093FE
:10371000460583E395E00E942E1BDF91CF9108952B
:103720008F929F92AF92BF92CF92DF92EF92FF92D1
:103730000F931F93DF93CF93CDB7DEB7A0970FB64C
:10374000F894DEBF0FBECDBF0F2EF0E0AF2EF0E03D
:10375000BF2EF4E3CF2EF2E4DF2EF02DA0929804DA
:10376000B0929904C0929A04D0929B04E0E98E2E04
:10377000E4E09E2EF401608171818281938120E0DA
:1037800030E040E05FE30E94592E69837A838B83A7
:103790009C830F2EF0E0EF2EF0E0FF2EF6E90F2FC6
:1037A000F2E41F2FF02DED82FE820F831887CE01E9
:1037B0000196BE016B5F7F4F0E94631BF401608125
:1037C00071818281938120E030E04AE753E40E94D6
:1037D000592E69877A878B879C87ED86FE860F87AF
:1037E000188BCE010996BE01635F7F4F0E94631B59
:1037F0000F2EF0E0EF2EF0E0FF2EF0E00F2FF0E0C4
:103800001F2FF02DF401E082F18202831383A09236
:103810009804B0929904C0929A04D0929B0480E0DC
:1038200090E0A0E8BFE3898B9A8BAB8BBC8BAD8A11
:10383000BE8ACF8AD88ECE014196BE016B5E7F4F85
:103840000E94631BF401608171818281938120E079
:1038500030E040E050E40E94592E698F7A8F8B8FC0
:103860009C8FAD8EBE8ECF8ED8A2CE014996BE0162
:10387000635E7F4F0E94631BF401E082F18202834A
:103880001383A0960FB6F894DEBF0FBECDBFCF91C5
:10389000DF911F910F91FF90EF90DF90CF90BF903D
:1038A000AF909F908F900895CF93DF93EC019B0191
:1038B000A3E3B5E0E8E8F4E084E101900D928150E3
:1038C000E1F788819981AA81BB8180933705909324
:1038D0003805A0933905B0933A05F90180819181AB
:1038E000A281B3818093430590934405A09345053D
:1038F000B093460583E395E00E942E1BDF91CF91A4
:103900000895AF92BF92CF92DF92EF92FF920F9302
:103910001F93DF93CF93CDB7DEB7A0970FB6F89480
:10392000DEBF0FBECDBF60918C0470918D0480917D
:103930008E0490918F0420E030E040EA50E40E9431
:10394000592E69837A838B839C830F2EF0E0EF2EB0
:10395000F0E0FF2EFAE70F2FF5E41F2FF02DED8298
:10396000FE820F831887CE010196BE016B5F7F4FE9
:103970000E94541C60918C0470918D0480918E047F
:1039800090918F0420E030E04AE753E40E94592EE2
:1039900069877A878B879C87ED86FE860F87188BD1
:1039A000CE010996BE01635F7F4F0E94541C0F2E0B
:1039B000F0E0AF2EF0E0BF2EF0E0CF2EF0E0DF2EF3
:1039C000F02DA0928C04B0928D04C0928E04D092FF
:1039D0008F040F2EF0E0EF2EF0E0FF2EF6E90F2F10
:1039E000F4E41F2FF02DE0929804F09299040093D4
:1039F0009A0410939B0480E090E0A0E8BFE3898BD9
:103A00009A8BAB8BBC8BED8AFE8A0F8B188FCE0105
:103A10004196BE016B5E7F4F0E94541C60918C04E6
:103A200070918D0480918E0490918F0420E030E09D
:103A300040E251E40E94592E698F7A8F8B8F9C8FC0
:103A4000ED8EFE8E0F8F18A3CE014996BE01635EE8
:103A50007F4F0E94541CA0928C04B0928D04C0929F
:103A60008E04D0928F04A0960FB6F894DEBF0FBEDE
:103A7000CDBFCF91DF911F910F91FF90EF90DF901D
:103A8000CF90BF90AF900895CF93DF93EC019B014F
:103A9000A3E3B5E0E8E8F4E084E101900D92815001
:103AA000E1F788819981AA81BB8180933305909346
:103AB0003405A0933505B0933605F90180819181D5
:103AC000A281B3818093430590934405A09345055B
:103AD000B093460583E395E00E942E1BDF91CF91C2
:103AE00008958F929F92AF92BF92CF92DF92EF9202
:103AF000FF920F931F93DF93CF93CDB7DEB7A097BD
:103B00000FB6F894DEBF0FBECDBF0F2EF0E0AF2E84
:103B1000F0E0BF2EF6E9CF2EF4E4DF2EF02DA092D8
:103B20009804B0929904C0929A04D0929B04F8E849
:103B30008F2EF4E09F2EF401608171818281938148
:103B400020E030E040EA50E40E94592E69837A83F5
:103B50008B839C830F2EF0E0EF2EF0E0FF2EFAE730
:103B60000F2FF5E41F2FF02DED82FE820F831887B3
:103B7000CE010196BE016B5F7F4F0E94441DF40190
:103B8000608171818281938120E030E04AE753E4D3
:103B90000E94592E69877A878B879C87ED86FE86DF
:103BA0000F87188BCE010996BE01635F7F4F0E947D
:103BB000441D0F2EF0E0EF2EF0E0FF2EF0E00F2F6F
:103BC000F0E01F2FF02DF401E082F18202831383D5
:103BD000A0929804B0929904C0929A04D0929B0447
:103BE00080E090E0A0E8BFE3898B9A8BAB8BBC8B25
:103BF000AD8ABE8ACF8AD88ECE014196BE016B5E59
:103C00007F4F0E94441DF401608171818281938104
:103C100020E030E040E251E40E94592E698F7A8F13
:103C20008B8F9C8FAD8EBE8ECF8ED8A2CE01499643
:103C3000BE01635E7F4F0E94441DF401E082F18269
:103C400002831383A0960FB6F894DEBF0FBECDBFDC
:103C5000CF91DF911F910F91FF90EF90DF90CF9068
:103C6000BF90AF909F908F9008954F925F926F9208
:103C70007F928F929F92AF92BF92CF92DF92EF92FC
:103C8000FF920F931F93CF93DF93EC01AB018881D9
:103C90008F3209F4F3C580E090E0A0E0B0E08093BB
:103CA0001F0590932005A0932105B09322058093D2
:103CB000230590932405A0932505B09326058093B2
:103CC000270590932805A0932905B0932A05809392
:103CD0002B0590932C05A0932D05B0932E05809372
:103CE0002F0590933005A0933105B093320587E4FA
:103CF00095E0BE010E946C0B6091470570914805EC
:103D0000CB01880F892F881F990B91958170972F70
:103D1000917070FD03C0882309F405C1981709F458
:103D20004DC08091600482FFDAC02DEA35E099230E
:103D300019F18DB79EB708970FB6F8949EBF0FBEC6
:103D40008DBFEDB7FEB73196ADB7BEB712963C93B7
:103D50002E9311978FE692E09383828380917B0567
:103D600090917C0595838483D783C6830E94010547
:103D7000EDB7FEB73896AEC08DB79EB70A970FB6AF
:103D8000F8949EBF0FBE8DBFEDB7FEB73196ADB7AD
:103D9000BEB712963C932E9311978BEB92E09383D0
:103DA000828380917D0590917E05A0917F05B091E1
:103DB000800584839583A683B78336C0992309F44D
:103DC000B2C090E080E002C09E278F5FFE01E80F46
:103DD000F11DE081EA32C1F720917B0530917C052D
:103DE000492F50E02417350739F18091600482FF94
:103DF00076C08DB79EB70A970FB6F8949EBF0FBED8
:103E00008DBFEDB7FEB731968DEA95E0ADB7BEB781
:103E100012969C938E93119789E093E0938382830B
:103E20003583248357834683D187C0870E94010549
:103E3000EDB7FEB73A964EC061FF08C080914B05C2
:103E400090914C058E36910509F45DC0E0907D059A
:103E5000F0907E0500917F051091800520918105ED
:103E60003091820540918305509184052F5F3F4F2B
:103E70004F4F5F4FE216F3060407150709F443C0DE
:103E80008091600482FF2BC08DB79EB70E970FB64E
:103E9000F8949EBF0FBE8DBFEDB7FEB731968DEA89
:103EA00095E0ADB7BEB712969C938E93119782E6BC
:103EB00093E093838283E482F582068317832087CD
:103EC000318742875387D587C4870E940105EDB7A4
:103ED000FEB73E960FB6F894FEBF0FBEEDBF8091C1
:103EE000810590918205A0918305B091840501968A
:103EF000A11DB11D8093C1069093C206A093C30675
:103F0000B093C406BBC480917D0590917E05A091BD
:103F10007F05B09180058093810590938205A093E1
:103F20008305B0938405CB0183709074892B91F441
:103F30006115710579F0809161049091620497FD9B
:103F400009C090934A0580934905616070934805C4
:103F5000609347058091470581FF09C080914B051B
:103F600090914C058037910511F40E94DB11C091AE
:103F70004705D0914805C0FF77C2809149059091CF
:103F80004A059093620480936104AFE1B5E0E8E8EC
:103F9000F4E084E101900D928150E1F78091630497
:103FA0009E0128703070882309F449C0232B81F0CA
:103FB0008091530590915405A0915505B0915605F7
:103FC00080931F0590932005A0932105B0932205AF
:103FD000C4FF10C08091570590915805A0915905D4
:103FE000B0915A058093230590932405A09325054D
:103FF000B0932605C5FF10C080915B0590915C05CC
:10400000A0915D05B0915E058093270590932805EA
:10401000A0932905B0932A05D5FF81C080915F0543
:1040200090916005A0916105B091620580932B0588
:1040300090932C05A0932D05B0932E0570C0232BD3
:10404000D1F060911F05709120058091210590911C
:10405000220520915305309154054091550550910A
:1040600056050E945A2E60931F0570932005809379
:10407000210590932205C4FF1AC060912305709119
:1040800024058091250590912605209157053091B2
:1040900058054091590550915A050E945A2E609337
:1040A0002305709324058093250590932605C5FF6D
:1040B0001AC060912705709128058091290590917B
:1040C0002A0520915B0530915C0540915D0550917A
:1040D0005E050E945A2E60932705709328058093F1
:1040E000290590932A05D5FF1AC060912B05709180
:1040F0002C0580912D0590912E0520915F05309122
:10410000600540916105509162050E945A2E6093AE
:104110002B0570932C0580932D0590932E05D1FFD0
:1041200010C080916B0590916C05A0916D05B091C8
:104130006E0580932F0590933005A0933105B093C1
:1041400032058091490590914A058130910539F1F8
:104150008C31910549F1892B09F04DC0E0902F0574
:10416000F0903005009131051091320580E090E02B
:10417000AAE7B5E480932F0590933005A09331050D
:10418000B09332058FE195E00E942E1BE0922F053F
:10419000F092300500933105109332056FC38FE123
:1041A00095E00E942E1B6AC3C3FD02C090E003C0CD
:1041B0000E94711D91E08091470584FF03C00E9419
:1041C000811C91E08091470585FD06C0992331F45B
:1041D0000E94711D0E94811C0E94901B80E090E053
:1041E000A6E9B4E48093980490939904A0939A0468
:1041F000B0939B0443C390918404809183049817E7
:1042000009F027C3E0918404F0E0EE0FFF1FE558AA
:10421000FB4F0190F081E02DE655FF4F8081882310
:1042200009F017C32091490530914A052531310520
:1042300009F487C02631310544F42430310591F06A
:104240002431310509F0DCC024C02B35310509F4D7
:10425000CAC02C35310509F4C9C02A35310509F029
:10426000CFC0BDC060914F05709150058091510540
:104270009091520520E030E040E05FE30E945A2E2A
:104280000E942A2F882777FD8095982F0E94D82694
:10429000EBC0CBE7D4E00F2EF1E2CF2EF8E9DF2E12
:1042A000FDEFEF2EF4E4FF2EF02D0F2EFDEC4F2E40
:1042B000F8E85F2EF3E56F2EF6E47F2EF02D0F2E3B
:1042C000F0E08F2EF0E09F2EF0E8AF2EFFE3BF2E40
:1042D000F02D09911991D8011C92F801C182D28266
:1042E000E382F4821596CD92DD92ED92FC921897BE
:1042F0004186528663867486E0917A04F0E0EE0F80
:10430000FF1FE858FB4F0190F081E02D608571851B
:104310008285938523E333E34BEC51E40E94113013
:10432000D8011D966D937D938D939C935097F801C2
:10433000818A928AA38AB48AF4E0C338DF0749F6F7
:1043400093C0CBE7D4E09924939442E95EEB6FE904
:1043500072E40F2EF0E0AF2EF0E4BF2EF5E0CF2E8A
:10436000F4E4DF2EF02D0F2EF0E0EF2EF0E0FF2E24
:10437000F0E80F2FFFE31F2FF02D29913991D9017C
:104380009C92F901418352836383748315964D9304
:104390005D936D937C931897A186B286C386D4866D
:1043A000E0917A04F0E0EE0FFF1FE858FB4F019018
:1043B000F081E02D80859185A285B385F9018587FF
:1043C0009687A787B08BD9015196ED92FD920D93F8
:1043D0001C935497B4E0C338DB0779F645C081E0FD
:1043E0008093630441C0109263043EC0A8E8B4E027
:1043F000EFE1F5E084E101900D928150E1F734C0E6
:104400008091600482FF1DC000D000D0EDB7FEB7E0
:1044100031968DEA95E0ADB7BEB712969C938E9318
:10442000119788EA93E093838283358324830E94E3
:104430000105EDB7FEB736960FB6F894FEBF0FBE76
:10444000EDBF8091810590918205A0918305B09187
:1044500084050196A11DB11D8093C1069093C206EB
:10446000A093C306B093C4068091470581FFD1C1D4
:104470009091840480918304981709F0F1C1E09130
:104480008404F0E0EE0FFF1FE558FB4F0190F08130
:10449000E02DE655FF4F8081882309F0E1C120918E
:1044A0004B0530914C052F36310509F401C12037F9
:1044B00031052CF52A36310509F48AC02B36310531
:1044C0006CF42836310509F43FC0293631050CF06B
:1044D00061C02115310509F4F8C067C12C363105DA
:1044E00009F497C12C3631050CF4A1C02D363105E5
:1044F00009F4ABC02E36310509F057C1C4C02038CD
:104500003105ACF42E3731050CF083C1213731056C
:1045100009F47FC1213731050CF4D7C022373105AA
:1045200009F4D6C02437310509F03FC115C12C3834
:10453000310509F41DC12C3831050CF436C12F3872
:1045400031050CF032C165C1809147059091480555
:1045500092FF5FC1E0917A04F0E0EE0FFF1FE85890
:10456000FB4FC080D18060916F0570917005809184
:104570007105909172050E942A2F7B018C01D60152
:1045800050968D919C9151970E94020DF601F182F7
:10459000E0823FC1E0917A04F0E0EE0FFF1FE8589F
:1045A000FB4F0190F081E02D0088F189E02D83A17F
:1045B00094A19093AE068093AD06E091A905F09189
:1045C000AA0583A194A19093B0068093AF0621C160
:1045D0008091470590914805E0917A0492FF19C0B7
:1045E000F0E0EE0FFF1FE858FB4F00811181609152
:1045F0006F057091700580917105909172050E9410
:104600002A2F9B01AC01D80157968C91622F70E044
:104610000BC0F0E0EE0FFF1FE858FB4F0190F08158
:10462000E02D87896FEF70E00E94C727F2C0E0910C
:104630007A04F0E0EE0FFF1FE858FB4F0190F08185
:10464000E02D878960E070E0EFCFE0917A04F0E040
:10465000EE0FFF1FE858FB4FC080D18060916F05BF
:104660007091700580917105909172050E942A2FBA
:104670007B018C01F601808991890E94020DD6018F
:10468000ED92FC9269C08091470587FFC2C080917E
:104690007D0590917E05A0917F05B0918005809366
:1046A000810590938205A0938305B0938405B1C0E2
:1046B00060916F0570917005809171059091720500
:1046C0000E942F2F60936004A4C00E94DB11A1C040
:1046D0008091880490918904A0918A04B0918B0400
:1046E0008093B1069093B206A093B306B093B4063C
:1046F00080918C0490918D04A0918E04B0918F04D0
:104700008093B5069093B606A093B706B093B8060B
:104710008091900490919104A0919204B09193049F
:104720008093B9069093BA06A093BB06B093BC06DB
:104730008091940490919504A0919604B09197046F
:104740008093BD069093BE06A093BF06B093C006AB
:1047500081E08093C6065DC0E0917A04F0E0EE0F40
:10476000FF1FE858FB4F808191810E94990E51C034
:10477000809147059091480592FF4BC060916F056D
:104780007091700580917105909172050E942A2F99
:104790007B018C018091A9059091AA050E94020DD0
:1047A000F0929E05E0929D0534C08091600482FFE6
:1047B0001DC000D000D0EDB7FEB731968DEA95E070
:1047C000ADB7BEB712969C938E93119788EB93E08A
:1047D00093838283358324830E940105EDB7FEB75E
:1047E00036960FB6F894FEBF0FBEEDBF80918105DF
:1047F00090918205A0918305B09184050196A11D39
:10480000B11D8093C1069093C206A093C306B093D6
:10481000C406809147059091480596FF2FC090915E
:10482000840480918304981711F5E0918404F0E0EA
:10483000EE0FFF1FE558FB4F0190F081E02DE6558C
:10484000FF4F8081882399F480914D050E94F609DD
:1048500015C061E070E080E090E00E94D826CBCCEB
:1048600061E070E080E090E00E94D82601CE61E037
:1048700070E080E090E00E94D826D1CFDF91CF9108
:104880001F910F91FF90EF90DF90CF90BF90AF906E
:104890009F908F907F906F905F904F9008950F93AF
:1048A0001F9380E280935F040AE011E027C0009329
:1048B0005F0490915F049032CCF09B3311F09832FA
:1048C00019F410931E0504C0993211F410921E05BC
:1048D00080911E05882351F480911D05E82FF0E09A
:1048E000E356FB4F90838F5F80931D0580911D05DC
:1048F00087FF04C010921D0510921E0586ED9BE0F7
:104900000E94D12A882309F431C180915F048A3042
:1049100009F42CC186ED9BE00E94FC2A80935F0481
:104920000E94CB1180915F048D3019F6C0CF809129
:104930005F048A3009F01FC1F0E0E356FB4F10829C
:104940008091600480FF1FC000D000D0EDB7FEB79B
:1049500031968DEA95E0ADB7BEB712969C938E93D3
:10496000119788EC93E0938382838DE994E095839B
:1049700084830E9401058DB79EB706960FB6F89402
:104980009EBF0FBE8DBF60911D058DE994E070E064
:104990000E94351E10921D0510921E051091600494
:1049A0008091C506882391F086ED9BE061ED73E070
:1049B0000E944D2C8DEA95E061E00E94E50C86EDA9
:1049C0009BE00E94472D0E94DB11D5C08091C1065B
:1049D0009091C206A091C306B091C406B7FF07C06C
:1049E00086ED9BE064ED73E00E944D2C14C086EDD3
:1049F0009BE067ED73E00E944D2C4091C106509101
:104A0000C2066091C3067091C40686ED9BE02AE061
:104A100030E00E94FE2C8091AD069091AE06855D3F
:104A20009E4F84F086ED9BE06BED73E00E944D2C71
:104A30006091AD067091AE0686ED9BE04AE050E0D5
:104A40000E94342D8091AF069091B006855D9E4FF7
:104A500084F086ED9BE06FED73E00E944D2C609139
:104A6000AF067091B00686ED9BE04AE050E00E94F0
:104A7000342D8091C606882309F450C086ED9BE052
:104A800063EE73E00E944D2C4091B1065091B20646
:104A90006091B3067091B40686ED9BE022E030E0B1
:104AA0000E94EA2D86ED9BE06AEE73E00E944D2C99
:104AB0004091B5065091B6066091B7067091B80660
:104AC00086ED9BE022E030E00E94EA2D86ED9BE03F
:104AD0006EEE73E00E944D2C4091B9065091BA06DB
:104AE0006091BB067091BC0686ED9BE022E030E051
:104AF0000E94EA2D86ED9BE062EF73E00E944D2C50
:104B00004091BD065091BE066091BF067091C006EF
:104B100086ED9BE022E030E00E94EA2D612F70E0FC
:104B20007695679561708DEA95E00E94E50C86EDBB
:104B30009BE00E94472D84ED9EEF9093AE068093FC
:104B4000AD069093B0068093AF061092AD058FEF3F
:104B50009FEFAFEFBFEF8093C1069093C206A09383
:104B6000C306B093C4061092C60605C0E0911D05A9
:104B7000EE2309F0DCCE1F910F91089510929C0452
:104B80000E94180F0E944F240895AF92BF92CF92B7
:104B9000DF92EF92FF920F931F93CF93DF931092C8
:104BA0009C0480916F008D7F80936F000E941F098D
:104BB000109287041092860484E061E00E94A2288B
:104BC000109285048FEF9FEFAFEFBFEF80938105C9
:104BD00090938205A0938305B093840585E895E0C2
:104BE000909379048093780410927A04109283044D
:104BF0001092840487EC96E090937C0480937B046D
:104C000082E797E090937E0480937D048DE198E0A5
:104C10009093800480937F0488EC98E090938204C2
:104C200080938104CBE7D4E061E022E93EEB4FE9D9
:104C300052E40F2EF0E0AF2EF0E4BF2EF5E0CF2EC1
:104C4000F4E4DF2EF02D0F2EF0E0EF2EF0E0FF2E3B
:104C5000F0E80F2FFFE31F2FF02DE991F99160830A
:104C6000218332834383548325833683478350874C
:104C7000A186B286C386D48680918D0590918E05DB
:104C8000A0918F05B091900585879687A787B08BF7
:104C9000E18AF28A038B148B84E0C338D807E9F6E3
:104CA00010921D0510921E0586ED9BE040E051EE2E
:104CB00060E070E00E94742A86ED9BE066EF73E08E
:104CC0000E944D2C86ED9BE06DEF73E00E944D2C11
:104CD00086ED9BE00E94472D68EE73E080E090E057
:104CE0000E949D0980916F00826080936F00DF9128
:104CF000CF911F910F91FF90EF90DF90CF90BF90D9
:104D0000AF9008951F920F920FB60F9211242F9318
:104D10003F938F939F93AF93BF938091C1099091DD
:104D2000C209A091C309B091C4093091C509019687
:104D3000A11DB11D232F2D5F2D3720F02D5701967A
:104D4000A11DB11D2093C5098093C1099093C2098B
:104D5000A093C309B093C4098091BD099091BE0985
:104D6000A091BF09B091C0090196A11DB11D80930A
:104D7000BD099093BE09A093BF09B093C009BF912C
:104D8000AF919F918F913F912F910F900FBE0F90F8
:104D90001F9018958FB7F8942091C1093091C209DE
:104DA0004091C3095091C4098FBFB901CA01089548
:104DB0009B01AC017FB7F8948091BD099091BE0929
:104DC000A091BF09B091C00966B5A89B05C06F3F0F
:104DD00019F00196A11DB11D7FBFBA2FA92F982FE1
:104DE0008827860F911DA11DB11D62E0880F991FB4
:104DF000AA1FBB1F6A95D1F7BC012DC0FFB7F8945D
:104E00008091BD099091BE09A091BF09B091C009E0
:104E1000E6B5A89B05C0EF3F19F00196A11DB11D95
:104E2000FFBFBA2FA92F982F88278E0F911DA11D84
:104E3000B11DE2E0880F991FAA1FBB1FEA95D1F7A9
:104E4000861B970B885E9340C8F22150304040404B
:104E5000504068517C4F211531054105510571F6CF
:104E60000895789484B5826084BD84B5816084BDE2
:104E700085B5826085BD85B5816085BDEEE6F0E0D3
:104E8000808181608083E1E8F0E01082808182602F
:104E90008083808181608083E0E8F0E080818160B0
:104EA0008083E1EBF0E0808184608083E0EBF0E0E0
:104EB000808181608083E1E9F0E08081826080838D
:104EC000808181608083E0E9F0E08081816080837F
:104ED000E1EAF0E08081826080838081816080836C
:104EE000E0EAF0E0808181608083E1E2F1E08081AE
:104EF00082608083808181608083E0E2F1E0808154
:104F000081608083EAE7F0E0808184608083808133
:104F100082608083808181608083808180688083DB
:104F20001092C1000895382F863308F0365320912F
:104F30007B00832F86958695869590E08170907092
:104F400043E0880F991F4A95E1F7277F282B20938C
:104F50007B003770809164048295880F880F807C75
:104F6000832B80937C0080917A00806480937A0008
:104F700080917A0086FDFCCF2091780040917900E5
:104F8000942F80E030E0282B392BC90108951F931E
:104F9000CF93DF93182FEB0161E00E94A2282097A6
:104FA00009F4C5C0CF3FD10509F4C4C0E12FF0E03A
:104FB000E254FE4F8491893009F466C08A30B0F41F
:104FC0008430F1F1853040F4823059F1833070F54E
:104FD000813009F0A9C020C0873009F443C088306F
:104FE00008F048C0863009F09FC034C08D3009F405
:104FF00073C08E3038F48B3009F45AC08C3008F00E
:1050000061C04CC08F3009F47BC08F3008F46EC093
:10501000803109F089C07EC084B5806884BDC7BD79
:105020008DC084B5806284BDC8BD88C08091800079
:10503000806880938000D0938900C09388007EC0F0
:1050400080918000806280938000D0938B00C09319
:105050008A0074C08091B00080688093B000C093D3
:10506000B3006CC08091B00080628093B000C093A8
:10507000B40064C080919000806880939000D093C9
:105080009900C09398005AC08091900080628093EC
:105090009000D0939B00C0939A0050C080919000E4
:1050A000886080939000D0939D00C0939C0046C080
:1050B0008091A00080688093A000D093A900C09345
:1050C000A8003CC08091A00080628093A000D09393
:1050D000AB00C093AA0032C08091A000886080938A
:1050E000A000D093AD00C093AC0028C080912001F7
:1050F000806880932001D0932901C09328011EC0AD
:1051000080912001806280932001D0932B01C09375
:105110002A0114C080912001886080932001D093DF
:105120002D01C0932C010AC0C038D1051CF4812F79
:1051300060E002C0812F61E00E943B29DF91CF91A6
:105140001F910895482F50E0CA0188589E4FFC01D6
:1051500024914E5C5E4FFA0184918823C1F0E82FC0
:10516000F0E0EE0FFF1FEC51FF4FA591B4916623C5
:1051700041F49FB7F8948C91209582238C939FBF24
:1051800008959FB7F8948C91822B8C939FBF0895BC
:10519000893009F448C08A30A0F4843049F1853060
:1051A00040F4823071F18330F8F4813009F062C04C
:1051B00025C0873071F1883090F5863009F05AC0EB
:1051C00024C08D3009F441C08E3028F48B30A9F111
:1051D0008C30B8F52CC08F3009F441C08F30D8F135
:1051E000803109F047C041C0809180008F7703C0B3
:1051F000809180008F7D80938000089584B58F77A3
:1052000002C084B58F7D84BD08958091B0008F77F2
:1052100003C08091B0008F7D8093B000089580918D
:1052200090008F7707C0809190008F7D03C08091A0
:105230009000877F8093900008958091A0008F77E1
:1052400007C08091A0008F7D03C08091A000877F60
:105250008093A0000895809120018F7703C08091F2
:1052600020018F7D80932001089580912001877F08
:10527000809320010895FF920F931F93F62E482FDD
:1052800050E0CA0182549E4FFC012491CA01885803
:105290009E4FFC0114914E5C5E4FFA010491002375
:1052A000D9F0222319F0822F0E94C828E02FF0E0C5
:1052B000EE0FFF1FE250FF4FA591B491FF2031F494
:1052C0009FB7F8948C911095812304C09FB7F894F0
:1052D0008C91812B8C939FBF1F910F91FF9008950C
:1052E0000F931F93482F50E0CA0182549E4FFC0138
:1052F0002491CA0188589E4FFC0104914E5C5E4F78
:10530000FA011491112319F420E030E015C0222392
:1053100019F0822F0E94C828812F90E0880F991FD2
:10532000885E9E4FFC01A591B4918C9120E030E005
:10533000802311F021E030E0C9011F910F91089501
:105340001F920F920FB60F920BB60F9211242F934C
:105350003F934F938F939F93EF93FF934091C6009A
:10536000E091460AF091470A31969F012F773070FD
:1053700031978091480A9091490A2817390739F0E6
:10538000EA53F64F40833093470A2093460AFF9131
:10539000EF919F918F914F913F912F910F900BBE65
:1053A0000F900FBE0F901F9018951F920F920FB67F
:1053B0000F920BB60F9211242F933F934F938F931D
:1053C0009F93EF93FF934091CE00E091CA0AF09132
:1053D000CB0A31969F012F77307031978091CC0A9C
:1053E0009091CD0A2817390739F0E65BF54F4083D5
:1053F0003093CB0A2093CA0AFF91EF919F918F912E
:105400004F913F912F910F900BBE0F900FBE0F90B9
:105410001F9018951F920F920FB60F920BB60F9216
:1054200011242F933F934F938F939F93EF93FF9369
:105430004091D600E0914E0BF0914F0B31969F01B9
:105440002F77307031978091500B9091510B281726
:10545000390739F0E253F54F408330934F0B2093D7
:105460004E0BFF91EF919F918F914F913F912F9113
:105470000F900BBE0F900FBE0F901F9018951F92AC
:105480000F920FB60F920BB60F9211242F933F93EA
:105490004F938F939F93EF93FF9340913601E09149
:1054A000D20BF091D30B31969F012F77307031974B
:1054B0008091D40B9091D50B2817390739F0EE5A0B
:1054C000F44F40833093D30B2093D20BFF91EF9195
:1054D0009F918F914F913F912F910F900BBE0F9005
:1054E0000FBE0F901F901895CF93DF93EC019A0198
:1054F000AB01E885F985203081EE380780E0480768
:1055000080E0580709F449C081E090E00A8802C0B1
:10551000880F991F0A94E2F7808360E079E08DE3B9
:1055200090E00E942D312150304040405040CA014F
:10553000B90122E030E040E050E00E942D31EC81E2
:10554000FD813083EE81FF812083EA85FB85208108
:1055500041E050E0CA010E8402C0880F991F0A94EE
:10556000E2F7282B2083EA85FB852081CA010F847E
:1055700002C0880F991F0A94E2F7282B2083EA853E
:10558000FB858081088802C0440F551F0A94E2F70A
:10559000842B8083DF91CF910895108220E130E049
:1055A000CECFDC011296ED91FC911397E058FF4F9E
:1055B0002191319180819181281B390B2F77307097
:1055C000C9010895DC011296ED91FC911397EE57F5
:1055D000FF4F2081318192918291E058F0408217F3
:1055E000930719F42FEF3FEF05C0E20FF31F8081FF
:1055F000282F30E0C9010895DC011296ED91FC914D
:105600001397DF01AE57BF4F2D913C911197E05892
:10561000FF4F80819181E058F0408217930719F481
:105620002FEF3FEF0BC0E20FF31F80812F5F3F4F43
:105630002F7730702D933C93282F30E0C9010895C7
:10564000DC011296ED91FC911397EE57FF4F80818C
:105650009181929382930895FC01A085B18521895F
:105660008C9190E0022E02C0959587950A94E2F7FE
:1056700080FFF6CF0484F585E02D6083089529E648
:1056800034E03093D70B2093D60B86EC99E09093BF
:10569000D90B8093D80B85EC90E09093DB0B809333
:1056A000DA0B84EC90E09093DD0B8093DC0B80ECC4
:1056B00090E09093DF0B8093DE0B81EC90E0909371
:1056C000E10B8093E00B86EC90E09093E30B8093EA
:1056D000E20BE4E0E093E40B73E07093E50B67E02A
:1056E0006093E60B55E05093E70B41E04093E80BE5
:1056F0003093EA0B2093E90B8AE49AE09093EC0B49
:105700008093EB0B8DEC90E09093EE0B8093ED0B80
:105710008CEC90E09093F00B8093EF0B88EC90E092
:105720009093F20B8093F10B89EC90E09093F40B43
:105730008093F30B8EEC90E09093F60B8093F50B37
:10574000E093F70B7093F80B6093F90B5093FA0BFF
:105750004093FB0B3093FD0B2093FC0B8EEC9AE0F7
:105760009093FF0B8093FE0B85ED90E09093010CDE
:105770008093000C84ED90E09093030C8093020CD6
:1057800080ED90E09093050C8093040C81ED90E007
:105790009093070C8093060C86ED90E09093090C93
:1057A0008093080CE0930A0C70930B0C60930C0C24
:1057B00050930D0C40930E0C3093100C20930F0C53
:1057C00082E59BE09093120C8093110C85E391E0AD
:1057D0009093140C8093130C84E391E09093160C37
:1057E0008093150C80E391E09093180C8093170C34
:1057F00081E391E090931A0C8093190C86E391E079
:1058000090931C0C80931B0CE0931D0C70931E0C4A
:1058100060931F0C5093200C4093210C08950E941C
:1058200031270E94C5250E94BE25FDCF0F931F93EF
:10583000CF93DF938C01EB0109C02196D801ED9144
:10584000FC910190F081E02DC801199568816623D3
:10585000A1F7DF91CF911F910F910895EF92FF92E1
:105860000F931F93CF93DF938C017B01EA010CC050
:10587000D7016D917D01D801ED91FC910190F081EE
:10588000E02DC80119952197209791F7DF91CF91CD
:105890001F910F91FF90EF900895DC01ED91FC9125
:1058A0000280F381E02D199508952F923F924F9237
:1058B0005F926F927F928F929F92AF92BF92CF92A0
:1058C000DF92EF92FF920F931F93DF93CF93CDB7A9
:1058D000DEB7A0970FB6F894DEBF0FBECDBF1C0198
:1058E0006A017B01411551056105710549F440E3E9
:1058F00050E060E070E020E030E00E94FE2C56C0F6
:10590000882499245401422E55246624772401E0EA
:1059100010E00C0F1D1F080D191DC701B601A301D2
:1059200092010E940B31F80160830894811C911C44
:10593000A11CB11CC701B601A30192010E940B3149
:10594000C901DA016C017D01C114D104E104F10443
:10595000F1F681E0E82EF12CEC0EFD1EE80CF91CAE
:105960003E010894611C711CD501C4010197A10975
:10597000B1096C01C818D90816C0F601EE0DFF1D5B
:1059800040814A3010F4405D01C0495C552747FD15
:105990005095652F752FC10120E030E00E94FE2C4C
:1059A0000894E108F1086E147F0439F7A0960FB649
:1059B000F894DEBF0FBECDBFCF91DF911F910F9145
:1059C000FF90EF90DF90CF90BF90AF909F908F901F
:1059D0007F906F905F904F903F902F900895DC01E3
:1059E0002115310541F4ED91FC910190F081E02DFC
:1059F000642F199508950E94552C0895EF92FF92F7
:105A00000F931F93CF93DF93EC017A018B01211544
:105A1000310541F4E881F9810190F081E02D642F96
:105A200019951BC02A303105B1F477FF10C04DE243
:105A300050E060E070E020E030E00E94FE2C109525
:105A40000095F094E094E11CF11C011D111DCE01A4
:105A5000B801A7012AE00E94552CDF91CF911F9138
:105A60000F91FF90EF900895EF92FF920F931F9385
:105A70007B019A010027F7FC0095102FB801A701C0
:105A80000E94FE2C1F910F91FF90EF9008950F93AD
:105A90001F938C014DE050E060E070E020E030E0CA
:105AA0000E94FE2CC8014AE050E060E070E020E077
:105AB00030E00E94FE2C1F910F9108959F92AF92AB
:105AC000BF92CF92DF92EF92FF920F931F93CF93EB
:105AD000DF93EC017A018B01922ECB01BA0120E019
