:100000000C9422010C944C010C944C010C944C0166
:100010000C944C010C944C010C944C010C944C012C
:100020000C944C010C944C010C944C010C944C011C
:100030000C944C010C944C010C944C010C944C010C
:100040000C944C010C94D60F0C944C010C944C0164
:100050000C944C010C944C010C944C010C94BD1F5D
:100060000C944C010C94DE240C944C010C944C0127
:100070000C944C010C944C010C944C010C944C01CC
:100080000C944C010C944C010C944C010C944C01BC
:100090000C941F250C944C010C944C010C944C01B5
:1000A0000C944C010C944C010C944C010C944C019C
:1000B0000C944C010C944C010C944C010C944C018C
:1000C0000C944C010C944C010C944C010C94602544
:1000D0000C944C010C944C010C94A1250C944C01F3
:1000E0000C944C0100002100240027002A002D0060
:1000F0003000330001010000040107010A01000083
:100100002200250028002B002E00310034000201BF
:100110000000050108010B0100002000230026005B
:1001200029002C002F00320000010000030106010D
:10013000090105050505070508080808020202026D
:100140000A0A080804040404010101010101010173
:100150000303030303030303040707070C0C0C0C3E
:100160000C0C0C0C02020202060606060606060627
:100170000B0B0B0B0B0B0B0B0102102020080810B4
:100180002040102040800201020108040201010207
:1001900004081020408080402010080402018004E0
:1001A000020180402010080402010804020101023B
:1001B0000408102040800102040810204080000044
:1001C000090A02080B0C0D070603040100000000D9
:1001D000000000000000000000000000000000001F
:1001E00000000000000000000000100F0E000000E2
:1001F00000000000000000000000000000000000FF
:1002000000000000494E46494E4954594E414ECDDA
:10021000CCCC3D0AD7233C17B7D13877CC2B3295BD
:1002200095E6241FB14F0A000020410000C842009B
:10023000401C4620BCBE4CCA1B0E5AAEC59D740065
:100240008B0A502711241FBECFEFD1E2DEBFCDBFF6
:1002500014E0A0E0B2E0E6E7F1E600E00BBF02C088
:1002600007900D92A83CB107D9F71CE0A8ECB4E0C8
:1002700001C01D92AB36B107E1F712E0C4E4D2E051
:1002800004C02297FE010E94172BC034D107C9F782
:100290000E94D7240C94B9300C9400002F923F9206
:1002A0004F925F926F927F928F929F92AF92BF9286
:1002B000CF92DF92EF92FF920F931F93DF93CF9332
:1002C000CDB7DEB72E970FB6F894DEBF0FBECDBF09
:1002D0009E878D878B017A01FB016081718182810C
:1002E0009381FA0120813181428153810E94D82972
:1002F0005B016C01F8016481758186819781F7014A
:1003000024813581468157810E94D8293B014C01C7
:10031000F8016085718582859385F7012085318597
:10032000428553850E94D8291B012C01F801648560
:10033000758586859785F70124853585468557859A
:100340000E94D82969877A878B879C87F801608902
:10035000718982899389F70120893189428953897A
:100360000E94D8297B018C01C601B50120E030E054
:1003700040E050E00E94D42988234CF0C601B5012A
:1003800020E030E040E05FE30E94212808C0C60181
:10039000B50120E030E040E05FE30E9420280E94A9
:1003A000F12869837A838B839C83C401B30120E0A5
:1003B00030E040E050E00E94D42988234CF0C40192
:1003C000B30120E030E040E05FE30E94212808C054
:1003D000C401B30120E030E040E05FE30E94202848
:1003E0000E94F1286D837E838F839887C201B101BB
:1003F00020E030E040E050E00E94D42988234CF017
:10040000C201B10120E030E040E05FE30E9421281A
:1004100008C0C201B10120E030E040E05FE30E948B
:1004200020280E94F1283B014C0169857A858B8543
:100430009C8520E030E040E050E00E94D4298823F1
:100440005CF069857A858B859C8520E030E040E012
:100450005FE30E9421280AC069857A858B859C8587
:1004600020E030E040E05FE30E9420280E94F12875
:100470005B016C01C801B70120E030E040E050E0D2
:100480000E94D42988234CF0C801B70120E030E055
:1004900040E05FE30E94212808C0C801B70120E0C6
:1004A00030E040E05FE30E9420280E94F12829818B
:1004B0003A814B815C81ED85FE85208331834283C7
:1004C00053832D813E814F81588524833583468314
:1004D00057836086718682869386A486B586C68693
:1004E000D786608B718B828B938BCF012E960FB644
:1004F000F894DEBF0FBECDBFCF91DF911F910F915A
:10050000FF90EF90DF90CF90BF90AF909F908F9033
:100510007F906F905F904F903F902F900895882329
:1005200021F4809181008B7F29C0813049F4809132
:1005300081008B7F8093810080918100826015C053
:10054000823049F4809181008B7F8093810080917B
:100550008100826018C0833071F4809181008460D2
:1005600080938100809181008D7F809381008091B4
:1005700081008E7F0DC08091810084608093810016
:10058000809181008D7F80938100809181008160C6
:10059000809381000895E0E8F0E01082A1E8B0E0E7
:1005A0001C921092820010926F008C918F7E8C931F
:1005B0008C9188608C9380818D7F808380818E7FF9
:1005C000808380818F77808380818F7B808380810F
:1005D0008F7D808380818F7E808384E00E948F0264
:1005E0008FEF9FEF90938900809388000895FC011E
:1005F00080819181A281B381803020E0920721E047
:10060000A20720E0B2070CF441C0893F2FEF920708
:1006100027E0A20720E0B20744F453E0B595A79580
:10062000979587955A95D1F731C0813C2FEF920766
:100630002FE3A20720E0B20744F446E0B595A79562
:10064000979587954A95D1F721C081302FEF920772
:100650002FEFA20720E0B2073CF4892F9A2FAB2F8F
:10066000BB27A7FDBA9512C081302CEF92072FEF60
:10067000A20723E0B2071CF0EFEFFFEF08C02AE06B
:10068000B595A795979587952A95D1F7FC01CF0148
:100690000895EF92FF920F931F93DF93CF9300D0B3
:1006A00000D0CDB7DEB77B018C0164E0EE0CFF1CFF
:1006B000001F111F6A95D1F7E982FA820B831C8310
:1006C000CE0101960E94F7029093890080938800E2
:1006D00080E0E81680E0F80681E0080780E018076F
:1006E00014F480E022C089EFE8168FEFF80687E067
:1006F000080780E0180714F481E017C081ECE816C1
:100700008FEFF8068FE3080780E0180714F482E003
:100710000CC081E0E8168FEFF8068FEF080780E045
:10072000180714F084E001C083E00E948F020F904C
:100730000F900F900F90CF91DF911F910F91FF902D
:10074000EF9008952F923F924F925F926F927F9217
:100750008F929F92AF92BF92CF92DF92EF92FF92D1
:100760000F931F93DF93CF9300D00F92CDB7DEB7D7
:10077000882309F08AC08091CA04882309F485C0BF
:100780001092CA04E091CB04F091CC04808189835B
:100790002090C8043090C9040BEC14E00F2EF1E255
:1007A0004F2EF8E95F2EFDEF6F2EF4E47F2EF02D33
:1007B0000F2EF0E08F2EF0E09F2EF0E8AF2EFFE33B
:1007C000BF2EF02D0F2EF2E9CF2EFEEBDF2EFFE92C
:1007D000EF2EF2E4FF2EF02DD8010D90BC91A02D4C
:1007E000BB83AA83E981EC93EE23F9F01196CD92B5
:1007F000DD92ED92FC921497FD01C582D682E782CC
:10080000F08680E090E0A0EAB4E481879287A38735
:10081000B487F10180859185A285B385EA81FB814A
:1008200085879687A787B08B25C0EA81FB814182A7
:10083000528263827482458256826782708680E02B
:1008400090E0AEEFB6E481879287A387B487D101A9
:1008500018966D917D918D919C911B9723E333E3C5
:100860004BEC51E40E94D829EA81FB8165877687A9
:100870008787908B818A928AA38AB48A0E5F1F4FE2
:10088000B4E0033D1B0709F0A7CF0F900F900F9026
:10089000CF91DF911F910F91FF90EF90DF90CF905C
:1008A000BF90AF909F908F907F906F905F904F9090
:1008B0003F902F900895AF92BF92CF92DF92EF9228
:1008C000FF920F931F93DF93CF9300D0CDB7DEB786
:1008D0008C017B016A015901BE016F5F7F4F4AE0C5
:1008E00050E00E94892C29813A81201B310B12167D
:1008F00013066CF4F7016083718382839383F6019E
:10090000808191818A299B299183808305C0F70189
:100910001082118212821382C9010F900F90CF9121
:10092000DF911F910F91FF90EF90DF90CF90BF90DC
:10093000AF900895AF92BF92CF92DF92EF92FF9265
:100940000F931F93DF93CF9300D0CDB7DEB78C0109
:100950007B016A015901BE016F5F7F4F4AE050E0A1
:100960000E94892C29813A81201B310B1216130613
:100970005CF4F70171836083F601808191818A299B
:100980009B299183808303C0F70111821082C901E2
:100990000F900F90CF91DF911F910F91FF90EF90EB
:1009A000DF90CF90BF90AF900895AF92BF92CF925B
:1009B000DF92EF92FF920F931F93DF93CF9300D0BC
:1009C000CDB7DEB78C017B016A015901BE016F5FB3
:1009D0007F4F0E941B2B29813A81201B310B12165D
:1009E00013066CF4F7016083718382839383F601AD
:1009F000808191818A299B299183808309C080E02D
:100A000090E0A0E0B0E0F70180839183A283B383FC
:100A1000C9010F900F90CF91DF911F910F91FF901F
:100A2000EF90DF90CF90BF90AF9008952F923F92BC
:100A30004F925F926F927F928F929F92AF92BF92EE
:100A4000CF92DF92EF92FF920F931F93DF93CF939A
:100A5000CDB7DEB768970FB6F894DEBF0FBECDBF37
:100A60008B015E8B4D8BFC01119211926F017C0109
:100A70009C012C5F3F4F3C8B2B8BFC013696FA8BF5
:100A8000E98B9C01285D3F4F388B2F87FC013896FE
:100A9000FE87ED879C01245F3F4F3C872B87FC013D
:100AA0007096FA87E9879C012C5E3F4F38872F8329
:100AB000FC017C96FE83ED839C01205E3F4F3C83CE
:100AC0002B83FC01B496FA83E9836CE2262E312C49
:100AD000280E391E50E3452E512C480E591E48E170
:100AE000642E712C680E791E36E3832E912C880EAD
:100AF000991E24E3A22EB12CA80EB91E188E1F8AAF
:100B0000EDC0EF89F88DE00FF11FE081E03509F4C9
:100B10005DC0E135DCF4E93409F484C0EA3474F4EE
:100B2000E63409F495C0E73434F4EA3209F4C4C079
:100B3000E53409F5A9C0E734F1F420C0ED3441F102
:100B4000EE3409F4ADC0EA34B1F477C0E43559F1BC
:100B5000E5354CF4E23509F486C08F89988D01960D
:100B6000E33564F58AC0E93509F446C0EA3509F48D
:100B70004EC0E835B1F180E090E0A9C08F89988D32
:100B80000196800F911FB601A70121E030E09DC0C2
:100B90008F89988D0196800F911F6B897C89A701A1
:100BA00022E030E092C08F89988D0196800F911FCE
:100BB00069897A89A70120E030E487C0800F911FFE
:100BC0006F857889A70120E034E067C08F89988D10
:100BD0000196800F911F6D857E85A70124E030E08E
:100BE0005CC08F89988D0196800F911F6B857C85E5
:100BF000A70128E030E051C08F89988D0196800FC1
:100C0000911F69857A85A70120E130E046C08F8970
:100C1000988D0196800F911F6F817885A70120E242
:100C200030E03BC08F89988D0196800F911F6D81B8
:100C30007E81A70120E430E030C08F89988D019635
:100C4000800F911F6B817C81A70120E030E825C0D7
:100C50008F89988D0196800F911F69817A81A701F4
:100C600020E032E01AC08F89988D0196800F911F85
:100C7000B101A70120E030E110C0800F911FB20147
:100C8000A70120E038E009C08F89988D0196800F78
:100C9000911FB301A70120E030E20E94D50417C0E4
:100CA0008F89988D0196800F911FB401A70120E8CC
:100CB00030E00E945B040BC08F89988D0196800FF5
:100CC000911FB501A70120E031E00E949A0401962E
:100CD0002F89388D280F391F388F2F8B8F89988D4A
:100CE000ED89FE898E179F070CF40BCF68960FB61F
:100CF000F894DEBF0FBECDBFCF91DF911F910F9152
:100D0000FF90EF90DF90CF90BF90AF909F908F902B
:100D10007F906F905F904F903F902F900895CF936A
:100D2000DF93EC01662371F08881882359F08DE10F
:100D30009CE060E072E00E9437238DE19CE0BE0100
:100D40000E943723DF91CF910895FC01858D60E0EB
:100D500070E00E94012108950F931F938C010E945F
:100D60000520F801618372838383948380E090E09F
:100D7000A0E0B0E081879287A387B48785879687B4
:100D8000A787B08B1F910F9108950F931F938C012C
:100D9000FC01848595850E94AC06F80111821082C1
:100DA000848595850E94A5061F910F910895CF9285
:100DB000DF92EF92FF920F931F93CF93DF936C011B
:100DC0007B01FC01868D0E94CD208C01F601868D71
:100DD0000E94CD20080F191FF601868D0E94CD209C
:100DE000800F911F63E070E00E94B12ADB01E701F0
:100DF0002496E1E068817981A617B70724F5F0E031
:100E00003197EE0FFF1FEE0FFF1FEE0DFF1D40810C
:100E1000518122813381A41BB50B8A819B81821B66
:100E2000930B641B750BAC01A49FC001A59F900D93
:100E3000B49F900D11240E94B12A260F371FF6018E
:100E400030A3278F0EC0EF5F2496EE3199F644E76A
:100E500050E0E40EF51EF70182819381F60190A324
:100E6000878FDF91CF911F910F91FF90EF90DF90CF
:100E7000CF9008956F927F928F929F92AF92BF9280
:100E8000CF92DF92EF92FF920F931F93CF93DF9356
:100E9000EC016B018881882321F0CE0168EE73E0BC
:100EA00003C0CE0168E374E00E94D7060E940520CB
:100EB0007B018C016D837E838F83988789819A81E2
:100EC000AB81BC81A8019701281B390B4A0B5B0B36
:100ED000CA01B9010E9422292FE632E143E85AE310
:100EE0000E94D8293B014C01E982FA820B831C83C2
:100EF00020E030E040E050E00E94852818160CF019
:100F000068C08F8D98A1C81AD90AB601882777FDC5
:100F10008095982F0E9424297B018C01A4019301C4
:100F20000E94D8299B01AC016D857E858F859889AB
:100F30000E9421285B016C016D877E878F87988BCB
:100F4000C801B70129853A854B855C850E94202818
:100F5000A40193010E9489283B014C01E986FA868D
:100F60000B871C87C801B70129893A894B895C899D
:100F70000E94D8297B018C01C601B5012D893E89CB
:100F80004F89588D0E94D8299B01AC01C801B70137
:100F90000E9421287B018C01C401B301298D3A8D67
:100FA0004B8D5C8D0E94D8299B01AC01C801B70113
:100FB0000E9421280E94F1286F3F710519F014F05A
:100FC0006FEF70E077FF02C060E070E08D8D0E94EF
:100FD0000121DF91CF911F910F91FF90EF90DF9052
:100FE000CF90BF90AF909F908F907F906F9008951B
:100FF000FC0160817181808991890E943A0708957E
:10100000FC0114861586168617860E94F807089537
:10101000FC0184859585A685B7850196A11DB11D26
:1010200084879587A687B787815D9740A040B040A9
:101030001CF0CF010E9400080895FC0160817181BD
:10104000848595850E943A070895FC0110861186D3
:10105000128613860E941D080895FC0180859185E3
:10106000A285B3850196A11DB11D80879187A287B6
:10107000B387815D9740A040B0401CF0CF010E9433
:10108000250808958091C8049091C9040E94080819
:101090008CEE95E00E942D080895CF93DF93EC012C
:1010A0006D8F4E8F88818823A9F080E090E0A0E0CA
:1010B000B0E4898B9A8BAB8BBC8B89E29CE5AFE863
:1010C000BDE38D8B9E8BAF8BB88F80E090E0A0E866
:1010D000BFE314C080E090E0A0E0B0E4898B9A8B7D
:1010E000AB8BBC8B8AE999E9A9E1BEE38D8B9E8B22
:1010F000AF8BB88F80E090E0A0E0BFE3898F9A8F3C
:10110000AB8FBC8F18A21F8ECE010E94AC068D8DB6
:1011100061E00E94BD218E8D60E00E94BD21DF91C3
:10112000CF9108950F931F938C01862FF801668746
:101130004787108611861286138622EC39E03587A0
:10114000248761E00E94BD21F801878560E00E944C
:10115000BD21F801868560E070E00E940121F80160
:1011600011821082848595850E94AC06F801118257
:1011700010821F910F910895FC01868960E00E9402
:10118000E32108950F931F938C01FC0180899189BD
:101190000E94AC06F80111821082808991890E9418
:1011A000A506F801868961E00E94E3211F910F9155
:1011B00008958F929F92AF92BF92CF92DF92EF925B
:1011C0000F934C01862FF401628B438B268B048B8B
:1011D000E58AA086B186C286D386148615861686D1
:1011E000178623EE39E0318B208B61E00E94BD2110
:1011F000F401838961E00E94BD21F401868961E0E8
:101200000E94BD21F401848961E00E94BD21F401A6
:10121000858960E00E94BD21F401838961E00E941C
:10122000E321F401828960E00E94E321F4018489D2
:1012300060E070E00E940121F40111821082808937
:1012400091890E94AC06F401118210820F91EF90F7
:10125000DF90CF90BF90AF909F908F90089583E2E2
:1012600061E00E94E3210895FC01E655FF4F1082E2
:1012700033971082E75AF040CF010E942F0908955A
:10128000CF93DF93EC01C759DF4F88819981AA8101
:10129000BB81C956D0400097A105B10521F08BE173
:1012A00060E00E94E321C359DF4F88819981AA81C0
:1012B000BB81CD56D0400097A105B10521F08DE14D
:1012C00060E00E94E321CF58DF4F88819981AA8195
:1012D000BB81C157D0400097A105B10521F083E241
:1012E00060E00E94E321CB58DF4F88819981AA8179
:1012F000BB810097A105B10559F0E091CA04F0E067
:10130000EE0FFF1FE853FB4F808191810E94BC08C4
:10131000DF91CF9108951F93CF93DF93EC01C955CF
:10132000DF4F8881C75AD040882379F5CB56DF4FED
:10133000699111E0612787E10E94E321699181E2CF
:101340000E94E3216991612787E20E94E32168817D
:10135000C859D040E091CA04F0E0EE0FFF1FE853F7
:10136000FB4F0190F081E02D83890E94E321CE01A3
:101370000E94400968EE73E080E090E00E9449031B
:10138000C655DF4F1883FE011293DF91CF911F9155
:101390000895FF920F931F938C0106551F4FF8017C
:1013A000108203501040F801108202511040FF24B7
:1013B000F394F801F192F192F192F1928F01F0829F
:1013C0000959104080E090E0A0E0B0E0F801858B82
:1013D000968BA78BB08F818F928FA38FB48F858FC1
:1013E000968FA78FB0A381A392A3A3A3B4A380E0F9
:1013F00090E0A6E9B4E485A396A3A7A3B0A789E1EA
:1014000061E00E94BD2187E161E00E94BD218FE182
:1014100061E00E94BD2181E261E00E94BD2185E280
:1014200061E00E94BD2187E261E00E94BD218BE165
:1014300061E00E94BD218DE161E00E94BD2183E257
:1014400061E00E94BD21C8010E942F098CE060E08C
:101450000E94BD218BE060E00E94BD2189E060E038
:101460000E94BD218CE061E00E94E3218BE061E0FD
:101470000E94E32189E061E00E94E3218CE060E0CA
:101480000E94BD218AE060E00E94BD2188E060E00A
:101490000E94BD218CE061E00E94E3218AE061E0CE
:1014A0000E94E32188E061E00E94E321F801F082DC
:1014B00082E99EEBAFE9B2E481839283A383B48394
:1014C00085839683A783B08780E090E0A0EAB4E4A8
:1014D00081879287A387B487E091CA04F0E0EE0F7A
:1014E000FF1FE853FB4F0190F081E02D808591852F
:1014F000A285B385F80185879687A787B08B80E0A2
:1015000090E0A0E8BFE3818B928BA38BB48B1F91FB
:101510000F91FF900895AF92BF92CF92DF92EF921A
:101520000F9385ED95E06BE24DE229E202E039E0B0
:10153000E32E0F2EF0E0AF2EF0E0BF2EF0E6CF2E20
:10154000F1E4DF2EF02D0E94D9088CEE95E064E0E6
:101550004BE00E9492081092140784ED9EEF909346
:10156000FD068093FC069093FF068093FE06109282
:10157000FC058FEF9FEFAFEFBFEF809310079093C5
:101580001107A0931207B09313071092150786E175
:1015900097E00E94C90981EC97E00E94C9098CE696
:1015A00098E00E94C90987E199E00E94C90982EC8C
:1015B00099E064E04BE021E00E944D0883EE99E061
:1015C00062E049E020E00E944D080F91EF90DF902B
:1015D000CF90BF90AF9008958091D50491E0892776
:1015E0008093D504882319F080E061E002C080E098
:1015F00060E00E94E3210895CF93DF93F8948091F7
:10160000D3048093D404CBECD4E0899199910E94C7
:10161000340984E0C33DD807C1F78BE161E00E9443
:10162000E3218DE161E00E94E32183E261E00E9419
:10163000E3218091C8049091C9040E94C2088CEEF5
:1016400095E00E94C50680E060E00E94E321FFCFA4
:10165000EF92FF920F931F93CF93DF93EC011B82C6
:101660001A821F821E821D821C82FF24EE24E394B4
:10167000E889F9892E813F81878D90A1280F391F34
:101680003F832E838A819B8101969B838A83069761
:101690005CF1C90165E070E00E94B12A7F836E832E
:1016A0008881998105976817790734F08AE08F154A
:1016B00068F1F394EE2414C0EE2091F08C819D81AA
:1016C000861797071CF47D836C830AC08CEF95E026
:1016D00062E072E00E94D82D81E08093140716C06A
:1016E0001F821E821B821A8200E010E0CE010E943F
:1016F000080861E070E080E090E00E9413200F5F36
:101700001F4F83E0083E180789F7B2CFDF91CF91D2
:101710001F910F91FF90EF9008952F923F924F925B
:101720005F926F927F928F929F92AF92BF92CF9271
:10173000DF92EF92FF920F931F93DF93CF93CDB77A
:10174000DEB7AC970FB6F894DEBF0FBECDBF86559F
:101750009F4FDC018C91AA5AB040BCA7ABA788234D
:1017600009F40BC4AB56BF4FBA83A983EBA5FCA504
:10177000EB5AFF4FFC83EB832BA53CA52F5B3F4F20
:101780003E832D838BA59CA586569F4F98878F837C
:10179000ABA5BCA5AA56BF4FBA87A987EBA5FCA5E8
:1017A000E75AFF4FFC87EB872BA53CA52B5B3F4FF0
:1017B0003E872D878BA59CA585569F4F988B8F873D
:1017C000ABA5BCA5A956BF4FBA8BA98BEBA5FCA5B1
:1017D000E35AFF4FFC8BEB8B2BA53CA5275B3F4FC0
:1017E0003E8B2D8B8BA59CA584569F4F988F8F8BFE
:1017F000ABA5BCA5A856BF4FBA8FA98FEBA5FCA57A
:10180000EF59FF4FFC8FEB8FADE42A2E312C2BA527
:101810003CA5220E331E23563F4F3E8F2D8F8BA5A6
:101820009CA587569F4F98A38F8FABA5BCA5AB599E
:10183000BF4FBAA3A9A3F1E54F2E512CEBA5FCA5F0
:101840004E0E5F1EE256FF4FFCA3EBA3E8EA6E2E9E
:10185000712C2BA53CA5620E731E27593F4F3EA34A
:101860002DA38BA59CA583589F4F98A78FA37FE995
:10187000872E912CABA5BCA58A0E9B1EA359BF4FEA
:10188000BAA7A9A7E981FA816081AB81BC812D91BA
:101890003D914D915C91ED81FE8180819181A2818C
:1018A000B381281739074A075B0731F08CE00E94A3
:1018B0007422892B09F04FC380E0AF81B8858C93E7
:1018C000E985FA856081AB85BC852D913D914D916F
:1018D0005C91ED85FE8580819181A281B38128177D
:1018E00039074A075B0751F0662311F48BE001C00A
:1018F0008AE00E947422892B09F02FC380E0AF8513
:10190000B8898C93E989FA896081AB89BC892D916A
:101910003D914D915C91ED89FE8980819181A281FB
:10192000B381281739074A075B0751F0662311F482
:1019300089E001C088E00E947422892B09F00FC35E
:1019400080E0AF89B88D8C93E98DFA8D808160E05D
:10195000AB8DBC8D2D913D914D915C91F1018081BC
:101960009181A281B381281739074A075B0709F0E3
:1019700061E0AD8DBE8D6C93EF8DF8A1808160E04C
:10198000A9A1BAA12D913D914D915C91F201808167
:101990009181A281B381281739074A075B0709F0B3
:1019A00061E0ABA1BCA16C93F3011082AF81B8855B
:1019B0008C91882309F453C0EDA1FEA1808191810F
:1019C000A281B381EFA1F8A52081318142815381A9
:1019D000820F931FA41FB51F80839183A283B383BB
:1019E000181619061A061B06D4F589E161E00E9453
:1019F000E32189E160E00E94E32181E0D3018C933F
:101A0000F4012081318142815381EFA1F8A58081C9
:101A10009181A281B381821B930BA40BB50B8083B0
:101A20009183A283B383A981BA818C91882351F0D9
:101A3000ED81FE8180819181A281B3810196A11DFA
:101A4000B11D09C0ED81FE8180819181A281B381A8
:101A50000197A109B10980839183A283B383AF85E4
:101A6000B8898C91882309F455C00BA51CA50F5784
:101A70001F4FE9A5FAA580819181A281B381F80168
:101A80002081318142815381820F931FA41FB51F92
:101A900080839183A283B383181619061A061B0646
:101AA000CCF58FE161E00E94E3218FE160E00E94CC
:101AB000E32181E0D3018C93F401208131814281C3
:101AC0005381F80180819181A281B381821B930BA4
:101AD000A40BB50B80839183A283B383A985BA85B8
:101AE0008C91882351F0ED85FE8580819181A281C2
:101AF000B3810196A11DB11D09C0ED85FE858081D0
:101B00009181A281B3810197A109B1098083918359
:101B1000A283B383AF89B88D8C91882309F45BC00D
:101B20000BA51CA50B571F4FEBA5FCA5EF58FF4FAE
:101B300080819181A281B381E157F040FCA7EBA79E
:101B4000F8012081318142815381820F931FA41FAC
:101B5000B51F80839183A283B383181619061A06D2
:101B60001B06CCF585E261E00E94E32185E260E09E
:101B70000E94E32181E0D3018C93F4012081318123
:101B800042815381F80180819181A281B381821BBE
:101B9000930BA40BB50B80839183A283B383A98994
:101BA000BA898C91882351F0ED89FE8980819181D9
:101BB000A281B3810196A11DB11D09C0ED89FE89E5
:101BC00080819181A281B3810197A109B1098083AC
:101BD0009183A283B383AD8DBE8D8C91882309F44C
:101BE00067C069E8E62EF12CEBA5FCA5EE0EFF1E02
:101BF000EB58FF4F80819181A281B381E557F0407E
:101C0000FCA7EBA7F7012081318142815381820F2C
:101C1000931FA41FB51F80839183A283B3831816DB
:101C200019061A061B060CF043C0E091CA04F0E046
:101C3000EE0FFF1FE853FB4F00811181D801529630
:101C40008C9161E00E94E321F801828960E00E94AA
:101C5000E32181E0D3018C93F40120813181428121
:101C60005381F70180819181A281B381821B930B03
:101C7000A40BB50B80839183A283B383A98DBA8D06
:101C80008C91882349F0F10180819181A281B381F7
:101C90000196A11DB11D08C0F10180819181A28131
:101CA000B3810197A109B10980839183A283B38392
:101CB000ABA1BCA18C91882309F45FC0EBA5FCA566
:101CC000E357FF4F2BA53CA527583F4FD9012D9136
:101CD0003D914D915C911397A957B040BCA7ABA71C
:101CE00080819181A281B381280F391F4A1F5B1F18
:101CF000208331834283538312161306140615067C
:101D00009CF5D401ED90FD900D911C912E193F0989
:101D1000400B510B2083318342835383EF8DF8A115
:101D20008081882349F0F20180819181A281B38171
:101D30000196A11DB11D08C0F20180819181A2818F
:101D4000B3810197A109B10980839183A283B383F1
:101D50002BA53CA527553F4F81E0D9018C93A95A6B
:101D6000B040BCA7ABA709C0EBA5FCA5E755FF4F4A
:101D70001082E95AF040FCA7EBA7D3018C9188238D
:101D800009F49AC0EBA5FCA5E755FF4F8081E95AFD
:101D9000F040FCA7EBA7882309F48EC0EF56FF4F55
:101DA000FCA7EBA7D2016D917D918D919C91208133
:101DB0003181428153810E94922AEBA5FCA5729643
:101DC000DF016083718382839383A35AB040BCA7F1
:101DD000ABA70E9424297B018C01EBA5FCA5FD96F5
:101DE000608171818281938120EC31EE44E65CE474
:101DF0000E94D8295B016C01F401608171818281AC
:101E000093810E9424299B01AC01C801B7010E9463
:101E1000D8299B01AC01C601B5010E94892820E0A8
:101E200030E040E050E00E94D4298823D4F0D4016F
:101E30006D917D918D919C910E9424299B01AC0113
:101E4000C801B7010E94D8299B01AC01C601B501A8
:101E50000E94892820E030E040E05FE30E942128D2
:101E600019C0F40160817181828193810E942429CB
:101E70009B01AC01C801B7010E94D8299B01AC01AC
:101E8000C601B5010E94892820E030E040E05FE310
:101E90000E9420280E94F1282BA53CA52D553F4FDC
:101EA000D9016D937D938D939C931397A35AB04062
:101EB000BCA7ABA70E944903EBA5FCA5E755FF4FC4
:101EC0001082E95AF040FCA7EBA7D3018C9188233C
:101ED00009F047C0EBA1FCA18081882309F441C02F
:101EE000D1CC2BA53CA525563F4FD9018C91AB59A0
:101EF000B040BCA7ABA78823D1F4A456BF4F8C91A8
:101F0000AC59B040BCA7ABA7882389F4A356BF4FF8
:101F10008C91AD59B040BCA7ABA7882341F4A25621
:101F2000BF4F8C91AE59B040BCA7ABA701C081E0B8
:101F3000EBA5FCA5E655FF4F808380818823E9F45B
:101F40008BA59CA50E942F0968EE73E080E090E0CD
:101F50000E94490312C081E0B0CC81E0D0CC81E086
:101F6000F0CCEBA5FCA5E656FF4F8081EA59F04086
:101F7000FCA7EBA78823D9F6B4CFAC960FB6F8949C
:101F8000DEBF0FBECDBFCF91DF911F910F91FF90AC
:101F9000EF90DF90CF90BF90AF909F908F907F9009
:101FA0006F905F904F903F902F9008951F920F92E7
:101FB0000FB60F920BB60F9211241F932F933F93DE
:101FC0004F935F936F937F938F939F93AF93BF9341
:101FD000EF93FF938091EC04882309F05DC081E0CA
:101FE0008093EC0478948091D6049091D704019664
:101FF0009093D7048093D6048058924031F40E9485
:10200000EC0A1092D7041092D604E091D404F0E0C8
:10201000EE0FFF1FE553FB4F0190F081E02DE655D9
:10202000FF4F8081882361F0E091D404F0E0EE0F4F
:10203000FF1FE553FB4F808191810E948D0B22C0D1
:102040009091D4048091D3049817F9F4E091D404CA
:10205000F0E0EE0FFF1FE553FB4F0190F081E02D04
:10206000E655FF4F8081882381F40CC0E12FF0E01A
:10207000EE0FFF1FE553FB4F808191810E948B097A
:102080001093D4041092EC0407C01091D4041F5F85
:10209000143060F310E0EACFFF91EF91BF91AF9160
:1020A0009F918F917F916F915F914F913F912F9170
:1020B0001F910F900BBE0F900FBE0F901F901895A1
:1020C0002F923F924F925F926F927F928F929F9248
:1020D000AF92BF92CF92DF92EF92FF920F931F9336
:1020E000DF93CF93CDB7DEB7A4970FB6F894DEBFDA
:1020F0000FBECDBF2C016BA37CA3DC015596FB0169
:1021000084E101900D928150E1F727EA30E0420E20
:10211000531ED2011C92E9E5FFEF4E0E5F1ED20165
:1021200055966D917D918D919C9158972091D804F1
:102130003091D9044091DA045091DB040E942028A8
:102140005B016C01E894D7F8F201618D728D838D8B
:10215000948D2091DC043091DD044091DE04509197
:10216000DF040E9420287B018C01E89417F9D2013A
:102170005D966D917D918D919C9190972091E00459
:102180003091E1044091E2045091E3040E94202840
:102190003B014C01E89497F8F20161A172A183A17F
:1021A00094A12091E4043091E5044091E60450911B
:1021B000E7040E9420289B01AC015F77298F3A8FAA
:1021C0004B8F5C8FD20195966D917D918D919C91F5
:1021D00098972091E8043091E9044091EA045091E5
:1021E000EB040E9420289B01AC015F772D8F3E8F6E
:1021F0004F8F58A3D201D9962D933D934D935C9365
:10220000DC97298D3A8D4B8D5C8DD5962D933D9322
:102210004D935C93D897F20161AA72AA83AA94AAFB
:102220009D96ED92FD920D931C93D097A1A6B2A618
:10223000C3A6D4A6C601B501A60195010E94D8295E
:102240005B016C01C801B701A80197010E94D82960
:102250009B01AC01C601B5010E9421287B018C01C4
:10226000C401B301A40193010E94D8299B01AC01D0
:10227000C801B7010E9421288201035C1F4FD801C9
:102280006D937D938D939C93139727E137EB41EDED
:1022900058E30E94852888236CF4698D7A8D8B8D94
:1022A0009C8D9B01AC010E94D829F8016083718349
:1022B000828393838201035C1F4FD8016D917D91CE
:1022C0008D919C9127E137EB41ED58E30E948528E1
:1022D00088236CF46D8D7E8D8F8D98A19B01AC0150
:1022E0000E94D829F80160837183828393838201DD
:1022F000035C1F4FD8016D917D918D919C910E943F
:102300003F2AF8016083718382839383720108946A
:10231000E11CF11C21E430E0420E531E8E010F5FE0
:102320001F4FC801B70148ED54E00E944E01D20191
:102330004FEB5FEF440E551EF80184E101900D92C2
:102340008150E1F785E190E0480E591E8E010F5F44
:102350001F4FC801B701A2010E944E01A0E4B0E0E6
:102360004A0E5B1ED201EBEAFFEF4E0E5F1EF80134
:1023700084E101900D928150E1F7F201EB5AFF4F99
:1023800021E430E0420E531E608071808280938091
:10239000F20180819181A281B3812FEB3FEF420E48
:1023A000531E681A790A8A0A9B0A97FE08C09094FD
:1023B000809470946094611C711C811C911CF201CA
:1023C000E75AFF4F45E450E0440E551EE080F1808F
:1023D00002811381F20180819181A281B3812BEB73
:1023E0003FEF420E531EE81AF90A0A0B1B0B17FFA8
:1023F00008C010950095F094E094E11CF11C011DBB
:10240000111DF201E35AFF4F49E450E0440E551EFE
:1024100080819181A281B3818D8B9E8BAF8BB88F90
:10242000F20180819181A281B38127EB3FEF420EBF
:10243000531E2D893E894F89588D281B390B4A0B15
:102440005B0B2D8B3E8B4F8B588F57FF0BC05095DE
:102450004095309521953F4F4F4F5F4F2D8B3E8BD1
:102460004F8B588FF201EF59FF4F4DE450E0440E6F
:10247000551EA080B180C280D380F20180819181FD
:10248000A281B38123EB3FEF420E531EA81AB90A73
:10249000CA0ADB0AD7FE08C0D094C094B094A094B6
:1024A000A11CB11CC11CD11CB20167587F4FF201A5
:1024B000EB59FF4F41E550E0440E551E208131811C
:1024C00042815381F20180819181A281B381EFEA3F
:1024D000FFEF4E0E5F1E281B390B4A0B5B0B57FF9D
:1024E00007C050954095309521953F4F4F4F5F4F16
:1024F000DB012D933D934D935C931397E5E7F0E05B
:102500004E0E5F1ED201AD92BD92CD92DC9213971A
:102510002D893E894F89588D5E934E933E932E931D
:10252000FD0112930293F292E292DF019E928E924B
:102530007E926E922D01E7E9FFEF4E0E5F1ED401F1
:10254000C3016E147F048006910614F4D801C701FC
:10255000F201E156FF4F80839183A283B383E08031
:10256000F1800281138121E730E0420E531ED20137
:102570002D913D914D915C918FE89FEF480E591E32
:102580002E153F054007510724F4208131814281F7
:102590005381F201E156FF4F2083318342835383FD
:1025A000E080F18002811381A5E7B0E04A0E5B1E56
:1025B000D2012D913D914D915C918BE89FEF480E9A
:1025C000591E2E153F054007510724F42081318103
:1025D000428153816FE9E62EF12CE40CF51CD70102
:1025E0002D933D934D935C9313978D919D910D90F9
:1025F000BC91A02D0097A105B10599F4E7EAF0E0A0
:102600004E0E5F1E81E0D2018C93A8EDB4E02BA1A9
:102610003CA1C901FC0184E101900D928150E1F7D8
:102620008AC125E6222E312C240C351CF101608054
:1026300071808280938092012F5A3F4F3AA329A341
:10264000D9016D927D928D929C921397E9E7F0E00B
:102650004E0E5F1ED2011D921D921D921C92139769
:10266000E7E8FFEF4E0E5F1E82010F561F4F21E07D
:1026700030E040E050E0D8012D933D934D935C93C2
:102680001397F70180819181A281B381B7FF6DC05B
:10269000208131814281538160E070E080E090E0F0
:1026A0000E94E62A59016A01D801AD92BD92CD92ED
:1026B000DC921397B3E0AB16B104C104D1040CF45F
:1026C00045C0C401B301A60195010E94E62AF101AB
:1026D0002083318342835383C401B301A601950152
:1026E0000E94E62AC901DA01E9A1FAA18083918357
:1026F000A283B383281B390B4A0B5B0B57FF07C020
:1027000050954095309521953F4F4F4F5F4F89E74A
:1027100090E0480E591ED2012D933D934D935C934A
:102720001397E7E8FFEF4E0E5F1EF201E156FF4FF1
:1027300080819181A281B38182179307A407B50795
:10274000A4F420833183428353830FC021E030E01F
:1027500040E050E0D8012D933D934D935C93139747
:10276000F701108211821282138210E0D201559675
:102770006D917D918D919C9158972091D8043091C5
:10278000D9044091DA045091DB040E94D4298823B3
:102790000CF011E0E5E9F0E04E0E5F1ED2011C9353
:1027A000EBE6FFEF4E0E5F1E10E0D20159966D91E1
:1027B0007D918D919C915C972091DC043091DD049A
:1027C0004091DE045091DF040E94D42988230CF04C
:1027D00011E0E6E9F0E04E0E5F1ED2011C93EAE63E
:1027E000FFEF4E0E5F1E10E0D2015D966D917D9160
:1027F0008D919C9190972091E0043091E10440915B
:10280000E2045091E3040E94D42988230CF011E0E3
:10281000E7E9F0E04E0E5F1ED2011C93E9E6FFEF00
:102820004E0E5F1E10E0D20191966D917D918D91BB
:102830009C9194972091E4043091E5044091E60442
:102840005091E7040E94D42988230CF011E0E8E9B4
:10285000F0E04E0E5F1ED2011C93E8E6FFEF4E0E35
:102860005F1E10E0D20195966D917D918D919C91A6
:1028700098972091E8043091E9044091EA0450913E
:10288000EB040E94D42988230CF011E0E9E9F0E080
:102890004E0E5F1ED2011C93E6E0F0E04E0E5F1E6E
:1028A000D2016D917D918D919C91E1E6FFEF4E0EED
:1028B0005F1E22E030E040E050E00E94E62A5095A2
:1028C0004095309521953F4F4F4F5F4FD201A35810
:1028D000BF4F2C9311963C93119712964C931297DD
:1028E00013965C931397F201EF57FF4F20833183C8
:1028F0004283538325E830E0420E531E8D919D9113
:102900000D90BC91A02DF20181939193A193B1936D
:1029100081939193A193B19380839183A283B38395
:10292000A8EDB4E02BA13CA1C901FC0184E1019018
:102930000D928150E1F7A4960FB6F894DEBF0FBE5A
:10294000CDBFCF91DF911F910F91FF90EF90DF905E
:10295000CF90BF90AF909F908F907F906F905F903F
:102960004F903F902F9008951F93CF93DF93EC01EA
:1029700006C061E070E080E090E00E94132080914A
:10298000D404882329F48091D304833059F4F1CFFF
:102990002091D3048091D40430E090E0019728176F
:1029A000390739F31091D3041F5F143008F010E099
:1029B000E12FF0E0EE0FFF1FE553FB4F8081918187
:1029C000BE010E9460101093D304DF91CF911F913C
:1029D0000895CF93DF93EC019B01A3E8B5E0E8ED08
:1029E000F4E084E101900D928150E1F788819981B2
:1029F000AA81BB8180938B0590938C05A0938D0554
:102A0000B0938E05F90180819181A281B381809379
:102A1000930590939405A0939505B093960583E84C
:102A200095E00E94B414DF91CF9108958F929F9208
:102A3000AF92BF92CF92DF92EF92FF920F931F93CC
:102A4000DF93CF93CDB7DEB7A0970FB6F894DEBF74
:102A50000FBECDBF0F2EF0E0AF2EF0E0BF2EF4E39F
:102A6000CF2EF2E4DF2EF02DA092E804B092E9041C
:102A7000C092EA04D092EB04E0EE8E2EE4E09E2EAB
:102A8000F401608171818281938120E030E040E037
:102A90005FE30E94202869837A838B839C830F2EB7
:102AA000F0E0EF2EF0E0FF2EF6E90F2FF2E41F2FFB
:102AB000F02DED82FE820F831887CE010196BE01B4
:102AC0006B5F7F4F0E94E914F40160817181828104
:102AD000938120E030E04AE753E40E942028698790
:102AE0007A878B879C87ED86FE860F87188BCE01B1
:102AF0000996BE01635F7F4F0E94E9140F2EF0E03C
:102B0000EF2EF0E0FF2EF0E00F2FF0E01F2FF02D62
:102B1000F401E082F18202831383A092E804B09270
:102B2000E904C092EA04D092EB0480E090E0A0E8CF
:102B3000BFE3898B9A8BAB8BBC8BAD8ABE8ACF8A65
:102B4000D88ECE014196BE016B5E7F4F0E94E91484
:102B5000F401608171818281938120E030E040E066
:102B600050E40E942028698F7A8F8B8F9C8FAD8EC6
:102B7000BE8ECF8ED8A2CE014996BE01635E7F4F36
:102B80000E94E914F401E082F18202831383A0968B
:102B90000FB6F894DEBF0FBECDBFCF91DF911F916E
:102BA0000F91FF90EF90DF90CF90BF90AF909F90EC
:102BB0008F900895CF93DF93EC019B01A3E8B5E0DC
:102BC000E8EDF4E084E101900D928150E1F7888115
:102BD0009981AA81BB818093870590938805A093F2
:102BE0008905B0938A05F90180819181A281B38121
:102BF0008093930590939405A0939505B0939605C3
:102C000083E895E00E94B414DF91CF910895AF92CC
:102C1000BF92CF92DF92EF92FF920F931F93DF93B9
:102C2000CF93CDB7DEB7A0970FB6F894DEBF0FBE37
:102C3000CDBF6091DC047091DD048091DE04909141
:102C4000DF0420E030E040EA50E40E94202869835D
:102C50007A838B839C830F2EF0E0EF2EF0E0FF2E23
:102C6000FAE70F2FF5E41F2FF02DED82FE820F8380
:102C70001887CE010196BE016B5F7F4F0E94DA1567
:102C80006091DC047091DD048091DE049091DF049A
:102C900020E030E04AE753E40E94202869877A87E1
:102CA0008B879C87ED86FE860F87188BCE01099651
:102CB000BE01635F7F4F0E94DA150F2EF0E0AF2E4A
:102CC000F0E0BF2EF0E0CF2EF0E0DF2EF02DA0924E
:102CD000DC04B092DD04C092DE04D092DF040F2E3B
:102CE000F0E0EF2EF0E0FF2EF6E90F2FF4E41F2FB7
:102CF000F02DE092E804F092E9040093EA041093C6
:102D0000EB0480E090E0A0E8BFE3898B9A8BAB8B6B
:102D1000BC8BED8AFE8A0F8B188FCE014196BE01C7
:102D20006B5E7F4F0E94DA156091DC047091DD04C8
:102D30008091DE049091DF0420E030E040E251E435
:102D40000E942028698F7A8F8B8F9C8FED8EFE8E4C
:102D50000F8F18A3CE014996BE01635E7F4F0E947C
:102D6000DA15A092DC04B092DD04C092DE04D092A9
:102D7000DF04A0960FB6F894DEBF0FBECDBFCF9193
:102D8000DF911F910F91FF90EF90DF90CF90BF9058
:102D9000AF900895CF93DF93EC019B01A3E8B5E0DA
:102DA000E8EDF4E084E101900D928150E1F7888133
:102DB0009981AA81BB818093830590938405A09318
:102DC0008505B0938605F90180819181A281B38147
:102DD0008093930590939405A0939505B0939605E1
:102DE00083E895E00E94B414DF91CF9108958F920B
:102DF0009F92AF92BF92CF92DF92EF92FF920F938A
:102E00001F93DF93CF93CDB7DEB7A0970FB6F8949B
:102E1000DEBF0FBECDBF0F2EF0E0AF2EF0E0BF2E15
:102E2000F6E9CF2EF4E4DF2EF02DA092E804B09264
:102E3000E904C092EA04D092EB04F8ED8F2EF4E09E
:102E40009F2EF401608171818281938120E030E0C6
:102E500040EA50E40E94202869837A838B839C8314
:102E60000F2EF0E0EF2EF0E0FF2EFAE70F2FF5E443
:102E70001F2FF02DED82FE820F831887CE01019661
:102E8000BE016B5F7F4F0E94CA16F40160817181A1
:102E90008281938120E030E04AE753E40E942028B9
:102EA00069877A878B879C87ED86FE860F87188BCC
:102EB000CE010996BE01635F7F4F0E94CA160F2E96
:102EC000F0E0EF2EF0E0FF2EF0E00F2FF0E01F2FEC
:102ED000F02DF401E082F18202831383A092E804D2
:102EE000B092E904C092EA04D092EB0480E090E052
:102EF000A0E8BFE3898B9A8BAB8BBC8BAD8ABE8A73
:102F0000CF8AD88ECE014196BE016B5E7F4F0E9464
:102F1000CA16F401608171818281938120E030E0E2
:102F200040E251E40E942028698F7A8F8B8F9C8F1A
:102F3000AD8EBE8ECF8ED8A2CE014996BE01635E05
:102F40007F4F0E94CA16F401E082F182028313834C
:102F5000A0960FB6F894DEBF0FBECDBFCF91DF9124
:102F60001F910F91FF90EF90DF90CF90BF90AF90A7
:102F70009F908F9008954F925F926F927F928F9261
:102F80009F92AF92BF92CF92DF92EF92FF920F93F8
:102F90001F93CF93DF93EC01AB0188818F3209F44B
:102FA000ADC580E090E0A0E0B0E080936F05909325
:102FB0007005A0937105B09372058093730590938B
:102FC0007405A0937505B09376058093770590936B
:102FD0007805A0937905B0937A0580937B0590934B
:102FE0007C05A0937D05B0937E0580937F0590932B
:102FF0008005A0938105B093820587E995E0BE0125
:103000000E9416056091970570919805CB01880F75
:10301000892F881F990B91958170972F917070FD62
:1030200003C0882309F405C1981709F44DC08091A5
:10303000B10482FFDAC02CEF35E0992319F18DB786
:103040009EB708970FB6F8949EBF0FBE8DBFEDB721
:10305000FEB73196ADB7BEB712963C932E9311973B
:1030600089E592E0938382838091CB059091CC0592
:1030700095838483D783C6830E94DF2DEDB7FEB787
:103080003896AEC08DB79EB70A970FB6F8949EBF1C
:103090000FBE8DBFEDB7FEB73196ADB7BEB7129676
:1030A0003C932E93119785EA92E0938382838091DB
:1030B000CD059091CE05A091CF05B091D005848328
:1030C0009583A683B78336C0992309F4B2C090E0F4
:1030D00080E002C09E278F5FFE01E80FF11DE081B6
:1030E000EA32C1F72091CB053091CC05492F50E051
:1030F0002417350739F18091B10482FF76C08DB76E
:103100009EB70A970FB6F8949EBF0FBE8DBFEDB75E
:10311000FEB731968CEF95E0ADB7BEB712969C9393
:103120008E93119783EF92E0938382833583248378
:1031300057834683D187C0870E94DF2DEDB7FEB746
:103140003A964EC061FF08C080919B0590919C0506
:103150008E36910509F45DC0E090CD05F090CE0566
:103160000091CF051091D0052091D1053091D20565
:103170004091D3055091D4052F5F3F4F4F4F5F4F84
:10318000E216F3060407150709F443C08091B10461
:1031900082FF2BC08DB79EB70E970FB6F8949EBFD7
:1031A0000FBE8DBFEDB7FEB731968CEF95E0ADB792
:1031B000BEB712969C938E9311978CE493E0938301
:1031C0008283E482F58206831783208731874287D2
:1031D0005387D587C4870E94DF2DEDB7FEB73E9693
:1031E0000FB6F894FEBF0FBEEDBF8091D105909150
:1031F000D205A091D305B091D4050196A11DB11DB2
:103200008093100790931107A0931207B0931307B0
:1032100075C48091CD059091CE05A091CF05B09158
:10322000D0058093D1059093D205A093D305B09398
:10323000D405CB0183709074892B91F461157105CD
:1032400079F08091B2049091B30497FD09C09093F6
:103250009A0580939905616070939805609397052E
:103260008091970581FF09C080919B0590919C05F5
:103270008037910511F40E94FC0AC0919705D09106
:103280009805C0FF78C28091990590919A05909316
:10329000B3048093B204AFE6B5E0E8EDF4E084E176
:1032A00001900D928150E1F78091B4049E01287045
:1032B0003070882309F449C0232B81F08091A30545
:1032C0009091A405A091A505B091A60580936F05E6
:1032D00090937005A0937105B0937205C4FF10C060
:1032E0008091A7059091A805A091A905B091AA0584
:1032F0008093730590937405A0937505B09376053C
:10330000C5FF10C08091AB059091AC05A091AD05B3
:10331000B091AE058093770590937805A0937905D9
:10332000B0937A05D5FF81C08091AF059091B0052B
:10333000A091B105B091B20580937B0590937C0577
:10334000A0937D05B0937E0570C0232BD1F06091D2
:103350006F057091700580917105909172052091B3
:10336000A3053091A4054091A5055091A6050E94A2
:10337000212860936F057093700580937105909379
:103380007205C4FF1AC06091730570917405809135
:103390007505909176052091A7053091A80540917B
:1033A000A9055091AA050E94212860937305709386
:1033B00074058093750590937605C5FF1AC06091DA
:1033C0007705709178058091790590917A05209123
:1033D000AB053091AC054091AD055091AE050E9412
:1033E00021286093770570937805809379059093F1
:1033F0007A05D5FF1AC060917B0570917C0580919C
:103400007D0590917E052091AF053091B0054091EA
:10341000B1055091B2050E94212860937B057093FD
:103420007C0580937D0590937E05D1FF10C080912F
:10343000BB059091BC05A091BD05B091BE058093E0
:103440007F0590938005A0938105B09382058091BC
:10345000990590919A058130910539F18C3191054A
:1034600049F1892B09F04DC0E0907F05F09080056F
:10347000009181051091820580E090E0AAE7B5E413
:1034800080937F0590938005A0938105B09382057A
:103490008FE695E00E94B414E0927F05F0928005DB
:1034A000009381051093820529C38FE695E00E9461
:1034B000B41424C3C3FD02C090E003C00E94F716F9
:1034C00091E08091970584FF03C00E94071691E068
:1034D0008091970585FD06C0992331F40E94F71667
:1034E0000E9407160E94161580E090E0A6E9B4E459
:1034F0008093E8049093E904A093EA04B093EB046A
:10350000FDC29091D4048091D304981709F0E1C2D0
:10351000E091D404F0E0EE0FFF1FE553FB4F019064
:10352000F081E02DE655FF4F8081882309F0D1C25C
:103530002091990530919A052531310509F487C00C
:103540002631310544F42430310591F02431310520
:1035500009F0DCC024C02B35310509F4CAC02C3574
:10356000310509F4C9C02A35310509F0CFC0BDC005
:1035700060919F057091A0058091A1059091A20591
:1035800020E030E040E05FE30E9421280E94F12823
:10359000882777FD8095982F0E941320ECC0CBECF4
:1035A000D4E00F2EF1E2CF2EF8E9DF2EFDEFEF2E63
:1035B000F4E4FF2EF02D0F2EF0E04F2EF0E05F2E02
:1035C000FEEF6F2EF6E47F2EF02D0F2EF0E08F2E03
:1035D000F0E09F2EF0E8AF2EFFE3BF2EF02D099113
:1035E0001991D8011C92F801C182D282E382F4823F
:1035F0001596CD92DD92ED92FC92189741865286F7
:1036000063867486E091CA04F0E0EE0FFF1FE85372
:10361000FB4F0190F081E02D608571858285938557
:1036200023E333E34BEC51E40E94D829D8011D96E3
:103630006D937D938D939C935097F801818A928A24
:10364000A38AB48AF4E0C33DDF0749F694C0CBEC0B
:10365000D4E09924939442E95EEB6FE972E40F2E73
:10366000F0E0AF2EF0E0BF2EF0EACF2EF4E4DF2E34
:10367000F02D0F2EF0E0EF2EF0E0FF2EF0E80F2FF0
:10368000FFE31F2FF02D29913991D9019C92F90167
:10369000418352836383748315964D935D936D9339
:1036A0007C931897A186B286C386D486E091CA041B
:1036B000F0E0EE0FFF1FE853FB4F0190F081E02D8B
:1036C00080859185A285B385F90185879687A7872F
:1036D000B08BD9015196ED92FD920D931C935497A6
:1036E000B4E0C33DDB0779F646C081E08093B404C3
:1036F00042C01092B4043FC0A8EDB4E0EFE6F5E09C
:1037000084E101900D928150E1F735C08091B104C0
:1037100082FF1EC000D000D000D0EDB7FEB73196BA
:103720008CEF95E0ADB7BEB712969C938E93119730
:1037300082E993E093838283358324830E94DF2D83
:10374000EDB7FEB736960FB6F894FEBF0FBEEDBFCD
:103750008091D1059091D205A091D305B091D40567
:103760000196A11DB11D8093100790931107A0939E
:103770001207B09313078091970581FF8AC190913A
:10378000D4048091D304981709F0AAC1E091D4041D
:10379000F0E0EE0FFF1FE553FB4F0190F081E02DAD
:1037A000E655FF4F8081882309F09AC120919B053F
:1037B00030919C052037310509F4C6C02137310509
:1037C000E4F42D36310584F42A3631050CF061C15C
:1037D0002836310599F1293631050CF055C02115EF
:1037E000310509F4B1C020C12E36310509F48AC073
:1037F0002F3631050CF09BC065C0203831058CF4A4
:103800002E3731050CF045C12237310509F49FC030
:10381000223731050CF43DC12437310509F004C1CC
:10382000DAC02C38310509F4E2C02C3831050CF42B
:10383000FBC02F3831050CF0F7C02BC180919705E4
:103840009091980592FF25C1E091CA04F0E0EE0F37
:10385000FF1FE853FB4FC080D1806091BF0570917E
:10386000C0058091C1059091C2050E94F1287B019D
:103870008C01D60150968D919C9151970E94AC0677
:10388000F601F182E08205C1E091CA04F0E0EE0F9A
:10389000FF1FE853FB4F0190F081E02D0088F18974
:1038A000E02D878D90A19093FD068093FC06E0911A
:1038B000F805F091F905878D90A19093FF0680930C
:1038C000FE06E7C0E091CA04F0E0EE0FFF1FE853E8
:1038D000FB4FC080D1806091BF057091C005809181
:1038E000C1059091C2050E94F1287B018C01D6018F
:1038F00050968D919C9151970E94AC06F601F182F1
:10390000E08269C08091970587FFC3C08091CD0593
:103910009091CE05A091CF05B091D0058093D105AF
:103920009093D205A093D305B093D405B2C0609113
:10393000BF057091C0058091C1059091C2050E949C
:10394000F6286093B104A5C00E94FC0AA2C0809131
:10395000D8049091D904A091DA04B091DB0480934B
:10396000000790930107A0930207B093030780918B
:10397000DC049091DD04A091DE04B091DF0480931B
:10398000040790930507A0930607B093070780915B
:10399000E0049091E104A091E204B091E3048093EB
:1039A000080790930907A0930A07B0930B0780912B
:1039B000E4049091E504A091E604B091E7048093BB
:1039C0000C0790930D07A0930E07B0930F0781E0AB
:1039D000809315075EC0E091CA04F0E0EE0FFF1F70
:1039E000E853FB4F808191810E94280B52C0809147
:1039F00097059091980592FF4CC06091BF0570911A
:103A0000C0058091C1059091C2050E94F1287B01FB
:103A10008C018091F8059091F9050E94AC06F09216
:103A2000ED05E092EC0535C08091B10482FF1EC027
:103A300000D000D000D0EDB7FEB731968CEF95E006
:103A4000ADB7BEB712969C938E93119782EA93E01E
:103A500093838283358324830E94DF2DEDB7FEB7E5
:103A600036960FB6F894FEBF0FBEEDBF8091D1051C
:103A70009091D205A091D305B091D4050196A11DD6
:103A8000B11D8093100790931107A0931207B09374
:103A90001307809197059091980596FF2FC09091FC
:103AA000D4048091D304981711F5E091D404F0E088
:103AB000EE0FFF1FE553FB4F0190F081E02DE6551F
:103AC000FF4F8081882399F480919D050E94A20375
:103AD00015C061E070E080E090E00E94132011CDFD
:103AE00061E070E080E090E00E94132048CE61E049
:103AF00070E080E090E00E941320D1CFDF91CF9161
:103B00001F910F91FF90EF90DF90CF90BF90AF90FB
:103B10009F908F907F906F905F904F9008950F933C
:103B20001F9380E28093B0040AE011E027C0009365
:103B3000B0049091B0049032CCF09B3311F09832E5
:103B400019F410936E0504C0993211F410926E05A9
:103B500080916E05882351F480916D05E82FF0E087
:103B6000E351FB4F90838F5F80936D0580916D05CE
:103B700087FF04C010926D0510926E058DE19CE0E8
:103B80000E94DB26882309F432C18091B0048A3078
:103B900009F42DC18DE19CE00E9409278093B004B7
:103BA0000E94EC0A8091B0048D3019F6C0CF80914C
:103BB000B0048A3009F020C1F0E0E351FB4F1082DD
:103BC0008091B10480FF20C000D000D000D0EDB7BC
:103BD000FEB731968CEF95E0ADB7BEB712969C93C9
:103BE0008E93119782EB93E0938382838DEE94E022
:103BF000958384830E94DF2D8DB79EB706960FB6FE
:103C0000F8949EBF0FBE8DBF60916D058DEE94E060
:103C100070E00E94BB1710926D0510926E05109116
:103C2000B10480911407882391F08DE19CE06BEB47
:103C300073E00E9437238CEF95E061E00E948F06CD
:103C40008DE19CE00E9431240E94FC0AD5C0809145
:103C5000100790911107A0911207B0911307B7FFB9
:103C600007C08DE19CE06EEB73E00E94372314C027
:103C70008DE19CE061EC73E00E94372340911007D6
:103C80005091110760911207709113078DE19CE02C
:103C90002AE030E00E94E8238091FC069091FD0626
:103CA000855D9E4F84F08DE19CE065EC73E00E94A1
:103CB00037236091FC067091FD068DE19CE04AE09F
:103CC00050E00E941E248091FE069091FF06855DC3
:103CD0009E4F84F08DE19CE069EC73E00E943723F5
:103CE0006091FE067091FF068DE19CE04AE050E095
:103CF0000E941E2480911507882309F450C08DE18D
:103D00009CE06DEC73E00E943723409100075091D6
:103D1000010760910207709103078DE19CE022E0AA
:103D200030E00E94D4248DE19CE064ED73E00E94B9
:103D30003723409104075091050760910607709161
:103D400007078DE19CE022E030E00E94D4248DE161
:103D50009CE068ED73E00E94372340910807509182
:103D6000090760910A0770910B078DE19CE022E042
:103D700030E00E94D4248DE19CE06CED73E00E9461
:103D8000372340910C0750910D0760910E077091F9
:103D90000F078DE19CE022E030E00E94D424612FE7
:103DA00070E07695679561708CEF95E00E948F06C4
:103DB0008DE19CE00E94312484ED9EEF9093FD06FE
:103DC0008093FC069093FF068093FE061092FC05FC
:103DD0008FEF9FEFAFEFBFEF809310079093110726
:103DE000A0931207B09313071092150705C0E09136
:103DF0006D05EE2309F0DBCE1F910F91089510920F
:103E0000EC040E9442080E948F1D0895AF92BF9259
:103E1000CF92DF92EF92FF920F931F93CF93DF9396
:103E20001092EC0480916F008D7F80936F000E9450
:103E3000CB021092D7041092D60480E061E00E9479
:103E4000BD211092D5048FEF9FEFAFEFBFEF8093AE
:103E5000D1059093D205A093D305B093D40585EDF9
:103E600095E09093C9048093C8041092CA041092FC
:103E7000D3041092D40486E197E09093CC0480930D
:103E8000CB0481EC97E09093CE048093CD048CE634
:103E900098E09093D0048093CF0487E199E09093C9
:103EA000D2048093D104CBECD4E061E022E93EEB74
:103EB0004FE952E40F2EF0E0AF2EF0E0BF2EF0EA13
:103EC000CF2EF4E4DF2EF02D0F2EF0E0EF2EF0E0F9
:103ED000FF2EF0E80F2FFFE31F2FF02DE991F9914E
:103EE00060832183328343835483258336834783CE
:103EF0005087A186B286C386D4868091DD059091D5
:103F0000DE05A091DF05B091E00585879687A7873C
:103F1000B08BE18AF28A038B148B84E0C33DD8070F
:103F2000E9F610926D0510926E058DE19CE040E07F
:103F300051EE60E070E00E94E2258DE19CE060EED1
:103F400073E00E9437238DE19CE00E94312468EEEB
:103F500073E080E090E00E94490380916F008260EE
:103F600080936F00DF91CF911F910F91FF90EF90A1
:103F7000DF90CF90BF90AF9008951F920F920FB631
:103F80000F9211242F933F938F939F93AF93BF93DF
:103F90008091080A9091090AA0910A0AB0910B0A2F
:103FA00030910C0A0196A11DB11D232F2D5F2D37D5
:103FB00020F02D570196A11DB11D20930C0A80936E
:103FC000080A9093090AA0930A0AB0930B0A8091F9
:103FD000040A9091050AA091060AB091070A019679
:103FE000A11DB11D8093040A9093050AA093060AAF
:103FF000B093070ABF91AF919F918F913F912F91FD
:104000000F900FBE0F901F9018958FB7F8942091C6
:10401000080A3091090A40910A0A50910B0A8FBF91
:10402000B901CA0108959B01AC017FB7F894809152
:10403000040A9091050AA091060AB091070A66B594
:10404000A89B05C06F3F19F00196A11DB11D7FBF50
:10405000BA2FA92F982F8827860F911DA11DB11D5A
:1040600062E0880F991FAA1FBB1F6A95D1F7BC0198
:104070002DC0FFB7F8948091040A9091050AA09191
:10408000060AB091070AE6B5A89B05C0EF3F19F0F4
:104090000196A11DB11DFFBFBA2FA92F982F882708
:1040A0008E0F911DA11DB11DE2E0880F991FAA1F5F
:1040B000BB1FEA95D1F7861B970B885E9340C8F229
:1040C000215030404040504068517C4F211531050F
:1040D0004105510571F60895789484B5826084BDD8
:1040E00084B5816084BD85B5826085BD85B58160FC
:1040F00085BDEEE6F0E0808181608083E1E8F0E05C
:10410000808182608083808181608083E0E8F0E04C
:10411000808181608083E1EBF0E080818460808336
:10412000E0EBF0E0808181608083E1E9F0E0808174
:1041300082608083808181608083E1EAF0E0808119
:1041400082608083808181608083E1E2F1E0808110
:1041500082608083808181608083E0E9F0E08081FB
:1041600081608083E0EAF0E0808181608083E0E22A
:10417000F1E0808181608083EAE7F0E08081846003
:104180008083808182608083808181608083808160
:10419000806880831092C1000895382F863308F01C
:1041A000365320917B00832F86958695869590E0E7
:1041B0008170907043E0880F991F4A95E1F7277F3F
:1041C000282B20937B0037708091B5048295880F4F
:1041D000880F807C832B80937C0080917A008064A0
:1041E00080937A0080917A0086FDFCCF2091780040
:1041F00040917900942F80E030E0282B392BC901C1
:1042000008951F93CF93DF93182FEB0161E00E9475
:10421000BD21E12FF0E0E254FE4F8491833051F450
:1042200080918000806880938000D0938900C09343
:1042300088009FC0843051F4809180008062809318
:104240008000D0938B00C0938A0093C0813041F4EA
:10425000209709F487C084B5806884BDC7BD89C034
:10426000823041F4209709F47DC084B5806284BD1A
:10427000C8BD7FC0863041F48091B00080688093D3
:10428000B000C093B30075C0873041F48091B00096
:1042900080628093B000C093B4006BC0883051F44A
:1042A00080919000806880939000D0939900C09393
:1042B00098005FC0893051F48091900080628093B3
:1042C0009000D0939B00C0939A0053C08A3051F461
:1042D00080919000886080939000D0939D00C0935F
:1042E0009C0047C08B3051F48091A000806880937F
:1042F000A000D093A900C093A8003BC084918C304B
:1043000051F48091A00080628093A000D093AB0014
:10431000C093AA002EC08D3051F48091A000886017
:104320008093A000D093AD00C093AC0022C08E302B
:1043300051F480912001806880932001D09329015D
:10434000C093280116C08F3051F480912001806203
:1043500080932001D0932B01C0932A010AC0C0385A
:10436000D1051CF4812F60E002C0812F61E00E9422
:10437000E321DF91CF911F910895482F50E0CA01AA
:1043800088589E4FFC0124914E5C5E4FFA01849147
:104390008823C1F0E82FF0E0EE0FFF1FEC51FF4F34
:1043A000A591B491662341F49FB7F8948C91209520
:1043B00082238C939FBF08959FB7F8948C91822B92
:1043C0008C939FBF0895482F50E0CA0182549E4F9E
:1043D000FC012491CA0188589E4FFC0134914E5C27
:1043E0005E4FFA019491992309F47DC0222309F4C8
:1043F00062C0233021F4809180008F7705C0243083
:1044000031F4809180008F7D8093800054C02130F2
:1044100019F484B58F7704C0223021F484B58F7DE0
:1044200084BD49C0263021F48091B0008F7705C04B
:10443000273031F48091B0008F7D8093B0003BC075
:10444000283021F4809190008F7705C0293031F415
:10445000809190008F7D809390002DC02A3021F4B0
:1044600080919000877FF7CF2B3021F48091A000BE
:104470008F770BC02C3021F48091A0008F7D05C078
:104480002D3031F48091A000877F8093A00013C06D
:104490002E3021F4809120018F770BC02F3021F432
:1044A000809120018F7D05C0203129F48091200169
:1044B000877F80932001E92FF0E0EE0FFF1FE2508D
:1044C000FF4FA591B491662341F49FB7F8948C9166
:1044D000309583238C939FBF08959FB7F8948C9158
:1044E000832B8C939FBF0895682F70E0CB0182547B
:1044F0009E4FFC012491CB0188589E4FFC014491B2
:104500006E5C7E4FFB019491992319F420E030E01A
:1045100075C0222309F462C0233021F48091800009
:104520008F7705C0243031F4809180008F7D809397
:10453000800054C0213019F484B58F7704C0223034
:1045400021F484B58F7D84BD49C0263021F480914B
:10455000B0008F7705C0273031F48091B0008F7D97
:104560008093B0003BC0283021F4809190008F7779
:1045700005C0293031F4809190008F7D80939000A8
:104580002DC02A3021F480919000877FF7CF2B3007
:1045900021F48091A0008F770BC02C3021F4809102
:1045A000A0008F7D05C02D3031F48091A000877F61
:1045B0008093A00013C02E3021F4809120018F77CA
:1045C0000BC02F3021F4809120018F7D05C0203158
:1045D00029F480912001877F80932001892F90E02A
:1045E000880F991F885E9E4FFC01A591B4918C9114
:1045F00020E030E0842311F021E030E0C90108958B
:104600000F931F93CF93DF938C01EB0109C0219689
:10461000D801ED91FC910190F081E02DC801099540
:1046200068816623A1F7DF91CF911F910F910895C3
:10463000EF92FF920F931F93CF93DF938C017B0137
:10464000EA010CC0D7016D917D01D801ED91FC917B
:104650000190F081E02DC80109952197209791F7ED
:10466000DF91CF911F910F91FF90EF900895DC01A2
:10467000ED91FC910280F381E02D099508952F9230
:104680003F924F925F926F927F928F929F92AF92E2
:10469000BF92CF92DF92EF92FF920F931F93DF931F
:1046A000CF93CDB7DEB7A0970FB6F894DEBF0FBE9D
:1046B000CDBF1C016A017B014115510561057105E2
:1046C00049F440E350E060E070E020E030E00E9418
:1046D000E82356C0882499245401422E5524662488
:1046E000772401E010E00C0F1D1F080D191DC701F4
:1046F000B601A30192010E94C42AF80160830894C4
:10470000811C911CA11CB11CC701B601A30192011F
:104710000E94C42AC901DA016C017D01C114D104CF
:10472000E104F104F1F681E0E82EF12CEC0EFD1E1F
:10473000E80CF91C3E010894611C711CD501C401F0
:104740000197A109B1096C01C818D90816C0F60172
:10475000EE0DFF1D40814A3010F4405D01C0495C00
:10476000552747FD5095652F752FC10120E030E09A
:104770000E94E8230894E108F1086E147F0439F7D9
:10478000A0960FB6F894DEBF0FBECDBFCF91DF91DC
:104790001F910F91FF90EF90DF90CF90BF90AF905F
:1047A0009F908F907F906F905F904F903F902F9051
:1047B0000895DC012115310541F4ED91FC91019042
:1047C000F081E02D642F099508950E943F230895FC
:1047D000EF92FF920F931F93CF93DF93EC017A0137
:1047E0008B012115310541F4E881F9810190F081B7
:1047F000E02D642F09951BC02A303105B1F477FFF5
:1048000010C04DE250E060E070E020E030E00E9437
:10481000E82310950095F094E094E11CF11C011D33
:10482000111DCE01B801A7012AE00E943F23DF91AC
:10483000CF911F910F91FF90EF900895EF92FF920B
:104840000F931F937B019A010027F7FC0095102F0F
:10485000B801A7010E94E8231F910F91FF90EF90EC
:1048600008950F931F938C014DE050E060E070E0DD
:1048700020E030E00E94E823C8014AE050E060E018
:1048800070E020E030E00E94E8231F910F9108952E
:104890009F92AF92BF92CF92DF92EF92FF920F93CF
:1048A0001F93CF93DF93EC017A018B01922ECB0102
:1048B000BA0120E030E040E050E00E9485288823E3
:1048C0006CF4CE014DE250E060E070E020E030E0BA
:1048D0000E94E82317FB109517F9109520E030E0AF
:1048E00040E05FE3AA240BC0CA01B90120E030E038
:1048F00040E251E40E9489289B01AC01A394A914D1
:1049000098F3C801B7010E9421285B016C010E9445
:10491000F6287B018C01CE01B801A7012AE030E026
:104920000E94D923992029F0CE0166EE73E00E94FF
:104930003723C801B7010E9422299B01AC01C6019F
:10494000B5010E94202822C020E030E040E251E47E
:104950000E94D8297B018C010E94F1285B016C0127
:10496000CC24B7FCC094DC2CCE01B601A5012AE012
:1049700030E00E94E823C601B5010E9424299B0172
:10498000AC01C801B7010E9420289A949920E1F651
:10499000DF91CF911F910F91FF90EF90DF90CF901B
:1049A000BF90AF909F9008950E94482408950E9460
:1049B0006C200E94061F0E94FF1EFDCF1F920F92C7
:1049C0000FB60F920BB60F9211242F933F934F9374
:1049D0005F936F937F938F939F93AF93BF93EF9367
:1049E000FF934091C600E0918D0AF0918E0ACF01AD
:1049F000019660E870E00E94B12A9C0180918F0AC4
:104A00009091900A2817390739F0E35FF54F4083FA
:104A100030938E0A20938D0AFF91EF91BF91AF9151
:104A20009F918F917F916F915F914F913F912F91C6
:104A30000F900BBE0F900FBE0F901F9018951F92F6
:104A40000F920FB60F920BB60F9211242F933F9334
:104A50004F935F936F937F938F939F93AF93BF9386
:104A6000EF93FF934091CE00E091110BF091120B68
:104A7000CF01019660E870E00E94B12A9C0180910C
:104A8000130B9091140B2817390739F0EF56F54F97
:104A900040833093120B2093110BFF91EF91BF9144
:104AA000AF919F918F917F916F915F914F913F91C6
:104AB0002F910F900BBE0F900FBE0F901F90189567
:104AC0001F920F920FB60F920BB60F9211242F93D5
:104AD0003F934F935F936F937F938F939F93AF9386
:104AE000BF93EF93FF934091D600E091950BF09127
:104AF000960BCF01019660E870E00E94B12A9C01FC
:104B00008091970B9091980B2817390739F0EB5E3D
:104B1000F44F40833093960B2093950BFF91EF91C8
:104B2000BF91AF919F918F917F916F915F914F91C5
:104B30003F912F910F900BBE0F900FBE0F901F90C3
:104B400018951F920F920FB60F920BB60F92112469
:104B50002F933F934F935F936F937F938F939F9385
:104B6000AF93BF93EF93FF9340913601E091190CFF
:104B7000F0911A0CCF01019660E870E00E94B12A12
:104B80009C0180911B0C90911C0C2817390739F05F
:104B9000E756F44F408330931A0C2093190CFF9181
:104BA000EF91BF91AF919F918F917F916F915F91A5
:104BB0004F913F912F910F900BBE0F900FBE0F9012
:104BC0001F9018955F926F927F928F929F92AF92F3
:104BD000BF92CF92DF92EF92FF920F931F93CF93EA
:104BE000DF93EC013A014B01413482E458078FE036
:104BF000680780E078070CF07FC060E874E88EE119
:104C000090E0A40193010E94E62A215030404040E8
:104C10005040CA01B90122E030E040E050E00E947B
:104C2000E62A59016A01A601950120953095409523
:104C3000509594E0220F331F441F551F9A95D1F7CA
:104C400060E074E284EF90E00E94E62ACA01B901B4
:104C50002FEF30E040E050E00E94922AA40193013F
:104C60000E94E62AC90181509F4F181619061CF4AC
:104C7000522E5A9403C055245394521A60E079E09E
:104C80008DE390E0A40193010E94E62A2150304078
:104C900040405040CA01B90122E030E040E050E01D
:104CA0000E94E62A209530954095509583E0220F8A
:104CB000331F441F551F8A95D1F760E074E284EFDB
:104CC00090E00E94E62ACA01B9012FEF30E040E0EF
:104CD00050E00E94922AA40193010E94E62AC90191
:104CE00081509F4F181619061CF4822F815002C064
:104CF00081E0821B851500F5E885F98581E090E06B
:104D00000A8802C0880F991F0A94E2F7808360E046
:104D100079E08DE390E0A40193010E94E62A2150FE
:104D2000304040405040CA01B90122E030E040E04C
:104D300050E00E94E62A04C0E885F98510829501BA
:104D4000EC81FD813083EE81FF812083EA85FB8544
:104D5000208141E050E0CA010E8402C0880F991FF3
:104D60000A94E2F7282B2083EA85FB852081CA017B
:104D70000F8402C0880F991F0A94E2F7282B208322
:104D8000EA85FB858081088802C0440F551F0A947C
:104D9000E2F7842B8083DF91CF911F910F91FF90D9
:104DA000EF90DF90CF90BF90AF909F908F907F90CB
:104DB0006F905F900895DC011296ED91FC9113972E
:104DC000E058FF4F8191919180589F4F2081318110
:104DD000821B930B60E870E00E94B12A0895DC0109
:104DE0001296ED91FC911397EE57FF4F2081318180
:104DF00092918291E058F0408217930719F42FEFB7
:104E00003FEF05C0E20FF31F8081282F30E0C9017A
:104E10000895CF93DF93DC011296ED91FC911397E7
:104E2000EF01CE57DF4F48815981E058FF4F808115
:104E30009181E058F0408417950719F42FEF3FEF68
:104E40000CC0E40FF51F2081CA01019660E870E0F4
:104E50000E94B12A9983888330E0C901DF91CF9104
:104E60000895DC011296ED91FC911397EE57FF4FD8
:104E700080819181929382930895FC01A085B185F0
:104E800021898C9190E0022E02C0959587950A9415
:104E9000E2F780FFF6CF0484F585E02D6083089566
:104EA0002AEB34E030931E0C20931D0C8DE09AE029
:104EB0009093200C80931F0C85EC90E09093220C33
:104EC0008093210C84EC90E09093240C8093230C2D
:104ED00080EC90E09093260C8093250C81EC90E080
:104EE0009093280C8093270C86EC90E090932A0CEA
:104EF0008093290CE4E0E0932B0C73E070932C0C6E
:104F000067E060932D0C55E050932E0C41E04093E8
:104F10002F0C3093310C2093300C81E99AE0909360
:104F2000330C8093320C8DEC90E09093350C809391
:104F3000340C8CEC90E09093370C8093360C88EC1A
:104F400090E09093390C8093380C89EC90E090932A
:104F50003B0C80933A0C8EEC90E090933D0C809348
:104F60003C0CE0933E0C70933F0C6093400C5093CC
:104F7000410C4093420C3093440C2093430C85E148
:104F80009BE09093460C8093450C85ED90E09093C8
:104F9000480C8093470C84ED90E090934A0C8093EA
:104FA000490C80ED90E090934C0C80934B0C81ED7C
:104FB00090E090934E0C80934D0C86ED90E0909392
:104FC000500C80934F0CE093510C7093520C6093F3
:104FD000530C5093540C4093550C3093570C209322
:104FE000560C89E99BE09093590C8093580C85E30B
:104FF00091E090935B0C80935A0C84E391E0909342
:105000005D0C80935C0C80E391E090935F0C809347
:105010005E0C81E391E09093610C8093600C86E3D9
:1050200091E09093630C8093620CE093640C709316
:10503000650C6093660C5093670C4093680C089560
:105040005058BB27AA270ED075C166D130F06BD15E
:1050500020F031F49F3F11F41EF45BC10EF4E09593
:10506000E7FB51C1E92F77D180F3BA1762077307C5
:105070008407950718F071F49EF58FC10EF4E09542
:105080000B2EBA2FA02D0B01B90190010C01CA0102
:10509000A0011124FF27591B99F0593F50F4503EAD
:1050A00068F11A16F040A22F232F342F4427585F9F
:1050B000F3CF469537952795A795F0405395C9F7B7
:1050C0007EF41F16BA0B620B730B840BBAF091506F
:1050D000A1F0FF0FBB1F661F771F881FC2F70EC00E
:1050E000BA0F621F731F841F48F4879577956795E1
:1050F000B795F7959E3F08F0B3CF9395880F08F0CA
:105100009927EE0F979587950895D9D008F481E0F7
:1051100008950CD00FC107D140F0FED030F021F43B
:105120005F3F19F0F0C0511139C1F3C014D198F3A9
:105130009923C9F35523B1F3951B550BBB27AA2718
:1051400062177307840738F09F5F5F4F220F331F8A
:10515000441FAA1FA9F333D00E2E3AF0E0E830D056
:1051600091505040E695001CCAF729D0FE2F27D059
:10517000660F771F881FBB1F261737074807AB0727
:10518000B0E809F0BB0B802DBF01FF2793585F4F9C
:105190002AF09E3F510568F0B6C000C15F3FECF3B6
:1051A000983EDCF3869577956795B795F7959F5F61
:1051B000C9F7880F911D9695879597F90895E1E0B5
:1051C000660F771F881FBB1F621773078407BA0714
:1051D00020F0621B730B840BBA0BEE1F88F7E0956F
:1051E000089504D06894B111D9C00895BCD088F056
:1051F0009F5790F0B92F9927B751A0F0D1F0660FC3
:10520000771F881F991F1AF0BA95C9F712C0B130DD
:1052100081F0C3D0B1E00895C0C0672F782F8827F0
:10522000B85F39F0B93FCCF3869577956795B3951C
:10523000D9F73EF490958095709561957F4F8F4F8B
:105240009F4F0895E89409C097FB3EF49095809590
:10525000709561957F4F8F4F9F4F9923A9F0F92F3C
:1052600096E9BB279395F695879577956795B795BA
:10527000F111F8CFFAF4BB0F11F460FF1BC06F5FA0
:105280007F4F8F4F9F4F16C0882311F096E911C0B2
:10529000772321F09EE8872F762F05C0662371F0D3
:1052A00096E8862F70E060E02AF09A95660F771FE7
:1052B000881FDAF7880F9695879597F90895990FC3
:1052C0000008550FAA0BE0E8FEEF16161706E807D0
:1052D000F907C0F012161306E407F50798F0621BF1
:1052E000730B840B950B39F40A2661F0232B242BC6
:1052F000252B21F408950A2609F4A140A6958FEFE5
:10530000811D811D089597F99F6780E870E060E036
:1053100008959FEF80EC089500240A94161617064E
:1053200018060906089500240A9412161306140696
:1053300005060895092E0394000C11F4882352F0F9
:10534000BB0F40F4BF2B11F460FF04C06F5F7F4FB1
:105350008F4F9F4F089557FD9058440F551F59F098
:105360005F3F71F04795880F97FB991F61F09F3F52
:1053700079F087950895121613061406551FF2CF7B
:105380004695F1DF08C0161617061806991FF1CFCB
:1053900086957105610508940895E894BB276627F2
:1053A0007727CB0197F908958ADF08F48FEF0895E6
:1053B0000BD0C0CFB1DF28F0B6DF18F0952309F08D
:1053C000A2CFA7CF1124EACFC6DFA0F3959FD1F3D8
:1053D000950F50E0551F629FF001729FBB27F00DA3
:1053E000B11D639FAA27F00DB11DAA1F649F6627F8
:1053F000B00DA11D661F829F2227B00DA11D621F47
:10540000739FB00DA11D621F839FA00D611D221F00
:10541000749F3327A00D611D231F849F600D211DE4
:10542000822F762F6A2F11249F5750408AF0E1F087
:1054300088234AF0EE0FFF1FBB1F661F771F881FD0
:1054400091505040A9F79E3F510570F05CCFA6CF18
:105450005F3FECF3983EDCF3869577956795B795BB
:10546000F795E7959F5FC1F7FE2B880F911D9695E5
:10547000879597F9089511F40EF44BCF3EC073DF72
:10548000D0F39923D9F3CEF39F57550B87FF43D021
:105490000024A0E640EA900180585695979528F49C
:1054A000805C660F771F881F20F026173707480794
:1054B00030F4621B730B840B202931294A2BA695EB
:1054C00017940794202531254A2758F7660F771F30
:1054D000881F20F026173707480730F4620B730B3C
:1054E000840B200D311D411DA09581F7B901842F3A
:1054F0009158880F9695879508959F3F31F0915068
:1055000020F4879577956795B795880F911D9695A7
:10551000879597F9089591505040660F771F881F1F
:10552000D2F70895629FD001739FF001829FE00D32
:10553000F11D649FE00DF11D929FF00D839FF00D12
:10554000749FF00D659FF00D9927729FB00DE11DBE
:10555000F91F639FB00DE11DF91FBD01CF0111249B
:10556000089597FB092E07260AD077FD04D049D06D
:1055700006D000201AF4709561957F4F0895F6F7D4
:10558000909581959F4F0895A1E21A2EAA1BBB1BEF
:10559000FD010DC0AA1FBB1FEE1FFF1FA217B307FF
:1055A000E407F50720F0A21BB30BE40BF50B661F15
:1055B000771F881F991F1A9469F7609570958095D9
:1055C00090959B01AC01BD01CF01089597FB092E79
:1055D00005260ED057FD04D0D7DF0AD0001C38F4C2
:1055E00050954095309521953F4F4F4F5F4F08950F
:1055F000F6F790958095709561957F4F8F4F9F4FEF
:105600000895AA1BBB1B51E107C0AA1FBB1FA61709
:10561000B70710F0A61BB70B881F991F5A95A9F75B
:1056200080959095BC01CD010895EE0FFF1F059068
:10563000F491E02D09948F929F92AF92BF92CF92F6
:10564000DF92EF92FF920F931F93CF93DF93EC01C2
:105650005B016115710519F0FB0191838083F9905D
:105660008F2D90E00E94B82D892BC9F7FDE2FF161F
:1056700021F4F990EE24E39405C02BE2F21609F42C
:10568000F990EE248E0101501040C80164E072E0F0
:1056900043E050E00E94C02D892B01F58E010E5F82
:1056A0001F4FC80167E072E045E050E00E94C02D46
:1056B000892B19F48E01095F1F4FA114B10419F051
:1056C000F50111830083E0FC04C070E090E080E805
:1056D00014C070E090E080E86FEF08C1C8016CE092
:1056E00072E043E050E00E94C02D892B69F4A114C0
:1056F000B10429F470E090E080EC6FE7F7C02296E7
:10570000F501D183C083F6CF8824992440E050E08E
:1057100060E070E0EF2DE053EA30A0F5F2E0EF2A10
:105720008E2D90E09C0128703070E2FE06C0232B85
:1057300079F50894811C911C2BC0232B19F0089437
:1057400081089108DB01CA0112E0880F991FAA1F86
:10575000BB1F1A95D1F7480F591F6A1F7B1F440FB3
:10576000551F661F771F4E0F511D611D711D483952
:1057700029E9520729E9620729E1720748F084E024
:10578000E82A06C0EE3F31F4E3FC39C098E0E92A8C
:10579000F990C0CFE53311F0E53189F529912D322B
:1057A00019F4E0E1EE2A05C02B3219F081E090E017
:1057B00003C0299182E090E0E22FE053EA3018F034
:1057C000C81BD90B1CC020E030E0FCE020383F07AC
:1057D0005CF4C901880F991F880F991F280F391F82
:1057E000220F331F2E0F311DE991E053EA3068F389
:1057F000E4FE03C0309521953F4F820E931ECE2CC0
:10580000DD24E1FE07C0A114B10421F02197F501C8
:10581000D183C083CB01BA010E9422297B018C0174
:10582000F3E0CF22DD2423E0C216D10421F417FBDC
:10583000109517F9109557016801C801B70120E0CC
:1058400030E040E050E00E948528882309F44AC0F7
:1058500097FE0DC023E2E22E22E0F22E9094819476
:1058600091089394C0E2D0E000E010E012C09BE306
:10587000E92E92E0F92EF6CFF70125913591459169
:105880005491C601B5010E94D8295B016C018C1AA4
:105890009D0A8C169D0684F7D595C7950F5F1F4FFF
:1058A0000630110529F08CEF9FEFE80EF91EF1CFBD
:1058B000C501D6017C018D018C2D880F8D2D881F8F
:1058C0008F3F51F0C601B50120E030E040E050E0EC
:1058D0000E948528882331F482E290E090936A0C3C
:1058E0008093690C7E2D9F2D802F612F272F392FBC
:1058F000482F562FB901CA01DF91CF911F910F9107
:10590000FF90EF90DF90CF90BF90AF909F908F90DF
:1059100008952F923F925F926F927F928F929F9203
:10592000AF92BF92CF92DF92EF92FF920F931F93AD
:10593000CF93DF938C011B01EA016115710519F00A
:10594000FB0191838083209749F0CE0102978397D2
:1059500028F020E030E040E050E0F6C0F801A190EF
:105960008F018A2D90E00E94B82D892BB9F7FDE2B6
:10597000AF1631F4F801A1908F015524539407C05C
:10598000FBE2AF1619F4F801A1908F01552420977E
:1059900019F0C031D105C1F4F0E3AF1679F4F80184
:1059A0008081883711F0883549F4F801A1800E5FB5
:1059B0001F4FF2E05F2AC0E1D0E006C0209721F43B
:1059C00080E3A816E9F427C0C830D10531F1C93009
:1059D000D10524F4C230D10531F50CC0CA30D1054F
:1059E00089F0C031D105F9F4C12CD12CE12CB8E0FB
:1059F000FB2E28C0C12CD12CE12CA0E4FA2E22C011
:105A0000CAE0D0E0FCECCF2EFCECDF2EFCECEF2E5D
:105A1000FCE0FF2E17C0C8E0D0E0C12CD12CE12C57
:105A2000E0E1FE2E0FC09E01442737FD4095542F24
:105A300060E070E080E090E80E94C42AC901DA01C9
:105A40006C017D0120E030E040E050E060E03E018C
:105A5000882477FC8094982C70EDB72EBA0CE9E07E
:105A6000EB1570F48A2D81548A3118F499ECB92E13
:105A700006C08A2D81568A3150F589EAB82EBA0CB3
:105A80008B2D90E08C179D0714F56F3FE1F0C21647
:105A9000D306E406F506B0F0CA01B901A4019301EA
:105AA0000E94922A9B01AC012B0D311D411D511DFD
:105AB0002130F0E03F07F0E04F07F0E85F0710F417
:105AC00061E001C06FEFF801A1908F01C5CF2114F3
:105AD000310481F0662331F001501040F10111834F
