:100000000C9422010C944D010C944D010C944D0163
:100010000C944D010C944D010C944D010C944D0128
:100020000C944D010C944D010C944D010C944D0118
:100030000C944D010C944D010C944D010C944D0108
:100040000C944D010C94D71A0C944D010C944D0155
:100050000C944D010C944D010C944D010C94C02A4C
:100060000C944D010C940E2E0C944D010C944D01EA
:100070000C944D010C944D010C944D010C944D01C8
:100080000C944D010C944D010C944D010C944D01B8
:100090000C944F2E0C944D010C944D010C944D0179
:1000A0000C944D010C944D010C944D010C944D0198
:1000B0000C944D010C944D010C944D010C944D0188
:1000C0000C944D010C944D010C944D010C94902E08
:1000D0000C944D010C944D010C94D12E0C944D01B7
:1000E0000C944D0100002100240027002A002D005F
:1000F0003000330001010000040107010A01000083
:100100002200250028002B002E00310034000201BF
:100110000000050108010B0100002000230026005B
:1001200029002C002F00320000010000030106010D
:10013000090105050505070508080808020202026D
:100140000A0A080804040404010101010101010173
:100150000303030303030303040707070C0C0C0C3E
:100160000C0C0C0C02020202060606060606060627
:100170000B0B0B0B0B0B0B0B0102102020080810B4
:100180002040102040800201020108040201010207
:1001900004081020408080402010080402018004E0
:1001A000020180402010080402010804020101023B
:1001B0000408102040800102040810204080000044
:1001C000090A02080B0C0D070603040100000000D9
:1001D000000000000000000000000000000000001F
:1001E00000000000000000000000100F0E000000E2
:1001F00000000000000000000000000000000000FF
:1002000000000000494E46494E4954594E414ECDDA
:10021000CCCC3D0AD7233C17B7D13877CC2B3295BD
:1002200095E6241FB14F0A000020410000C842009B
:10023000401C4620BCBE4CCA1B0E5AAEC59D740065
:10024000E515803011241FBECFEFD1E2DEBFCDBF58
:1002500015E0A0E0B2E0E6E1FFE600E00BBF02C07F
:1002600007900D92A231B107D9F71BBE1CE0A2E1A5
:10027000B5E001C01D92AA3DB107E1F712E0C4E468
:10028000D2E004C02297FE010E944337C034D10758
:10029000C9F70E9450310C9489370C940000CF9319
:1002A000DF93BC018230910510F462E070E0A09110
:1002B000D60CB091D70CED01E0E0F0E040E050E06A
:1002C00021C0888199818617970769F48A819B816B
:1002D000309719F09383828304C09093D70C809356
:1002E000D60CFE0134C06817790738F44115510562
:1002F00019F08417950708F4AC01FE018A819B81EF
:100300009C01E9012097E9F641155105A9F1CA01BF
:10031000861B970B049708F4BA01E0E0F0E02AC0CE
:100320008D919C91119784179507F9F464177507BF
:1003300081F412968D919C911397309719F09383C5
:10034000828304C09093D70C8093D60CFD01329623
:100350004CC0CA01861B970BFD01E80FF91F619382
:10036000719302978D939C9340C0FD01828193818C
:100370009C01D9011097A1F68091D40C9091D50CD5
:10038000892B41F480913304909134049093D50CDF
:100390008093D40C40913504509136044115510599
:1003A00041F44DB75EB78091310490913204481BFF
:1003B000590B2091D40C3091D50CCA01821B930BA0
:1003C0008617970780F0AB014E5F5F4F8417950744
:1003D00050F0420F531F5093D50C4093D40CF901A9
:1003E0006193719302C0E0E0F0E0CF01DF91CF9123
:1003F0000895CF93DF93009709F450C0EC01229742
:100400001B821A82A091D60CB091D70C109709F1DB
:1004100040E050E0AC17BD0708F1BB83AA83FE01A2
:1004200021913191E20FF31FAE17BF0779F48D913F
:100430009C911197280F391F2E5F3F4F39832883D6
:1004400012968D919C9113979B838A834115510538
:1004500071F4D093D70CC093D60C20C012968D9116
:100460009C911397AD01009711F0DC01D3CFFA01F5
:10047000D383C28321913191E20FF31FCE17DF079F
:1004800069F488819981280F391F2E5F3F4FFA0147
:10049000318320838A819B8193838283DF91CF91F3
:1004A0000895A0E0B0E0E7E5F2E00C945837EC01E5
:1004B0005B016115710519F0FB0191838083F9904F
:1004C0008F2D90E00E944737892BC9F7FDE2FF1678
:1004D00021F4F990EE24E39405C02BE2F21609F41E
:1004E000F990EE248E0101501040C80164E072E0E2
:1004F00043E050E00E94E004892B01F58E010E5F7D
:100500001F4FC80167E072E045E050E00E94E00440
:10051000892B19F48E01095F1F4FA114B10419F042
:10052000F50111830083E0FC04C070E090E080E8F6
:1005300014C070E090E080E86FEF08C1C8016CE083
:1005400072E043E050E00E94E004892B69F4A114BA
:10055000B10429F470E090E080EC6FE7F7C02296D8
:10056000F501D183C083F6CF8824992440E050E080
:1005700060E070E0EF2DE053EA30A0F5F2E0EF2A02
:100580008E2D90E09C0128703070E2FE06C0232B77
:1005900079F50894811C911C2BC0232B19F0089429
:1005A00081089108DB01CA0112E0880F991FAA1F78
:1005B000BB1F1A95D1F7480F591F6A1F7B1F440FA5
:1005C000551F661F771F4E0F511D611D711D483944
:1005D00029E9520729E9620729E1720748F084E016
:1005E000E82A06C0EE3F31F4E3FC39C098E0E92A7E
:1005F000F990C0CFE53311F0E53189F529912D321D
:1006000019F4E0E1EE2A05C02B3219F081E090E008
:1006100003C0299182E090E0E22FE053EA3018F025
:10062000C81BD90B1CC020E030E0FCE020383F079D
:100630005CF4C901880F991F880F991F280F391F73
:10064000220F331F2E0F311DE991E053EA3068F37A
:10065000E4FE03C0309521953F4F820E931ECE2CB1
:10066000DD24E1FE07C0A114B10421F02197F501BA
:10067000D183C083CB01BA010E9440357B018C013C
:10068000F3E0CF22DD2423E0C216D10421F417FBCE
:10069000109517F9109557016801C801B70120E0BE
:1006A00030E040E050E00E94A334882309F44AC0BF
:1006B00097FE0DC023E2E22E22E0F22E9094819468
:1006C00091089394C0E2D0E000E010E012C09BE3F8
:1006D000E92E92E0F92EF6CFF7012591359145915B
:1006E0005491C601B5010E94F6355B016C018C1A6C
:1006F0009D0A8C169D0684F7D595C7950F5F1F4FF1
:100700000630110529F08CEF9FEFE80EF91EF1CFAE
:10071000C501D6017C018D018C2D880F8D2D881F80
:100720008F3F51F0C601B50120E030E040E050E0DD
:100730000E94A334882331F482E290E09093D90C94
:100740008093D80C7E2D9F2D802F612F272F392F3E
:10075000482F562FB901CA01CDB7DEB7ECE00C9493
:1007600074372F923F925F926F927F928F929F92F7
:10077000AF92BF92CF92DF92EF92FF920F931F93AF
:10078000CF93DF938C011B01EA016115710519F00C
:10079000FB0191838083209749F0CE0102978397D4
:1007A00028F020E030E040E050E0F6C0F801A190F1
:1007B0008F018A2D90E00E944737892BB9F7FDE21F
:1007C000AF1631F4F801A1908F015524539407C05E
:1007D000FBE2AF1619F4F801A1908F015524209780
:1007E00019F0C031D105C1F4F0E3AF1679F4F80186
:1007F0008081883711F0883549F4F801A1800E5FB7
:100800001F4FF2E05F2AC0E1D0E006C0209721F43C
:1008100080E3A816E9F427C0C830D10531F1C9300A
:10082000D10524F4C230D10531F50CC0CA30D10550
:1008300089F0C031D105F9F4C12CD12CE12CB8E0FC
:10084000FB2E28C0C12CD12CE12CA0E4FA2E22C012
:10085000CAE0D0E0FCECCF2EFCECDF2EFCECEF2E5F
:10086000FCE0FF2E17C0C8E0D0E0C12CD12CE12C59
:10087000E0E1FE2E0FC09E01442737FD4095542F26
:1008800060E070E080E090E80E94F036C901DA0193
:100890006C017D0120E030E040E050E060E03E018E
:1008A000882477FC8094982C70EDB72EBA0CE9E080
:1008B000EB1570F48A2D81548A3118F499ECB92E15
:1008C00006C08A2D81568A3150F589EAB82EBA0CB5
:1008D0008B2D90E08C179D0714F56F3FE1F0C21649
:1008E000D306E406F506B0F0CA01B901A4019301EC
:1008F0000E94BE369B01AC012B0D311D411D511DC7
:100900002130F0E03F07F0E04F07F0E85F0710F418
:1009100061E001C06FEFF801A1908F01C5CF2114F4
:10092000310481F0662331F001501040F101118350
:10093000008308C051FE1AC002501040F10111831B
:10094000008314C067FF12C050FC05C02FEF3FEFBB
:100950004FEF5FE704C020E030E040E050E882E283
:1009600090E09093D90C8093D80C16C050FE08C02C
:1009700050954095309521953F4F4F4F5F4F0CC09C
:1009800057FF0AC082E290E09093D90C8093D80C74
:100990002FEF3FEF4FEF5FE7B901CA01DF91CF9132
:1009A0001F910F91FF90EF90DF90CF90BF90AF908D
:1009B0009F908F907F906F905F903F902F900895C1
:1009C000FB01DC014150504088F08D9181341CF0D6
:1009D0008B350CF4805E659161341CF06B350CF442
:1009E000605E861B611171F3990B0895881BFCCF23
:1009F000FB01DC010D900020E9F7119701900D92A9
:100A00000020E1F70895FB01DC0101900D92002028
:100A1000E1F70895FB019F01E8944230C4F04532AC
:100A2000B4F44A3029F497FB1EF4909581959F4FBA
:100A3000642F77270E942D37805D8A330CF0895D03
:100A40008193CB010097A1F716F45DE251931082D8
:100A5000C9010C944207AEE0B0E0E1E3F5E00C948C
:100A600060370D891E8986E08C831A8309838FEF96
:100A70009FE79E838D839E01275E3F4FCE010196A7
:100A80006F89788DA9010E944F052F813885020F4B
:100A9000131FF80110822E96E4E00C947C37ABE033
:100AA000B0E0E5E5F5E00C9452373C012B015A012A
:100AB000FC0117821682838181FD03C06FEF7FEFF7
:100AC000C6C19AE0892E1E010894211C311CF30135
:100AD0002381F20123FD859123FF81912F0188233A
:100AE00009F4B2C1853239F423FD859123FF819148
:100AF0002F01853229F490E0B3010E945207E7CF1D
:100B0000982FFF24EE249924FFE1FF15D0F09B32AB
:100B100069F09C3228F4903259F0933291F40EC06F
:100B20009D3249F0903369F441E024C052E0F52A47
:100B300084E0F82A28C098E0F92A25C0E0E1FE2ADE
:100B400022C0F7FC29C0892F80538A3070F4F6FE4A
:100B500005C0989C902C1124980E15C0E89CE02CA0
:100B60001124E80EF0E2FF2A0EC09E3229F4F6FCB2
:100B70006BC140E4F42A07C09C3619F450E8F52A0A
:100B800002C0983649F4F20123FD959123FF91911B
:100B90002F01992309F0B8CF892F8554833018F09D
:100BA0008052833038F444E050E0A40EB51E5FE379
:100BB00059830FC0933631F0933779F0933509F0AC
:100BC00056C020C0F5018081898342E050E0A40E28
:100BD000B51E610101E010E012C0F501C080D180B6
:100BE000F6FC03C06FEF7FEF02C0692D70E042E0BA
:100BF00050E0A40EB51EC6010E9437078C015FE7C6
:100C0000F52214C0F501C080D180F6FC03C06FEF5F
:100C10007FEF02C0692D70E042E050E0A40EB51EE7
:100C2000C6010E942C078C0150E8F52AF3FE07C08C
:100C30001AC080E290E0B3010E945207EA948E2D20
:100C400090E008171907A8F30EC0F601F7FC85918C
:100C5000F7FE81916F0190E0B3010E945207E1100D
:100C6000EA94015010400115110579F7EAC0943655
:100C700011F0993669F5F7FE08C0F5012081318140
:100C80004281538184E090E00AC0F5018081918126
:100C90009C01442737FD4095542F82E090E0A80E38
:100CA000B91E9FE6F92257FF09C05095409530952F
:100CB00021953F4F4F4F5F4FE0E8FE2ACA01B9012F
:100CC000A1012AE030E00E947E07D82ED21840C051
:100CD000953729F41F2D1F7E2AE030E01DC01F2DFF
:100CE000197F9F3661F0903720F4983509F0ACC039
:100CF0000FC0903739F0983709F0A6C004C028E03B
:100D000030E00AC0106114FD146020E130E004C03E
:100D100014FD166020E132E017FF08C0F501608184
:100D200071818281938144E050E008C0F5018081A7
:100D30009181BC0180E090E042E050E0A40EB51E3D
:100D4000A1010E947E07D82ED2188FE7F82EF1223B
:100D5000F6FE0BC05EEFF522D91438F4F4FE07C09E
:100D6000F2FC05C08FEEF82202C01D2D01C0192D26
:100D7000F4FE0DC0FE01ED0DF11D8081803319F4EC
:100D800099EEF92208C01F5FF2FE05C003C08F2D47
:100D9000867809F01F5F0F2DF3FC14C0F0FE0FC022
:100DA0001E1510F09D2C0BC09D2C9E0C911A1E2D13
:100DB00006C080E290E0B3010E9452071F5F1E153B
:100DC000C0F304C01E1510F4E11A01C0EE2404FFA4
:100DD0000FC080E390E0B3010E94520702FF1DC0E4
:100DE00001FD03C088E790E00EC088E590E00BC0ED
:100DF000802F867891F001FF02C08BE201C080E273
:100E0000F7FC8DE290E0B3010E94520706C080E338
:100E100090E0B3010E9452079A94D914C0F3DA9477
:100E2000F101ED0DF11D808190E0B3010E945207A8
:100E3000DD20A9F706C080E290E0B3010E945207CE
:100E4000EA94EE20C1F743CEF30166817781CB01AE
:100E50002B96E2E10C946E37FC01059061507040D6
:100E60000110D8F7809590958E0F9F1F0895FC0173
:100E70006150704001900110D8F7809590958E0FC9
:100E80009F1F0895DC01FC01672F71917723E1F723
:100E9000329704C07C916D9370836291AE17BF0747
:100EA000C8F308950F931F93CF93DF938C01EB0149
:100EB0008B8181FF1BC082FF0DC02E813F818C8101
:100EC0009D812817390764F4E881F9810193F9833A
:100ED000E88306C0E885F985802F0995892B31F4D0
:100EE0008E819F8101969F838E8302C00FEF1FEF3B
:100EF000C801DF91CF911F910F910895FA01AA27A0
:100F0000283051F1203181F1E8946F936E7F6E5F4C
:100F10007F4F8F4F9F4FAF4FB1E03ED0B4E03CD0FA
:100F2000670F781F891F9A1FA11D680F791F8A1FDD
:100F3000911DA11D6A0F711D811D911DA11D20D044
:100F400009F468943F912AE0269F11243019305DFE
:100F50003193DEF6CF010895462F4770405D4193EF
:100F6000B3E00FD0C9F7F6CF462F4F70405D4A333C
:100F700018F0495D31FD4052419302D0A9F7EACF04
:100F8000B4E0A6959795879577956795BA95C9F733
:100F900000976105710508959B01AC010A2E069426
:100FA0005795479537952795BA95C9F7620F731FDF
:100FB000841F951FA01D08950F931F938C01FC01A2
:100FC000848160E00E94F12C81E090E00E946F2B10
:100FD000F801848161E00E94F12C81E090E00E94A0
:100FE0006F2BF801848160E00E94F12C84E690E090
:100FF0000E946F2B1F910F910895CF92DF92EF9275
:10100000FF920F931F93CF93DF93D82EC92E282FD3
:10101000392FC9018C01C0E0D0E0E62EFF24F80191
:10102000858161E00E94CB2CB7010C2E02C0759522
:1010300067950A94E2F76170F80185810E94F12CAE
:1010400021960F5F1F4FC830D10549F78D2D9C2D7C
:101050000E94DC07DF91CF911F910F91FF90EF90DD
:10106000DF90CF900895CF92DF92EF92FF920F938F
:101070001F93CF93DF93D82EC92E282F392FC90164
:101080008C01C0E0D0E0E62EFF24F801858161E00C
:101090000E94CB2CB7010C2E02C0759567950A945F
:1010A000E2F76170F80185810E94F12C21960F5FB3
:1010B0001F4FC430D10549F78D2D9C2D0E94DC07B0
:1010C000DF91CF911F910F91FF90EF90DF90CF9024
:1010D00008951F93CF93DF93EC01162F8A81642F1D
:1010E0000E94F12C8B818F3F19F060E00E94F12C5F
:1010F0008D8584FF05C0CE01612F0E94FD070EC0C3
:10110000612F70E084E0759567958A95E1F7CE01CF
:101110000E943308CE01612F0E943308DF91CF91E6
:101120001F91089541E00E946908089540E00E94DF
:1011300069080895EF92FF920F931F93CF93DF9367
:101140008C017A016770660F660F660F60640E94FB
:101150009608C0E0D0E0D801ED91FC91D701AC0F2A
:10116000BD1F0190F081E02DC8016C910995219679
:10117000C830D10581F7DF91CF911F910F91FF907A
:10118000EF900895FC016685862F846086876C60E9
:10119000CF010E9496080895DF93CF93CDB7DEB7B5
:1011A00028970FB6F894DEBF0FBECDBF9C01FE019D
:1011B0003196A7EEB4E088E00D9001928150E1F7FE
:1011C000F9018189841710F4482F4150E42FF0E091
:1011D000EE0FFF1FEC0FFD1F8181680F6068C901D2
:1011E0000E94960828960FB6F894DEBF0FBECDBFBA
:1011F000CF91DF91089561E00E94960880ED97E01D
:101200000E946F2B0895CF93DF93EC01423018F0CA
:101210008D8588608D87498B1A8A222329F0413079
:1012200019F48D8584608D8780E593EC0E946F2B87
:101230008A8160E00E94F12C8C8160E00E94F12C98
:101240008B818F3F19F060E00E94F12C6D8564FD69
:101250001DC0CE0163E00E94330884E991E10E9441
:101260006F2BCE0163E00E94330884E991E10E9474
:101270006F2BCE0163E00E94330886E990E00E9464
:101280006F2BCE0162E00E94330816C06062CE016F
:101290000E94960884E991E10E946F2B6D8560623F
:1012A000CE010E94960886E990E00E946F2B6D8522
:1012B0006062CE010E9496086D856062CE010E9438
:1012C000960884E08E87CE010E94C208CE010E945B
:1012D000FB0882E08F87CE0166E00E949608DF91CE
:1012E000CF9108956F927F928F92AF92CF92EF92AB
:1012F0000F931F93DF93CF93CDB7DEB73C01162F2B
:10130000842FF301428323830483E582C682A7826C
:1013100080869D8591879E8592879F8593879889F2
:10132000948761E00E94CB2CF30183818F3F19F0F9
:1013300061E00E94CB2CF301848161E00E94CB2C00
:10134000112319F0F301158603C080E1F3018587AD
:10135000C30160E141E020E00E940309CF91DF91E9
:101360001F910F91EF90CF90AF908F907F906F90E3
:1013700008958F92AF92CF92EF920F931F93CF93D6
:10138000DF93DC01362F542F722F102FAE2C8C2CB4
:1013900081EE94E011969C938E9300D000D0EDB72F
:1013A000FEB73196CDB7DEB7198211821282138251
:1013B000CD0161E0432F2FEF052FE72EC12E0E94B4
:1013C00072090F900F900F900F90DF91CF911F91A6
:1013D0000F91EF90CF90AF908F9008952F923F9202
:1013E0004F925F926F927F928F929F92AF92BF9235
:1013F000CF92DF92EF92FF920F931F93DF93CF93E1
:10140000CDB7DEB72E970FB6F894DEBF0FBECDBFB7
:101410009E878D878B017A01FB01608171818281BA
:101420009381FA0120813181428153810E94F635F6
:101430005B016C01F8016481758186819781F701F8
:1014400024813581468157810E94F6353B014C014C
:10145000F8016085718582859385F7012085318546
:10146000428553850E94F6351B012C01F8016485E5
:10147000758586859785F701248535854685578549
:101480000E94F63569877A878B879C87F801608987
:10149000718982899389F701208931894289538929
:1014A0000E94F6357B018C01C601B50120E030E0D9
:1014B00040E050E00E94F23588234CF0C601B501AF
:1014C00020E030E040E05FE30E943F3408C0C60106
:1014D000B50120E030E040E05FE30E943E340E942E
:1014E0000F3569837A838B839C83C401B30120E029
:1014F00030E040E050E00E94F23588234CF0C40117
:10150000B30120E030E040E05FE30E943F3408C0D8
:10151000C401B30120E030E040E05FE30E943E34CC
:101520000E940F356D837E838F839887C201B1013E
:1015300020E030E040E050E00E94F23588234CF09B
:10154000C201B10120E030E040E05FE30E943F349F
:1015500008C0C201B10120E030E040E05FE30E943A
:101560003E340E940F353B014C0169857A858B859D
:101570009C8520E030E040E050E00E94F235882376
:101580005CF069857A858B859C8520E030E040E0C1
:101590005FE30E943F340AC069857A858B859C850C
:1015A00020E030E040E05FE30E943E340E940F35CF
:1015B0005B016C01C801B70120E030E040E050E081
:1015C0000E94F23588234CF0C801B70120E030E0DA
:1015D00040E05FE30E943F3408C0C801B70120E04B
:1015E00030E040E05FE30E943E340E940F352981E5
:1015F0003A814B815C81ED85FE8520833183428376
:1016000053832D813E814F815885248335834683C2
:1016100057836086718682869386A486B586C68641
:10162000D786608B718B828B938BCF012E960FB6F2
:10163000F894DEBF0FBECDBFCF91DF911F910F9108
:10164000FF90EF90DF90CF90BF90AF909F908F90E2
:101650007F906F905F904F903F902F9008958823D8
:1016600021F4809181008B7F29C0813049F48091E1
:1016700081008B7F8093810080918100826015C002
:10168000823049F4809181008B7F8093810080912A
:101690008100826018C0833071F480918100846081
:1016A00080938100809181008D7F80938100809163
:1016B00081008E7F0DC080918100846080938100C5
:1016C000809181008D7F8093810080918100816075
:1016D000809381000895E0E8F0E01082A1E8B0E096
:1016E0001C921092820010926F008C918F7E8C93CE
:1016F0008C9188608C9380818D7F808380818E7FA8
:10170000808380818F77808380818F7B80838081BD
:101710008F7D808380818F7E808384E00E942F0B69
:101720008FEF9FEF90938900809388000895FC01CC
:1017300080819181A281B381803020E0920721E0F5
:10174000A20720E0B2070CF441C0893F2FEF9207B7
:1017500027E0A20720E0B20744F453E0B595A7952F
:10176000979587955A95D1F731C0813C2FEF920715
:101770002FE3A20720E0B20744F446E0B595A79511
:10178000979587954A95D1F721C081302FEF920721
:101790002FEFA20720E0B2073CF4892F9A2FAB2F3E
:1017A000BB27A7FDBA9512C081302CEF92072FEF0F
:1017B000A20723E0B2071CF0EFEFFFEF08C02AE01A
:1017C000B595A795979587952A95D1F7FC01CF01F7
:1017D0000895EF92FF920F931F93DF93CF9300D062
:1017E00000D0CDB7DEB77B018C0164E0EE0CFF1CAE
:1017F000001F111F6A95D1F7E982FA820B831C83BF
:10180000CE0101960E94970B9093890080938800E7
:1018100080E0E81680E0F80681E0080780E018071D
:1018200014F480E022C089EFE8168FEFF80687E015
:10183000080780E0180714F481E017C081ECE8166F
:101840008FEFF8068FE3080780E0180714F482E0B2
:101850000CC081E0E8168FEFF8068FEF080780E0F4
:10186000180714F084E001C083E00E942F0B0F9052
:101870000F900F900F90CF91DF911F910F91FF90DC
:10188000EF9008952F923F924F925F926F927F92C6
:101890008F929F92AF92BF92CF92DF92EF92FF9280
:1018A0000F931F93DF93CF9300D00F92CDB7DEB786
:1018B000882309F08AC080911A05882309F485C01D
:1018C00010921A05E0911B05F0911C058081898317
:1018D00020901805309019050BE115E00F2EF1E26C
:1018E0004F2EF8E95F2EFDEF6F2EF4E47F2EF02DE2
:1018F0000F2EF0E08F2EF0E09F2EF0E8AF2EFFE3EA
:10190000BF2EF02D0F2EF2E9CF2EFEEBDF2EFFE9DA
:10191000EF2EF2E4FF2EF02DD8010D90BC91A02DFA
:10192000BB83AA83E981EC93EE23F9F01196CD9263
:10193000DD92ED92FC921497FD01C582D682E7827A
:10194000F08680E090E0A0EAB4E481879287A387E4
:10195000B487F10180859185A285B385EA81FB81F9
:1019600085879687A787B08B25C0EA81FB81418256
:10197000528263827482458256826782708680E0DA
:1019800090E0AEEFB6E481879287A387B487D10158
:1019900018966D917D918D919C911B9723E333E374
:1019A0004BEC51E40E94F635EA81FB81658776872E
:1019B0008787908B818A928AA38AB48A0E5F1F4F91
:1019C000B5E003321B0709F0A7CF0F900F900F90DF
:1019D000CF91DF911F910F91FF90EF90DF90CF900B
:1019E000BF90AF909F908F907F906F905F904F903F
:1019F0003F902F900895AF92BF92CF92DF92EF92D7
:101A0000FF920F931F93DF93CF9300D0CDB7DEB734
:101A10008C017B016A015901BE016F5F7F4F4AE073
:101A200050E00E94B10329813A81201B310B12162C
:101A300013066CF4F7016083718382839383F6014C
:101A4000808191818A299B299183808305C0F70138
:101A50001082118212821382C9010F900F90CF91D0
:101A6000DF911F910F91FF90EF90DF90CF90BF908B
:101A7000AF900895AF92BF92CF92DF92EF92FF9214
:101A80000F931F93DF93CF9300D0CDB7DEB78C01B8
:101A90007B016A015901BE016F5F7F4F4AE050E050
:101AA0000E94B10329813A81201B310B12161306C3
:101AB0005CF4F70171836083F601808191818A294A
:101AC0009B299183808303C0F70111821082C90191
:101AD0000F900F90CF91DF911F910F91FF90EF909A
:101AE000DF90CF90BF90AF900895AF92BF92CF920A
:101AF000DF92EF92FF920F931F93DF93CF9300D06B
:101B0000CDB7DEB78C017B016A015901BE016F5F61
:101B10007F4F0E94510229813A81201B310B1216FE
:101B200013066CF4F7016083718382839383F6015B
:101B3000808191818A299B299183808309C080E0DB
:101B400090E0A0E0B0E0F70180839183A283B383AB
:101B5000C9010F900F90CF91DF911F910F91FF90CE
:101B6000EF90DF90CF90BF90AF9008952F923F926B
:101B70004F925F926F927F928F929F92AF92BF929D
:101B8000CF92DF92EF92FF920F931F93DF93CF9349
:101B9000CDB7DEB768970FB6F894DEBF0FBECDBFE6
:101BA0008B015E8B4D8BFC01119211926F017C01B8
:101BB0009C012C5F3F4F3C8B2B8BFC013696FA8BA4
:101BC000E98B9C01285D3F4F388B2F87FC013896AD
:101BD000FE87ED879C01245F3F4F3C872B87FC01EC
:101BE0007096FA87E9879C012C5E3F4F38872F83D8
:101BF000FC017C96FE83ED839C01205E3F4F3C837D
:101C00002B83FC01B496FA83E9836CE2262E312CF7
:101C1000280E391E50E3452E512C480E591E48E11E
:101C2000642E712C680E791E36E3832E912C880E5B
:101C3000991E24E3A22EB12CA80EB91E188E1F8A5D
:101C4000EDC0EF89F88DE00FF11FE081E03509F478
:101C50005DC0E135DCF4E93409F484C0EA3474F49D
:101C6000E63409F495C0E73434F4EA3209F4C4C028
:101C7000E53409F5A9C0E734F1F420C0ED3441F1B1
:101C8000EE3409F4ADC0EA34B1F477C0E43559F16B
:101C9000E5354CF4E23509F486C08F89988D0196BC
:101CA000E33564F58AC0E93509F446C0EA3509F43C
:101CB0004EC0E835B1F180E090E0A9C08F89988DE1
:101CC0000196800F911FB601A70121E030E09DC071
:101CD0008F89988D0196800F911F6B897C89A70150
:101CE00022E030E092C08F89988D0196800F911F7D
:101CF00069897A89A70120E030E487C0800F911FAD
:101D00006F857889A70120E034E067C08F89988DBE
:101D10000196800F911F6D857E85A70124E030E03C
:101D20005CC08F89988D0196800F911F6B857C8593
:101D3000A70128E030E051C08F89988D0196800F6F
:101D4000911F69857A85A70120E130E046C08F891F
:101D5000988D0196800F911F6F817885A70120E2F1
:101D600030E03BC08F89988D0196800F911F6D8167
:101D70007E81A70120E430E030C08F89988D0196E4
:101D8000800F911F6B817C81A70120E030E825C086
:101D90008F89988D0196800F911F69817A81A701A3
:101DA00020E032E01AC08F89988D0196800F911F34
:101DB000B101A70120E030E110C0800F911FB201F6
:101DC000A70120E038E009C08F89988D0196800F27
:101DD000911FB301A70120E030E20E94750D17C0EA
:101DE0008F89988D0196800F911FB401A70120E87B
:101DF00030E00E94FB0C0BC08F89988D0196800FFC
:101E0000911FB501A70120E031E00E943A0D019633
:101E10002F89388D280F391F388F2F8B8F89988DF8
:101E2000ED89FE898E179F070CF40BCF68960FB6CD
:101E3000F894DEBF0FBECDBFCF91DF911F910F9100
:101E4000FF90EF90DF90CF90BF90AF909F908F90DA
:101E50007F906F905F904F903F902F900895CF9319
:101E6000DF93EC01662371F08881882359F088E8BC
:101E70009CE060E072E00E948E3188E89CE0BE0148
:101E80000E948E31DF91CF910895FC0181A160E025
:101E900070E00E940F2C0895AF92BF92CF92DF9214
:101EA000EF92FF920F931F93E62EA42E90E0AA27A5
:101EB00097FDA095BA2FBC01CD010E9442352AE9B9
:101EC00039E949E95EE30E94F6350E940F359B012E
:101ED000AC0185E0B9010E940F2CFF240027F7FC1C
:101EE0000095102FC801B7010E9442352AE939E94F
:101EF00049E95EE30E94F6350E940F359B01AC0173
:101F000086E0B9010E940F2CBB24CC24B7FCC094FE
:101F1000DC2CC601B5010E9442352AE939E949E9BC
:101F20005EE30E94F6350E940F359B01AC0187E00D
:101F3000B9010E940F2C1F910F91FF90EF90DF903D
:101F4000CF90BF90AF9008950F931F938C010E9484
:101F5000082BF801618372838383948380E090E08F
:101F6000A0E0B0E081879287A387B48785879687B2
:101F7000A787B08B1F910F9108950F931F938C012A
:101F8000FC01848595850E94A40FF80111821082BE
:101F9000848595850E94450F1F910F9108950F9399
:101FA0001F938C01FC01808191810E94F901F8014D
:101FB00013821282158214821F910F910895CF927D
:101FC000DF92EF92FF920F931F93DF93CF93CDB7E2
:101FD000DEB7AA970FB6F894DEBF0FBECDBF6C0177
:101FE0007B01FC0182A10E94DB2B8C01F60182A106
:101FF0000E94DB2B080F191FF60182A10E94DB2B28
:10200000800F911F63E070E00E94DD36DB018701E5
:102010000C5F1F4F21E0F80160817181A617B7079F
:1020200044F581E090E0821B9109880F991F880F89
:10203000991FF701E81BF90B4081518122813381FF
:10204000A41BB50BF80182819381821B930B641B47
:10205000750BAC01A49FC001A59F900DB49F900D7E
:1020600011240E94DD36260F371FF60134A323A367
:1020700006C02F5F0C5F1F4F243169F6FDC0F601CB
:1020800082A1883009F0F0C080911205909113056B
:10209000019690931305809312050197889709F094
:1020A000F6C010921305109212058DE395E060E0E2
:1020B00041E00E94CC087E010894E11CF11CC7019C
:1020C00062E072E00E94DA338E01095F1F4FF60171
:1020D00063A174A1C8014AE050E00E940234C70124
:1020E000B8010E947433C8010E94CF0F8E01035FB4
:1020F0001F4FC80164E072E00E94DA33C701B801E3
:102100000E947433C8010E94CF0F8E010D5E1F4FD5
:102110006091160570911705C8014AE050E00E94D1
:102120000234C701B8010E947433C8010E94CF0F66
:102130008E01075E1F4FC80166E072E00E94DA332D
:10214000C701B8010E947433C8010E94CF0F8E01ED
:10215000015E1F4F6091140570911505C8014AE09A
:1021600050E00E940234C701B8010E947433C801D4
:102170000E94CF0F8E010B5D1F4FC8016AE072E015
:102180000E94DA33C701B8010E947433C8010E946B
:10219000CF0F8DE395E0B7010E9496318DE395E076
:1021A00060E041E00E94CC088DE395E061E00E9490
:1021B0009208F60183A194A18436910514F435E0C8
:1021C00001C036E0809116059091170560E08A30D5
:1021D00091050CF061E020E0843691050CF021E0DF
:1021E000620F630F8DE395E041E00E94CC088DE320
:1021F00095E060E00E949208F60183A194A18436E4
:10220000910514F479E001C07AE02091160530912F
:102210001705409114055091150590E04A3051057D
:102220000CF091E080E0243631050CF081E0890F5C
:1022300060E02A3031050CF061E0680F80E0443640
:1022400051050CF081E0680F670F8DE395E041E0E8
:102250000E94CC088DE395E060E00E949208CE01D8
:1022600001960E94CF0F13C0F60183A194A1909311
:102270001505809314050BC04CE450E0E40EF51EE8
:10228000F70182819381F60194A383A3F8CEAA96E5
:102290000FB6F894DEBF0FBECDBFCF91DF911F9177
:1022A0000F91FF90EF90DF90CF9008954F925F9243
:1022B0006F927F928F929F92AF92BF92CF92DF9256
:1022C000EF92FF920F931F93DF93CF93CDB7DEB7BB
:1022D0002C970FB6F894DEBF0FBECDBF4C013B016B
:1022E000CE01019662E172E00E94DA337092170526
:1022F00060921605F4018081882321F0C40167E80B
:1023000074E003C0C40167E374E00E94DF0F0E9421
:10231000082B7B018C01F40165837683878390878A
:1023200081819281A381B481A8019701281B390B77
:102330004A0B5B0BCA01B9010E9440352FE632E11E
:1023400043E85AE30E94F6355B016C01F401E18237
:10235000F2820383148320E030E040E050E00E94EA
:10236000A33418160CF0A8C0F40183A194A1681A34
:10237000790AB301882777FD8095982F0E9442350E
:102380002B013C01A60195010E94F635F40125853B
:102390003685478550890E943F34F40165877687EA
:1023A0008787908B20E030E040EF52E40E94F235C6
:1023B0001816CCF48E01095F1F4FC80163E172E06B
:1023C0000E94DA33CE010196B8010E94AA33C801F7
:1023D0000E94CF0F80E090E0A0EFB2E4F401858787
:1023E0009687A787B08BF401658576858785908968
:1023F00020E030E040EF52EC0E94A33488234CF4FC
:1024000080E090E0A0EFB2ECF40185879687A78783
:10241000B08BC301B201F401218532854385548517
:102420000E943E34A60195010E94A7345B016C0115
:10243000F4014186528663867486C301B201218904
:102440003289438954890E94F6357B018C01F4015D
:102450006585768587859089258936894789508D58
:102460000E94F6359B01AC01C801B7010E943F34C0
:102470007B018C01C601B501F401218D328D438DA4
:10248000548D0E94F6359B01AC01C801B7010E9432
:102490003F340E940F35CB016F3F710519F014F0E6
:1024A0008FEF90E0BC0197FF02C060E070E0F401A4
:1024B00081A170E00E940F2CCE0101960E94CF0FE7
:1024C0002C960FB6F894DEBF0FBECDBFCF91DF9133
:1024D0001F910F91FF90EF90DF90CF90BF90AF9042
:1024E0009F908F907F906F905F904F900895FC0128
:1024F00060817181808991890E9456110895FC0143
:1025000014861586168617860E9477120895FC0198
:1025100084859585A685B7850196A11DB11D848703
:102520009587A687B787815D9740A040B0401CF093
:10253000CF010E947F120895EF92FF920F931F9395
:10254000CF93DF93EC011B821A821F821E821D82B1
:102550001C82FF24EE24E394E889F9892E813F81CF
:1025600083A194A1280F391F3F832E838A819B81E9
:1025700001969B838A83069704F1C90165E070E0A8
:102580000E94DD367F836E83888199810597681765
:10259000790734F08AE08F1510F1F394EE2409C026
:1025A000EE2039F08C819D8186179707C4F47D83D6
:1025B0006C831F821E821B821A8200E010E0CE0113
:1025C0000E94871261E070E080E090E00E94162B8C
:1025D0000F5F1F4F83E0083E180789F7BDCFDF91DB
:1025E000CF911F910F91FF90EF900895FC016081B2
:1025F0007181848595850E9456110895FC0110868D
:102600001186128613860E94F6120895FC018085B9
:102610009185A285B3850196A11DB11D8087918703
:10262000A287B387815D9740A040B0401CF0CF01E6
:102630000E94FE12089580911805909119050E943C
:1026400087128FE496E00E9406130895CF93DF93DC
:10265000EC0169A34AA388818823E9F080E090E037
:10266000A0E0B0E4898B9A8BAB8BBC8B89E29CE5B4
:10267000AFE8BDE38D8B9E8BAF8BB88F80E090E091
:10268000A0E8BFE3898F9A8FAB8FBC8F80E090E08A
:10269000AAE7B4E41CC080E090E0A0EBB0E4898B32
:1026A0009A8BAB8BBC8B80E090E0A0E0BFE38D8B7E
:1026B0009E8BAF8BB88F8DEC9CECACE4BEE3898F26
:1026C0009A8FAB8FBC8F80E090E0A0E0B0E08D8F60
:1026D0009E8FAF8FB8A31CA21BA2CE010E94A40F95
:1026E00089A161E00E94CB2C8AA160E00E94CB2CE2
:1026F000DF91CF9108950F931F938C01862FF801DE
:1027000066874787108611861286138625E23AE08F
:102710003587248761E00E94CB2CF801878560E033
:102720000E94CB2CF801868560E070E00E940F2C9F
:10273000F80111821082848595850E94A40FF8010A
:10274000118210821F910F9108950F931F93DF93B1
:10275000CF93CDB7DEB760970FB6F894DEBF0FBE4C
:10276000CDBF85E061E00E94CB2C86E061E00E9455
:10277000CB2C87E061E00E94CB2C0AE010E0B8018E
:10278000882777FD8095982F0E94423520E030E021
:1027900040E45FE30E94F6350E9414359B01AC01D2
:1027A000862F622F402F0E944C0F64E070E080E083
:1027B00090E00E94162B0F5F1F4F0F3F1105F9F697
:1027C000DE011196E7EFF4E088E001900D92815070
:1027D000E1F7DE011996EFEEF4E088E001900D924A
:1027E0008150E1F78DE395E060E142E020E00E9456
:1027F00003098DE395E060E0AE014F5F5F4F0E94FB
:102800009A088DE395E061E0AE01475F5F4F0E945B
:102810009A088DE395E00E94FB088DE395E068E25D
:1028200072E00E948E318DE395E060E041E00E940D
:10283000CC088DE395E069E372E00E948E316096EA
:102840000FB6F894DEBF0FBECDBFCF91DF911F91C1
:102850000F910895FC01868960E00E94F12C089593
:102860000F931F938C01FC01808991890E94A40F12
:10287000F80111821082808991890E94450FF80128
:10288000868961E00E94F12C1F910F9108958F922B
:102890009F92AF92BF92CF92DF92EF920F934C0133
:1028A000862FF401628B438B268B048BE58AA086EE
:1028B000B186C286D38614861586168617862AE4C4
:1028C0003AE0318B208B61E00E94CB2CF4018389AC
:1028D00061E00E94CB2CF401868961E00E94CB2C40
:1028E000F401848961E00E94CB2CF401858960E0C9
:1028F0000E94CB2CF401838961E00E94F12CF40149
:10290000828960E00E94F12CF401848960E070E02B
:102910000E940F2CF40111821082808991890E94FB
:10292000A40FF401118210820F91EF90DF90CF90ED
:10293000BF90AF909F908F900895CF93DF93EC015D
:10294000C759DF4F88819981AA81BB81C956D04080
:102950000097A105B10521F08BE160E00E94F12C08
:10296000C359DF4F88819981AA81BB81CD56D04060
:102970000097A105B10521F08DE160E00E94F12CE6
:10298000CF58DF4F88819981AA81BB81C157D04040
:102990000097A105B10521F083E260E00E94F12CCF
:1029A000CB58DF4F88819981AA81BB810097A1050F
:1029B000B10559F0E0911A05F0E0EE0FFF1FE85E57
:1029C000FA4F808191810E942A14DF91CF9108955E
:1029D0001F93CF93DF93EC01C955DF4F8881C75A0E
:1029E000D040882379F5CB56DF4F699111E06127FC
:1029F00087E10E94F12C699181E20E94F12C69919A
:102A0000612787E20E94F12C6881C859D040E0918B
:102A10001A05F0E0EE0FFF1FE85EFA4F0190F0811B
:102A2000E02D83890E94F12CCE010E949D1468EE56
:102A300073E080E090E00E94E90BC655DF4F1883F9
:102A4000FE011293DF91CF911F910895FF920F9392
:102A50001F938C0106551F4FF80110820350104040
:102A6000F801108202511040FF24F394F801F19212
:102A7000F192F192F1928F01F0820959104080E0B9
:102A800090E0A0E0B0E0F801858B968BA78BB08F2B
:102A9000818F928FA38FB48F858F968FA78FB0A3CE
:102AA00081A392A3A3A3B4A380E090E0A6E9B4E439
:102AB00085A396A3A7A3B0A789E161E00E94CB2CD0
:102AC00087E161E00E94CB2C8FE161E00E94CB2C7A
:102AD00081E261E00E94CB2C85E261E00E94CB2C78
:102AE00087E261E00E94CB2C8BE161E00E94CB2C5D
:102AF0008DE161E00E94CB2C83E261E00E94CB2C4F
:102B00008FE060E00E94CB2C81E160E00E94CB2C42
:102B100083E160E00E94CB2C8FE061E00E94F12C09
:102B200081E161E00E94F12C83E161E00E94F12CDF
:102B30008EE060E00E94CB2C80E160E00E94CB2C14
:102B400082E160E00E94CB2C8EE061E00E94F12CDB
:102B500080E161E00E94F12C82E161E00E94F12CB1
:102B6000F801F08282E99EEBAFE9B2E481839283BF
:102B7000A383B48385839683A783B08780E090E0A6
:102B8000A0EAB4E481879287A387B487E0911A050D
:102B9000F0E0EE0FFF1FE85EFA4F0190F081E02DAC
:102BA00080859185A285B385F80185879687A7875B
:102BB000B08B80E090E0A0E8BFE3818B928BA38B89
:102BC000B48B1F910F91FF900895AF92BF92CF9257
:102BD000DF92EF920F9388E396E06BE24DE229E2F9
:102BE00002E078E0E72E0F2EF0E0AF2EF0E0BF2EEF
:102BF000F0E6CF2EF1E4DF2EF02D0E9447148FE493
:102C000096E064E04AE00E947B131092770784ED1F
:102C10009EEF9093600780935F0790936207809385
:102C2000610710925F068FEF9FEFAFEFBFEF8093CA
:102C3000730790937407A0937507B093760710926B
:102C4000780789E797E00E94261584E298E00E94C1
:102C500026158FEC98E00E9426158AE799E00E94DD
:102C6000261585E29AE064E04AE021E00E942613FE
:102C70008AE49AE062E048E020E00E9426138DE3B7
:102C800095E068E146E124E202E250E2E52E3EE111
:102C9000C32E0E94B9090F91EF90DF90CF90BF90A3
:102CA000AF9008958091250591E0892780932505AF
:102CB000882319F084E061E002C084E060E00E94B3
:102CC000F12C0895F8948091230580932405ABE1BD
:102CD000B5E0ED91FD91E655FF4F108233971082DC
:102CE00085E0A332B807A9F78BE161E00E94F12CDF
:102CF0008DE161E00E94F12C83E261E00E94F12C01
:102D000080911805909119050E9430148FE496E087
:102D10000E94BD0F84E060E00E94F12CFFCF2F9253
:102D20003F924F925F926F927F928F929F92AF925B
:102D3000BF92CF92DF92EF92FF920F931F93DF9398
:102D4000CF93CDB7DEB7AC970FB6F894DEBF0FBE0A
:102D5000CDBF86559F4FDC018C91AA5AB040BCA7CD
:102D6000ABA7882309F40AC4AB56BF4FBA83A98323
:102D7000EBA5FCA5EB5AFF4FFC83EB832BA53CA5F1
:102D80002F5B3F4F3E832D838BA59CA586569F4F7F
:102D900098878F83ABA5BCA5AA56BF4FBA87A987D2
:102DA000EBA5FCA5E75AFF4FFC87EB872BA53CA5BD
:102DB0002B5B3F4F3E872D878BA59CA585569F4F4C
:102DC000988B8F87ABA5BCA5A956BF4FBA8BA98B93
:102DD000EBA5FCA5E35AFF4FFC8BEB8B2BA53CA589
:102DE000275B3F4F3E8B2D8B8BA59CA584569F4F19
:102DF000988F8F8BABA5BCA5A856BF4FBA8FA98F54
:102E0000EBA5FCA5EF59FF4FFC8FEB8F2DE4222E95
:102E1000312C2BA53CA5220E331E23563F4F3E8F4F
:102E20002D8F8BA59CA587569F4F98A38F8FABA501
:102E3000BCA5AB59BF4FBAA3A9A391E5492E512C0C
:102E4000EBA5FCA54E0E5F1EE256FF4FFCA3EBA3C5
:102E500088EA682E712C2BA53CA5620E731E27599B
:102E60003F4F3EA32DA38BA59CA583589F4F98A7AA
:102E70008FA30FE9802E912CABA5BCA58A0E9B1EBB
:102E8000A359BF4FBAA7A9A7E981FA816081AB8195
:102E9000BC812D913D914D915C91ED81FE818081B0
:102EA0009181A281B381281739074A075B0751F046
:102EB000662311F48FE001C08EE00E94822D892BE1
:102EC00009F04AC380E0AF81B8858C93E985FA8523
:102ED0006081AB85BC852D913D914D915C91ED85D7
:102EE000FE8580819181A281B381281739074A0725
:102EF0005B0751F0662311F481E101C080E10E947B
:102F0000822D892B09F02AC380E0AF85B8898C9384
:102F1000E989FA896081AB89BC892D913D914D91F8
:102F20005C91ED89FE8980819181A281B38128170E
:102F300039074A075B0751F0662311F483E101C0AA
:102F400082E10E94822D892B09F00AC380E0AF89BB
:102F5000B88D8C93E98DFA8D808160E0AB8DBC8D4E
:102F60002D913D914D915C91F10180819181A281E2
:102F7000B381281739074A075B0709F061E0AD8D77
:102F8000BE8D6C93EF8DF8A1808160E0A9A1BAA1FC
:102F90002D913D914D915C91F20180819181A281B1
:102FA000B381281739074A075B0709F061E0ABA135
:102FB000BCA16C93F3011082AF81B8858C918823FA
:102FC00009F453C0EDA1FEA180819181A281B3815A
:102FD000EFA1F8A52081318142815381820F931F97
:102FE000A41FB51F80839183A283B383181619068B
:102FF0001A061B06D4F589E161E00E94F12C89E1F3
:1030000060E00E94F12C81E0D3018C93F4012081D7
:10301000318142815381EFA1F8A580819181A28104
:10302000B381821B930BA40BB50B80839183A28386
:10303000B383A981BA818C91882351F0ED81FE81FF
:1030400080819181A281B3810196A11DB11D09C02A
:10305000ED81FE8180819181A281B3810197A109D7
:10306000B10980839183A283B383AF85B8898C91A2
:10307000882309F455C00BA51CA50F571F4FE9A5C0
:10308000FAA580819181A281B381F80120813181EB
:1030900042815381820F931FA41FB51F80839183A8
:1030A000A283B383181619061A061B06CCF58FE106
:1030B00061E00E94F12C8FE160E00E94F12C81E040
:1030C000D3018C93F4012081318142815381F80135
:1030D00080819181A281B381821B930BA40BB50BDC
:1030E00080839183A283B383A985BA858C91882339
:1030F00051F0ED85FE8580819181A281B381019699
:10310000A11DB11D09C0ED85FE8580819181A2813F
:10311000B3810197A109B10980839183A283B3830D
:10312000AF89B88D8C91882309F45BC00BA51CA5D1
:103130000B571F4FEBA5FCA5EF58FF4F80819181E6
:10314000A281B381E157F040FCA7EBA7F8012081F1
:10315000318142815381820F931FA41FB51F808349
:103160009183A283B383181619061A061B06CCF5A1
:1031700085E261E00E94F12C85E260E00E94F12C82
:1031800081E0D3018C93F40120813181428153810C
:10319000F80180819181A281B381821B930BA40BE2
:1031A000B50B80839183A283B383A989BA898C915B
:1031B000882351F0ED89FE8980819181A281B381BC
:1031C0000196A11DB11D09C0ED89FE898081918103
:1031D000A281B3810197A109B10980839183A28360
:1031E000B383AD8DBE8D8C91882309F467C019E837
:1031F000E12EF12CEBA5FCA5EE0EFF1EEB58FF4FC8
:1032000080819181A281B381E557F040FCA7EBA7B3
:10321000F7012081318142815381820F931FA41FC6
:10322000B51F80839183A283B383181619061A06EB
:103230001B060CF043C0E0911A05F0E0EE0FFF1FF3
:10324000E85EFA4F00811181D80152968C9161E0BD
:103250000E94F12CF801828960E00E94F12C81E04B
:10326000D3018C93F4012081318142815381F70194
:1032700080819181A281B381821B930BA40BB50B3A
:1032800080839183A283B383A98DBA8D8C91882387
:1032900049F0F10180819181A281B3810196A11D44
:1032A000B11D08C0F10180819181A281B381019794
:1032B000A109B10980839183A283B383ABA1BCA18F
:1032C0008C91882309F45FC0EBA5FCA5E357FF4F61
:1032D0002BA53CA527583F4FD9012D913D914D91EC
:1032E0005C911397A957B040BCA7ABA7808191818F
:1032F000A281B381280F391F4A1F5B1F20833183AE
:103300004283538312161306140615069CF5D40146
:10331000ED90FD900D911C912E193F09400B510B22
:103320002083318342835383EF8DF8A180818823EA
:1033300049F0F20180819181A281B3810196A11DA2
:10334000B11D08C0F20180819181A281B3810197F2
:10335000A109B10980839183A283B3832BA53CA5E6
:1033600027553F4F81E0D9018C93A95AB040BCA7A3
:10337000ABA709C0EBA5FCA5E755FF4F1082E95AA2
:10338000F040FCA7EBA7D3018C91882309F49AC0E5
:10339000EBA5FCA5E755FF4F8081E95AF040FCA75B
:1033A000EBA7882309F48EC0EF56FF4FFCA7EBA7CD
:1033B000D2016D917D918D919C91208131814281CD
:1033C00053810E94BE36EBA5FCA57296DF01608397
:1033D000718382839383A35AB040BCA7ABA70E949A
:1033E00042357B018C01EBA5FCA5FD9660817181C6
:1033F0008281938120EC31EE44E65CE40E94F63554
:103400005B016C01F40160817181828193810E9472
:1034100042359B01AC01C801B7010E94F6359B0102
:10342000AC01C601B5010E94A73420E030E040E0C5
:1034300050E00E94F2358823D4F0D4016D917D9143
:103440008D919C910E9442359B01AC01C801B7014E
:103450000E94F6359B01AC01C601B5010E94A7345C
:1034600020E030E040E05FE30E943F3419C0F40107
:1034700060817181828193810E9442359B01AC0100
:10348000C801B7010E94F6359B01AC01C601B50128
:103490000E94A73420E030E040E05FE30E943E3429
:1034A0000E940F352BA53CA52D553F4FD9016D939B
:1034B0007D938D939C931397A35AB040BCA7ABA761
:1034C0000E94E90BEBA5FCA5E755FF4F1082E95AD6
:1034D000F040FCA7EBA7D3018C91882309F042C0F0
:1034E000EBA1FCA180818823E9F1CECC2BA53CA5E2
:1034F00025563F4FD9018C91AB59B040BCA7ABA723
:103500008823D1F4A456BF4F8C91AC59B040BCA7CE
:10351000ABA7882389F4A356BF4F8C91AD59B04017
:10352000BCA7ABA7882341F4A256BF4F8C91AE59DC
:10353000B040BCA7ABA701C081E0EBA5FCA5E65558
:10354000FF4F808380818823C9F468EE73E080E0B8
:1035500090E00E94E90B12C081E0B5CC81E0D5CCAF
:1035600081E0F5CCEBA5FCA5E656FF4F8081EA593A
:10357000F040FCA7EBA78823F9F6B8CFAC960FB6BE
:10358000F894DEBF0FBECDBFCF91DF911F910F9199
:10359000FF90EF90DF90CF90BF90AF909F908F9073
:1035A0007F906F905F904F903F902F9008951F9263
:1035B0000F920FB60F920BB60F9211241F932F93F9
:1035C0003F934F935F936F937F938F939F93AF93AB
:1035D000BF93EF93FF9380913C05882309F05DC072
:1035E00081E080933C057894809126059091270591
:1035F000019690932705809326058058924031F4D8
:103600000E9452161092270510922605E09124057B
:10361000F0E0EE0FFF1FE55EFA4F0190F081E02D24
:10362000E655FF4F8081882361F0E0912405F0E0AA
:10363000EE0FFF1FE55EFA4F808191810E948F1689
:1036400022C090912405809123059817F9F4E09108
:103650002405F0E0EE0FFF1FE55EFA4F0190F081C8
:10366000E02DE655FF4F8081882381F40CC0E12FC7
:10367000F0E0EE0FFF1FE55EFA4F808191810E941E
:10368000E8141093240510923C0507C010912405FE
:103690001F5F143060F310E0EACFFF91EF91BF910C
:1036A000AF919F918F917F916F915F914F913F91DA
:1036B0002F911F910F900BBE0F900FBE0F901F9078
:1036C00018952F923F924F925F926F927F928F92B6
:1036D0009F92AF92BF92CF92DF92EF92FF920F93A1
:1036E0001F93DF93CF93CDB7DEB7A4970FB6F894AF
:1036F000DEBF0FBECDBF2C016BA37CA3DC015596B2
:10370000FB0184E101900D928150E1F727EA30E05E
:10371000420E531ED2011C92E9E5FFEF4E0E5F1ED2
:10372000D20155966D917D918D919C9158972091E4
:1037300028053091290540912A0550912B050E94BA
:103740003E345B016C01E894D7F8F201618D728D13
:10375000838D948D20912C0530912D0540912E055F
:1037600050912F050E943E347B018C01E89417F99B
:10377000D2015D966D917D918D919C919097209154
:1037800030053091310540913205509133050E944A
:103790003E343B014C01E89497F8F20161A172A11B
:1037A00083A194A1209134053091350540913605CF
:1037B000509137050E943E349B01AC015F77298F01
:1037C0003A8F4B8F5C8FD20195966D917D918D9143
:1037D0009C919897209138053091390540913A0590
:1037E00050913B050E943E349B01AC015F772D8FC9
:1037F0003E8F4F8F58A3D201D9962D933D934D9371
:103800005C93DC97298D3A8D4B8D5C8DD5962D93ED
:103810003D934D935C93D897F20161AA72AA83AA53
:1038200094AA9D96ED92FD920D931C93D097A1A61C
:10383000B2A6C3A6D4A6C601B501A60195010E94F1
:10384000F6355B016C01C801B701A80197010E9420
:10385000F6359B01AC01C601B5010E943F347B01E6
:103860008C01C401B301A40193010E94F6359B01B0
:10387000AC01C801B7010E943F348201035C1F4FB5
:10388000D8016D937D938D939C93139727E137EB2C
:1038900041ED58E30E94A33488236CF4698D7A8D3E
:1038A0008B8D9C8D9B01AC010E94F635F8016083E5
:1038B0007183828393838201035C1F4FD8016D91D2
:1038C0007D918D919C9127E137EB41ED58E30E946A
:1038D000A33488236CF46D8D7E8D8F8D98A19B0110
:1038E000AC010E94F635F801608371838283938373
:1038F0008201035C1F4FD8016D917D918D919C9148
:103900000E945D36F8016083718382839383720124
:103910000894E11CF11C21E430E0420E531E8E019C
:103920000F5F1F4FC801B70148E255E00E94EE0942
:10393000D2014FEB5FEF440E551EF80184E1019078
:103940000D928150E1F785E190E0480E591E8E01FD
:103950000F5F1F4FC801B701A2010E94EE09A0E44A
:10396000B0E04A0E5B1ED201EBEAFFEF4E0E5F1E87
:10397000F80184E101900D928150E1F7F201EB5AD8
:10398000FF4F21E430E0420E531E60807180828040
:103990009380F20180819181A281B3812FEB3FEF6F
:1039A000420E531E681A790A8A0A9B0A97FE08C0BB
:1039B0009094809470946094611C711C811C911C83
:1039C000F201E75AFF4F45E450E0440E551EE080F7
:1039D000F18002811381F20180819181A281B38102
:1039E0002BEB3FEF420E531EE81AF90A0A0B1B0B92
:1039F00017FF08C010950095F094E094E11CF11CAD
:103A0000011D111DF201E35AFF4F49E450E0440E3D
:103A1000551E80819181A281B3818D8B9E8BAF8B4E
:103A2000B88FF20180819181A281B38127EB3FEFB2
:103A3000420E531E2D893E894F89588D281B390B04
:103A40004A0B5B0B2D8B3E8B4F8B588F57FF0BC058
:103A500050954095309521953F4F4F4F5F4F2D8B9F
:103A60003E8B4F8B588FF201EF59FF4F4DE450E0E2
:103A7000440E551EA080B180C280D380F2018081A7
:103A80009181A281B38123EB3FEF420E531EA81A0E
:103A9000B90ACA0ADB0AD7FE08C0D094C094B09411
:103AA000A094A11CB11CC11CD11CB20167587F4F4E
:103AB000F201EB59FF4F41E550E0440E551E2081C5
:103AC000318142815381F20180819181A281B38150
:103AD000EFEAFFEF4E0E5F1E281B390B4A0B5B0B04
:103AE00057FF07C050954095309521953F4F4F4F58
:103AF0005F4FDB012D933D934D935C931397E5E767
:103B0000F0E04E0E5F1ED201AD92BD92CD92DC92DE
:103B100013972D893E894F89588D5E934E933E931E
:103B20002E93FD0112930293F292E292DF019E9294
:103B30008E927E926E922D01E7E9FFEF4E0E5F1E90
:103B4000D401C3016E147F048006910614F4D801D9
:103B5000C701F201E156FF4F80839183A283B383B3
:103B6000E080F1800281138121E730E0420E531E94
:103B7000D2012D913D914D915C918FE89FEF480EC0
:103B8000591E2E153F054007510724F4208131812D
:103B900042815381F201E156FF4F208331834283FA
:103BA0005383E080F18002811381A5E7B0E04A0EE3
:103BB0005B1ED2012D913D914D915C918BE89FEF61
:103BC000480E591E2E153F054007510724F4208149
:103BD000318142815381EFE9EE2EF12CE40CF51C8A
:103BE000D7012D933D934D935C9313978D919D91A8
:103BF0000D90BC91A02D0097A105B10599F4E7EABD
:103C0000F0E04E0E5F1E81E0D2018C93A8E2B5E099
:103C10002BA13CA1C901FC0184E101900D928150CE
:103C2000E1F78AC175E6272E312C240C351CF101F1
:103C3000608071808280938092012F5A3F4F3AA317
:103C400029A3D9016D927D928D929C921397E9E7F9
:103C5000F0E04E0E5F1ED2011D921D921D921C922D
:103C60001397E7E8FFEF4E0E5F1E82010F561F4FBE
:103C700021E030E040E050E0D8012D933D934D939A
:103C80005C931397F70180819181A281B381B7FF83
:103C90006DC0208131814281538160E070E080E01D
:103CA00090E00E94123759016A01D801AD92BD928D
:103CB000CD92DC921397B3E0AB16B104C104D104EA
:103CC0000CF445C0C401B301A60195010E9412374E
:103CD000F1012083318342835383C401B301A601E0
:103CE00095010E941237C901DA01E9A1FAA1808386
:103CF0009183A283B383281B390B4A0B5B0B57FFBD
:103D000007C050954095309521953F4F4F4F5F4FDD
:103D100089E790E0480E591ED2012D933D934D93B3
:103D20005C931397E7E8FFEF4E0E5F1EF201E1563A
:103D3000FF4F80819181A281B38182179307A407ED
:103D4000B507A4F420833183428353830FC021E05D
:103D500030E040E050E0D8012D933D934D935C93CB
:103D60001397F701108211821282138210E0D201A0
:103D700055966D917D918D919C9158972091280534
:103D80003091290540912A0550912B050E94F2356A
:103D900088230CF011E0E5E9F0E04E0E5F1ED20141
:103DA0001C93EBE6FFEF4E0E5F1E10E0D20159961A
:103DB0006D917D918D919C915C9720912C05309116
:103DC0002D0540912E0550912F050E94F235882334
:103DD0000CF011E0E6E9F0E04E0E5F1ED2011C93FC
:103DE000EAE6FFEF4E0E5F1E10E0D2015D966D9188
:103DF0007D918D919C919097209130053091310566
:103E000040913205509133050E94F23588230CF021
:103E100011E0E7E9F0E04E0E5F1ED2011C93E9E6E7
:103E2000FFEF4E0E5F1E10E0D20191966D917D91D5
:103E30008D919C9194972091340530913505409156
:103E40003605509137050E94F23588230CF011E0B9
:103E5000E8E9F0E04E0E5F1ED2011C93E8E6FFEFAA
:103E60004E0E5F1E10E0D20195966D917D918D9161
:103E70009C919897209138053091390540913A05E9
:103E800050913B050E94F23588230CF011E0E9E9DE
:103E9000F0E04E0E5F1ED2011C93E6E0F0E04E0E05
:103EA0005F1ED2016D917D918D919C91E1E6FFEFB6
:103EB0004E0E5F1E22E030E040E050E00E941237DC
:103EC00050954095309521953F4F4F4F5F4FD20110
:103ED000A358BF4F2C9311963C93119712964C9375
:103EE000129713965C931397F201EF57FF4F2083BD
:103EF00031834283538325E830E0420E531E8D9177
:103F00009D910D90BC91A02DF20181939193A1936D
:103F1000B19381939193A193B19380839183A28371
:103F2000B383A8E2B5E02BA13CA1C901FC0184E167
:103F300001900D928150E1F7A4960FB6F894DEBF80
:103F40000FBECDBFCF91DF911F910F91FF90EF90EA
:103F5000DF90CF90BF90AF909F908F907F906F90A9
:103F60005F904F903F902F9008951F93CF93DF93D2
:103F7000EC0106C061E070E080E090E00E94162B4A
:103F800080912405882329F480912305833059F4F6
:103F9000F1CF209123058091240530E090E0019736
:103FA0002817390739F3109123051F5F143008F0E3
:103FB00010E0E12FF0E0EE0FFF1FE55EFA4F808189
:103FC0009181BE010E94611B10932305DF91CF9167
:103FD0001F910895CF93DF93EC019B01A6EEB5E00E
:103FE000E8E2F5E084E101900D928150E1F78881EB
:103FF0009981AA81BB818093EE059093EF05A093F0
:10400000F005B093F105F90180819181A281B3811E
:104010008093F6059093F705A093F805B093F90502
:1040200086EE95E00E94B51FDF91CF9108958F92A3
:104030009F92AF92BF92CF92DF92EF92FF920F9337
:104040001F93DF93CF93CDB7DEB7A0970FB6F89449
:10405000DEBF0FBECDBF0F2EF0E0AF2EF0E0BF2EC3
:10406000F4E3CF2EF2E4DF2EF02DA0923805B092CB
:104070003905C0923A05D0923B05B0E38B2EB5E0EE
:104080009B2EF401608171818281938120E030E078
:1040900040E05FE30E943E3469837A838B839C8394
:1040A0000F2EF0E0EF2EF0E0FF2EF6E90F2FF2E4F6
:1040B0001F2FF02DED82FE820F831887CE0101960F
:1040C000BE016B5F7F4F0E94EA1FF4016081718126
:1040D0008281938120E030E04AE753E40E943E343D
:1040E00069877A878B879C87ED86FE860F87188B7A
:1040F000CE010996BE01635F7F4F0E94EA1F0F2E1B
:10410000F0E0EF2EF0E0FF2EF0E00F2FF0E01F2F99
:10411000F02DF401E082F18202831383A09238052E
:10412000B0923905C0923A05D0923B0580E090E00C
:10413000A0E8BFE3898B9A8BAB8BBC8BAD8ABE8A20
:10414000CF8AD88ECE014196BE016B5E7F4F0E9412
:10415000EA1FF401608171818281938120E030E067
:1041600040E050E40E943E34698F7A8F8B8F9C8FA1
:10417000AD8EBE8ECF8ED8A2CE014996BE01635EB3
:104180007F4F0E94EA1FF401E082F18202831383D1
:10419000A0960FB6F894DEBF0FBECDBFCF91DF91D2
:1041A0001F910F91FF90EF90DF90CF90BF90AF9055
:1041B0009F908F900895CF93DF93EC019B01A6EE23
:1041C000B5E0E8E2F5E084E101900D928150E1F77D
:1041D00088819981AA81BB818093EA059093EB0540
:1041E000A093EC05B093ED05F90180819181A28146
:1041F000B3818093F6059093F705A093F805B093EB
:10420000F90586EE95E00E94B51FDF91CF910895E4
:10421000AF92BF92CF92DF92EF92FF920F931F93D4
:10422000DF93CF93CDB7DEB7A0970FB6F894DEBF7C
:104230000FBECDBF60912C0570912D0580912E058C
:1042400090912F0520E030E040EA50E40E943E3497
:1042500069837A838B839C830F2EF0E0EF2EF0E04E
:10426000FF2EFAE70F2FF5E41F2FF02DED82FE82CF
:104270000F831887CE010196BE016B5F7F4F0E94AE
:10428000DB2060912C0570912D0580912E05909179
:104290002F0520E030E04AE753E40E943E3469876E
:1042A0007A878B879C87ED86FE860F87188BCE01D9
:1042B0000996BE01635F7F4F0E94DB200F2EF0E066
:1042C000AF2EF0E0BF2EF0E0CF2EF0E0DF2EF02D8D
:1042D000A0922C05B0922D05C0922E05D0922F05EC
:1042E0000F2EF0E0EF2EF0E0FF2EF6E90F2FF4E4B2
:1042F0001F2FF02DE0923805F092390500933A0512
:1043000010933B0580E090E0A0E8BFE3898B9A8B97
:10431000AB8BBC8BED8AFE8A0F8B188FCE0141963A
:10432000BE016B5E7F4F0E94DB2060912C05709177
:104330002D0580912E0590912F0520E030E040E280
:1043400051E40E943E34698F7A8F8B8F9C8FED8E63
:10435000FE8E0F8F18A3CE014996BE01635E7F4F7C
:104360000E94DB20A0922C05B0922D05C0922E0554
:10437000D0922F05A0960FB6F894DEBF0FBECDBF2A
:10438000CF91DF911F910F91FF90EF90DF90CF9031
:10439000BF90AF900895CF93DF93EC019B01A6EE01
:1043A000B5E0E8E2F5E084E101900D928150E1F79B
:1043B00088819981AA81BB818093E6059093E70566
:1043C000A093E805B093E905F90180819181A2816C
:1043D000B3818093F6059093F705A093F805B09309
:1043E000F90586EE95E00E94B51FDF91CF91089503
:1043F0008F929F92AF92BF92CF92DF92EF92FF92F5
:104400000F931F93DF93CF93CDB7DEB7A0970FB66F
:10441000F894DEBF0FBECDBF0F2EF0E0AF2EF0E060
:10442000BF2EF6E9CF2EF4E4DF2EF02DA092380552
:10443000B0923905C0923A05D0923B0518E2812E20
:1044400015E0912EF401608171818281938120E0D9
:1044500030E040EA50E40E943E3469837A838B83E3
:104460009C830F2EF0E0EF2EF0E0FF2EFAE70F2FE7
:10447000F5E41F2FF02DED82FE820F831887CE0109
:104480000196BE016B5F7F4F0E94CB21F4016081DA
:1044900071818281938120E030E04AE753E40E94F9
:1044A0003E3469877A878B879C87ED86FE860F87E7
:1044B000188BCE010996BE01635F7F4F0E94CB210E
:1044C0000F2EF0E0EF2EF0E0FF2EF0E00F2FF0E0E7
:1044D0001F2FF02DF401E082F18202831383A0925A
:1044E0003805B0923905C0923A05D0923B0580E07C
:1044F00090E0A0E8BFE3898B9A8BAB8BBC8BAD8A35
:10450000BE8ACF8AD88ECE014196BE016B5E7F4FA8
:104510000E94CB21F401608171818281938120E02E
:1045200030E040E251E40E943E34698F7A8F8B8FF5
:104530009C8FAD8EBE8ECF8ED8A2CE014996BE0185
:10454000635E7F4F0E94CB21F401E082F1820283FF
:104550001383A0960FB6F894DEBF0FBECDBFCF91E8
:10456000DF911F910F91FF90EF90DF90CF90BF9060
:10457000AF909F908F9008954F925F926F927F922D
:104580008F929F92AF92BF92CF92DF92EF92FF9263
:104590000F931F93CF93DF93EC01AB0188818F3290
:1045A00009F4ADC580E090E0A0E0B0E08093D205D2
:1045B0009093D305A093D405B093D5058093D605E9
:1045C0009093D705A093D805B093D9058093DA05C9
:1045D0009093DB05A093DC05B093DD058093DE05A9
:1045E0009093DF05A093E005B093E1058093E20589
:1045F0009093E305A093E405B093E5058AEF95E079
:10460000BE010E94B60D6091FA057091FB05CB01C9
:10461000880F892F881F990B91958170972F917022
:1046200070FD03C0882309F405C1981709F44DC033
:104630008091D80482FFDAC02FE536E0992319F182
:104640008DB79EB708970FB6F8949EBF0FBE8DBF6B
:10465000EDB7FEB73196ADB7BEB712963C932E9329
:10466000119781EA92E09383828380912E06909144
:104670002F0695838483D783C6830E942B05EDB7CD
:10468000FEB73896AEC08DB79EB70A970FB6F894AE
:104690009EBF0FBE8DBFEDB7FEB73196ADB7BEB7AB
:1046A00012963C932E9311978DEE92E09383828322
:1046B0008091300690913106A0913206B091330678
:1046C00084839583A683B78336C0992309F4B2C047
:1046D00090E080E002C09E278F5FFE01E80FF11D91
:1046E000E081EA32C1F720912E0630912F06492F42
:1046F00050E02417350739F18091D80482FF76C045
:104700008DB79EB70A970FB6F8949EBF0FBE8DBFA8
:10471000EDB7FEB731968FE596E0ADB7BEB712960E
:104720009C938E9311978BE393E0938382833583DD
:10473000248357834683D187C0870E942B05EDB71A
:10474000FEB73A964EC061FF08C08091FE05909179
:10475000FF058E36910509F45DC0E0903006F090BB
:1047600031060091320610913306209134063091C3
:10477000350640913606509137062F5F3F4F4F4F19
:104780005F4FE216F3060407150709F443C0809152
:10479000D80482FF2BC08DB79EB70E970FB6F89442
:1047A0009EBF0FBE8DBFEDB7FEB731968FE596E089
:1047B000ADB7BEB712969C938E93119784E993E0A0
:1047C00093838283E482F58206831783208731876F
:1047D00042875387D587C4870E942B05EDB7FEB764
:1047E0003E960FB6F894FEBF0FBEEDBF8091340623
:1047F00090913506A0913606B09137060196A11D1D
:10480000B11D8093730790937407A0937507B093BD
:10481000760775C48091300690913106A0913206DA
:10482000B09133068093340690933506A0933606F4
:10483000B0933706CB0183709074892B91F4611586
:10484000710579F08091D9049091DA0497FD09C03F
:104850009093FD058093FC0561607093FB05609368
:10486000FA058091FA0581FF09C08091FE059091BB
:10487000FF058037910511F40E946216C091FA0578
:10488000D091FB05C0FF78C28091FC059091FD0599
:104890009093DA048093D904A2EDB5E0E8E2F5E064
:1048A00084E101900D928150E1F78091DB049E013B
:1048B00028703070882309F449C0232B81F080913F
:1048C000060690910706A0910806B091090680930C
:1048D000D2059093D305A093D405B093D505C4FF1A
:1048E00010C080910A0690910B06A0910C06B09121
:1048F0000D068093D6059093D705A093D805B09365
:10490000D905C5FF10C080910E0690910F06A091A9
:104910001006B09111068093DA059093DB05A09301
:10492000DC05B093DD05D5FF81C080911206909122
:104930001306A0911406B09115068093DE0590939E
:10494000DF05A093E005B093E10570C0232BD1F003
:104950006091D2057091D3058091D4059091D505D1
:1049600020910606309107064091080650910906ED
:104970000E943F346093D2057093D3058093D40591
:104980009093D505C4FF1AC06091D6057091D705E4
:104990008091D8059091D90520910A0630910B0697
:1049A00040910C0650910D060E943F346093D6054D
:1049B0007093D7058093D8059093D905C5FF1AC089
:1049C0006091DA057091DB058091DC059091DD0541
:1049D00020910E0630910F0640911006509111065D
:1049E0000E943F346093DA057093DB058093DC0509
:1049F0009093DD05D5FF1AC06091DE057091DF054B
:104A00008091E0059091E105209112063091130606
:104A100040911406509115060E943F346093DE05C4
:104A20007093DF058093E0059093E105D1FF10C0FE
:104A300080911E0690911F06A0912006B09121063C
:104A40008093E2059093E305A093E405B093E50518
:104A50008091FC059091FD058130910539F18C31F3
:104A6000910549F1892B09F04DC0E090E205F090E5
:104A7000E3050091E4051091E50580E090E0AAE7E8
:104A8000B5E48093E2059093E305A093E405B09329
:104A9000E50582ED95E00E94B51FE092E205F092F7
:104AA000E3050093E4051093E50529C382ED95E045
:104AB0000E94B51F24C3C3FD02C090E003C00E9442
:104AC000F82191E08091FA0584FF03C00E9408213B
:104AD00091E08091FA0585FD06C0992331F40E948A
:104AE000F8210E9408210E94172080E090E0A6E9AA
:104AF000B4E48093380590933905A0933A05B093B8
:104B00003B05FDC29091240580912305981709F07B
:104B1000E1C2E0912405F0E0EE0FFF1FE55EFA4FE1
:104B20000190F081E02DE655FF4F8081882309F048
:104B3000D1C22091FC053091FD052531310509F4E4
:104B400087C02631310544F42430310591F02431F9
:104B5000310509F0DCC024C02B35310509F4CAC089
:104B60002C35310509F4C9C02A35310509F0CFC00B
:104B7000BDC0609102067091030680910406909179
:104B8000050620E030E040E05FE30E943F340E94F1
:104B90000F35882777FD8095982F0E94162BECC043
:104BA000CBE1D5E00F2EF1E2CF2EF8E9DF2EFDEFBD
:104BB000EF2EF4E4FF2EF02D0F2EF0E04F2EF0E05C
:104BC0005F2EFEEF6F2EF6E47F2EF02D0F2EF0E01D
:104BD0008F2EF0E09F2EF0E8AF2EFFE3BF2EF02DDA
:104BE00009911991D8011C92F801C182D282E38205
:104BF000F4821596CD92DD92ED92FC921897418643
:104C0000528663867486E0911A05F0E0EE0FFF1F6E
:104C1000E85EFA4F0190F081E02D60857185828514
:104C2000938523E333E34BEC51E40E94F635D8013E
:104C30001D966D937D938D939C935097F801818A77
:104C4000928AA38AB48AF5E0C332DF0749F694C09A
:104C5000CBE1D5E09924939442E95EEB6FE972E4ED
:104C60000F2EF0E0AF2EF0E0BF2EF0EACF2EF4E4EE
:104C7000DF2EF02D0F2EF0E0EF2EF0E0FF2EF0E80B
:104C80000F2FFFE31F2FF02D29913991D9019C920D
:104C9000F901418352836383748315964D935D9329
:104CA0006D937C931897A186B286C386D486E091D3
:104CB0001A05F0E0EE0FFF1FE85EFA4F0190F08159
:104CC000E02D80859185A285B385F901858796873A
:104CD000A787B08BD9015196ED92FD920D931C934D
:104CE0005497B5E0C332DB0779F646C081E0809384
:104CF000DB0442C01092DB043FC0A8E2B5E0E2ED65
:104D0000F5E084E101900D928150E1F735C080918A
:104D1000D80482FF1EC000D000D000D0EDB7FEB78F
:104D200031968FE596E0ADB7BEB712969C938E9301
:104D300011978AED93E093838283358324830E94C5
:104D40002B05EDB7FEB736960FB6F894FEBF0FBE33
:104D5000EDBF8091340690913506A0913606B09152
:104D600037060196A11DB11D8093730790937407B8
:104D7000A0937507B09376078091FA0581FF8AC1E9
:104D80009091240580912305981709F0AAC1E0911C
:104D90002405F0E0EE0FFF1FE55EFA4F0190F08171
:104DA000E02DE655FF4F8081882309F09AC12091BC
:104DB000FE053091FF052037310509F4C6C02137C3
:104DC0003105E4F42D36310584F42A3631050CF032
:104DD00061C12836310599F1293631050CF055C0ED
:104DE0002115310509F4B1C020C12E36310509F471
:104DF0008AC02F3631050CF09BC065C020383105C4
:104E00008CF42E3731050CF045C12237310509F4F9
:104E10009FC0223731050CF43DC12437310509F01C
:104E200004C1DAC02C38310509F4E2C02C38310550
:104E30000CF4FBC02F3831050CF0F7C02BC180916A
:104E4000FA059091FB0592FF25C1E0911A05F0E06B
:104E5000EE0FFF1FE85EFA4FC080D18060912206FE
:104E60007091230680912406909125060E940F35AB
:104E70007B018C01D60150968D919C9151970E9497
:104E8000A40FF601F182E08205C1E0911A05F0E07D
:104E9000EE0FFF1FE85EFA4F0190F081E02D0088D1
:104EA000F189E02D83A194A19093600780935F071F
:104EB000E0915B06F0915C0683A194A19093620758
:104EC00080936107E7C0E0911A05F0E0EE0FFF1F45
:104ED000E85EFA4FC080D18060912206709123066F
:104EE00080912406909125060E940F357B018C014C
:104EF000D60150968D919C9151970E94A40FF60176
:104F0000F182E08269C08091FA0587FFC3C0809179
:104F1000300690913106A0913206B091330680930D
:104F2000340690933506A0933606B0933706B2C088
:104F300060912206709123068091240690912506A7
:104F40000E9414356093D804A5C00E946216A2C0C6
:104F50008091280590912905A0912A05B0912B05F3
:104F60008093630790936407A0936507B0936607E7
:104F700080912C0590912D05A0912E05B0912F05C3
:104F80008093670790936807A0936907B0936A07B7
:104F90008091300590913105A0913205B091330593
:104FA00080936B0790936C07A0936D07B0936E0787
:104FB0008091340590913505A0913605B091370563
:104FC00080936F0790937007A0937107B093720757
:104FD00081E0809378075EC0E0911A05F0E0EE0F63
:104FE000FF1FE85EFA4F808191810E949C1252C09F
:104FF0008091FA059091FB0592FF4CC060912206CA
:105000007091230680912406909125060E940F3509
:105010007B018C0180915B0690915C060E94A40F3D
:10502000F0925006E0924F0635C08091D80482FF7E
:105030001EC000D000D000D0EDB7FEB731968FE58E
:1050400096E0ADB7BEB712969C938E9311978AEEF9
:1050500093E093838283358324830E942B05EDB7ED
:10506000FEB736960FB6F894FEBF0FBEEDBF809127
:10507000340690913506A0913606B0913706019618
:10508000A11DB11D8093730790937407A0937507BA
:10509000B09376078091FA059091FB0596FF2FC09B
:1050A0009091240580912305981711F5E09124052E
:1050B000F0E0EE0FFF1FE55EFA4F0190F081E02D6A
:1050C000E655FF4F8081882399F4809100060E9465
:1050D000420C15C061E070E080E090E00E94162B69
:1050E00011CD61E070E080E090E00E94162B48CE88
:1050F00061E070E080E090E00E94162BD1CFDF915C
:10510000CF911F910F91FF90EF90DF90CF90BF90C4
:10511000AF909F908F907F906F905F904F90089589
:105120000F931F9380E28093D7040AE011E027C019
:105130000093D7049091D7049032CCF09B3311F0B8
:10514000983219F41093D10504C0993211F41092D9
:10515000D1058091D105882351F48091D005E82FA5
:10516000F0E0E05BFA4F90838F5F8093D0058091F1
:10517000D00587FF04C01092D0051092D10588E8B1
:105180009CE00E940B30882309F432C18091D7043F
:105190008A3009F42DC188E89CE00E943930809360
:1051A000D7040E9452168091D7048D3019F6C0CFD3
:1051B0008091D7048A3009F020C1F0E0E05BFA4F1B
:1051C00010828091D80480FF20C000D000D000D091
:1051D000EDB7FEB731968FE596E0ADB7BEB7129644
:1051E0009C938E9311978AEF93E09383828380E55B
:1051F00095E0958384830E942B058DB79EB7069614
:105200000FB6F8949EBF0FBE8DBF6091D00580E5AC
:1052100095E070E00E94BC221092D0051092D1055A
:105220001091D80480917707882391F088E89CE05A
:1052300063E074E00E948E318FE596E061E00E94A9
:105240002F0F88E89CE00E94B2320E946216D5C0FF
:105250008091730790917407A0917507B0917607BC
:10526000B7FF07C088E89CE066E074E00E948E31DA
:1052700014C088E89CE069E074E00E948E3140919F
:10528000730750917407609175077091760788E8ED
:105290009CE02AE030E00E94693280915F079091A3
:1052A0006007855D9E4F84F088E89CE06DE074E0C7
:1052B0000E948E3160915F077091600788E89CE0E2
:1052C0004AE050E00E949F3280916107909162070E
:1052D000855D9E4F84F088E89CE061E174E00E9467
:1052E0008E31609161077091620788E89CE04AE026
:1052F00050E00E949F3280917807882309F450C0C3
:1053000088E89CE065E174E00E948E31409163077B
:1053100050916407609165077091660788E89CE08A
:1053200022E030E00E94553388E89CE06CE174E0B4
:105330000E948E314091670750916807609169071C
:1053400070916A0788E89CE022E030E00E945533C3
:1053500088E89CE060E274E00E948E3140916B0727
:1053600050916C0760916D0770916E0788E89CE022
:1053700022E030E00E94553388E89CE064E274E06B
:105380000E948E3140916F075091700760917107B4
:105390007091720788E89CE022E030E00E9455336B
:1053A000612F70E07695679561708FE596E00E94B9
:1053B0002F0F88E89CE00E94B23284ED9EEF90931C
:1053C000600780935F079093620780936107109254
:1053D0005F068FEF9FEFAFEFBFEF80937307909360
:1053E0007407A0937507B09376071092780705C0ED
:1053F000E091D005EE2309F0DBCE1F910F910895C7
:1054000010923C050E941B130E9490280895AF92B1
:10541000BF92CF92DF92EF92FF920F931F93CF93A1
:10542000DF9310923C0580916F008D7F80936F0019
:105430000E946B0B109227051092260584E061E014
:105440000E94CB2C109225058FEF9FEFAFEFBFEF9F
:105450008093340690933506A0933606B0933706B2
:1054600088E396E0909319058093180510921A0529
:10547000109223051092240589E797E090931C056C
:1054800080931B0584E298E090931E0580931D0590
:105490008FEC98E09093200580931F058AE799E0B0
:1054A0009093220580932105CBE1D5E061E022E9CC
:1054B0003EEB4FE952E40F2EF0E0AF2EF0E0BF2EAE
:1054C000F0EACF2EF4E4DF2EF02D0F2EF0E0EF2ED9
:1054D000F0E0FF2EF0E80F2FFFE31F2FF02DE991F2
:1054E000F9916083218332834383548325833683F8
:1054F00047835087A186B286C386D48680914006B2
:1055000090914106A0914206B09143068587968707
:10551000A787B08BE18AF28A038B148B85E0C332B4
:10552000D807E9F61092D0051092D10588E89CE0E2
:1055300040E051EE60E070E00E94122F88E89CE0AD
:1055400068E274E00E948E3188E89CE00E94B232EA
:1055500068EE73E080E090E00E94E90B80916F00BC
:10556000826080936F000E94A513DF91CF911F91FD
:105570000F91FF90EF90DF90CF90BF90AF90089584
:105580001F920F920FB60F9211242F933F938F9378
:105590009F93AF93BF938091730A9091740AA091E7
:1055A000750AB091760A3091770A0196A11DB11D56
:1055B000232F2D5F2D3720F02D570196A11DB11DF2
:1055C0002093770A8093730A9093740AA093750AC4
:1055D000B093760A80916F0A9091700AA091710A37
:1055E000B091720A0196A11DB11D80936F0A90932C
:1055F000700AA093710AB093720ABF91AF919F9104
:105600008F913F912F910F900FBE0F901F90189583
:105610008FB7F8942091730A3091740A4091750AFB
:105620005091760A8FBFB901CA0108959B01AC0160
:105630007FB7F89480916F0A9091700AA091710AD7
:10564000B091720A66B5A89B05C06F3F19F001962C
:10565000A11DB11D7FBFBA2FA92F982F8827860FB4
:10566000911DA11DB11D62E0880F991FAA1FBB1FCC
:105670006A95D1F7BC012DC0FFB7F89480916F0AED
:105680009091700AA091710AB091720AE6B5A89B38
:1056900005C0EF3F19F00196A11DB11DFFBFBA2F44
:1056A000A92F982F88278E0F911DA11DB11DE2E013
:1056B000880F991FAA1FBB1FEA95D1F7861B970B6E
:1056C000885E9340C8F221503040404050406851BD
:1056D0007C4F211531054105510571F6089501975B
:1056E00039F0880F991F880F991F02970197F1F7DA
:1056F0000895789484B5826084BD84B5816084BD4A
:1057000085B5826085BD85B5816085BDEEE6F0E03A
:10571000808181608083E1E8F0E010828081826096
:105720008083808181608083E0E8F0E08081816017
:105730008083E1EBF0E0808184608083E0EBF0E047
:10574000808181608083E1E9F0E0808182608083F4
:10575000808181608083E1EAF0E0808182608083E3
:10576000808181608083E1E2F1E0808182608083DA
:10577000808181608083E0E9F0E0808181608083C6
:10578000E0EAF0E0808181608083E0E2F1E0808106
:1057900081608083EAE7F0E080818460808380819B
:1057A0008260808380818160808380818068808343
:1057B0001092C1000895382F863308F03653209197
:1057C0007B00832F86958695869590E081709070FA
:1057D00043E0880F991F4A95E1F7277F282B2093F4
:1057E0007B0037708091DC048295880F880F807C65
:1057F000832B80937C0080917A00806480937A0070
:1058000080917A0086FDFCCF20917800409179004C
:10581000942F80E030E0282B392BC90108951F9385
:10582000CF93DF93182FEB0161E00E94CB2CE12F87
:10583000F0E0E254FE4F8491833051F48091800077
:10584000806880938000D0938900C09388009FC0B7
:10585000843051F480918000806280938000D093E6
:105860008B00C0938A0093C0813041F4209709F4E3
:1058700087C084B5806884BDC7BD89C0823041F4CB
:10588000209709F47DC084B5806284BDC8BD7FC007
:10589000863041F48091B00080688093B000C0935E
:1058A000B30075C0873041F48091B000806280936E
:1058B000B000C093B4006BC0883051F48091900068
:1058C000806880939000D0939900C09398005FC047
:1058D000893051F480919000806280939000D09341
:1058E0009B00C0939A0053C08A3051F4809190007D
:1058F000886080939000D0939D00C0939C0047C027
:105900008B3051F48091A00080688093A000D093E8
:10591000A900C093A8003BC084918C3051F48091C1
:10592000A00080628093A000D093AB00C093AA0037
:105930002EC08D3051F48091A00088608093A0002B
:10594000D093AD00C093AC0022C08E3051F4809152
:105950002001806880932001D0932901C093280101
:1059600016C08F3051F48091200180628093200115
:10597000D0932B01C0932A010AC0C038D1051CF472
:10598000812F60E002C0812F61E00E94F12CDF9145
:10599000CF911F910895482F50E0CA0188589E4F1B
:1059A000FC0124914E5C5E4FFA0184918823C1F082
:1059B000E82FF0E0EE0FFF1FEC51FF4FA591B491DF
:1059C000662341F49FB7F8948C91209582238C93A1
:1059D0009FBF08959FB7F8948C91822B8C939FBFA3
:1059E0000895482F50E0CA0182549E4FFC01249133
:1059F000CA0188589E4FFC0134914E5C5E4FFA01FB
:105A00009491992309F47DC0222309F462C02330C4
:105A100021F4809180008F7705C0243031F480918B
:105A200080008F7D8093800054C0213019F484B5AC
:105A30008F7704C0223021F484B58F7D84BD49C0A6
:105A4000263021F48091B0008F7705C0273031F4E3
:105A50008091B0008F7D8093B0003BC0283021F44E
:105A6000809190008F7705C0293031F480919000AB
:105A70008F7D809390002DC02A3021F4809190007A
:105A8000877FF7CF2B3021F48091A0008F770BC058
:105A90002C3021F48091A0008F7D05C02D3031F491
:105AA0008091A000877F8093A00013C02E3021F446
:105AB000809120018F770BC02F3021F4809120013D
:105AC0008F7D05C0203129F480912001877F80934C
:105AD0002001E92FF0E0EE0FFF1FE250FF4FA591EC
